:020000040800F2
:10000000A009002045010008551D0008571D0008E3
:100010005B1D00085F1D0008631D00080000000054
:10002000000000000000000000000000671D000844
:10003000691D0008000000006B1D00086D1D000810
:100040005F0100085F0100085F0100085F01000810
:100050005F0100085F0100085F0100085F01000800
:100060005F0100085F0100085F0100085F010008F0
:100070005F0100085F0100085F0100085F010008E0
:100080005F0100085F0100085F0100085F010008D0
:100090005F0100085F0100085F0100085F010008C0
:1000A0005F0100085F0100085F0100085F010008B0
:1000B000DD1E00085F0100085F0100085F01000805
:1000C0005F0100085F0100085F0100085F01000890
:1000D0005F010008751D0008531E0008B11E0008CE
:1000E0005F0100085F0100085F0100085F01000870
:1000F0005F0100085F0100085F0100085F01000860
:100100005F0100085F0100085F0100085F0100084F
:100110005F0100085F0100085F0100085F0100083F
:100120005F0100085F0100085F0100085F0100082F
:10013000DFF80CD004F0E6FD00480047491D000838
:10014000A00900200648804706480047FEE7FEE772
:10015000FEE7FEE7FEE7FEE7FEE7FEE7FEE7FEE777
:1001600047020008310100080CB500200190009002
:100170006C48006840F480306A49086000BF6948F4
:10018000006800F4003000900198401C0190009835
:1001900018B90198B0F5A06FF1D16248006800F479
:1001A000003010B10120009001E000200090009884
:1001B000012843D15C48006840F010005A490860AB
:1001C0000846006820F0030008600846006840F018
:1001D0000200086053484068524948600846406839
:1001E00048600846406840F48060486008464068BF
:1001F00020F47C1048600846406840F4E8104860ED
:100200000846006840F08070086000BF45480068FC
:1002100000F000700028F9D04248406820F0030048
:10022000404948600846406840F00200486000BF0E
:100230003C48406800F00C000828F9D10CBD10B50E
:10024000FFF792FF10BD10B53648006840F001007E
:1002500034490860084640683449084031494860DC
:1002600008460068324908402E4908600846006880
:1002700020F4802008600846406820F4FE004860B2
:100280004FF41F008860FFF7DAFF4FF00060294944
:10029000086010BD10B5002100200022214B5B68D2
:1002A00003F00C0121B1042906D0082928D107E068
:1002B000214B224C236027E01F4B204C236023E07E
:1002C000184B5B6803F47010164B5B6803F48032C4
:1002D000022303EB904022B9194B4343174C236090
:1002E0000DE0104B5B6803F4003323B1144B434320
:1002F000124C236003E0104B4343104C236003E097
:100300000D4B0E4C236000BF00BF064B5B68C3F370
:1003100003130C4CE15C094B1B68CB40074C23607A
:1003200010BD000000100240002002400000FFF855
:10033000FFFFF6FE08ED00E000127A00000000204A
:1003400000093D000400002031490143314A116099
:10035000704770B5002100230F22C47804B32D4CE0
:10036000246804F4E064C4F5E064210AC1F10403E4
:10037000CA40447804FA03F1847814402143090107
:10038000254C0678A155047804F01F050124AC40E3
:1003900005786D11AD0005F1E025C5F8004109E0D3
:1003A000047804F01F050124AC401C4D067876113A
:1003B00045F8264070BD1A4A0A400243154B1B1FE0
:1003C0001A60704739B1134A121D12680243114B6B
:1003D0001B1D1A6006E00F4A121D126882430D4B66
:1003E0001B1D1A607047042808D14FF0E0210969ED
:1003F00041F004014FF0E022116107E04FF0E021ED
:10040000096921F004014FF0E022116170470000FA
:100410000000FA050CED00E000E400E080E100E0FF
:1004200080FFFF1F10B50446CC48844208D101214B
:10043000042000F02DFB0021042000F029FB46E001
:10044000C748844208D10121082000F021FB002187
:10045000082000F01DFB3AE0C248844208D1012187
:10046000102000F015FB0021102000F011FB2EE001
:10047000BD48844208D10121202000F009FB002161
:10048000202000F005FB22E0B848844208D1012179
:10049000402000F0FDFA0021402000F0F9FA16E0BB
:1004A000B348844208D10121802000F0F1FA0021F4
:1004B000802000F0EDFA0AE0AE48844207D1012125
:1004C000801500F0E5FA0021A01500F0E1FA10BD5A
:1004D00010B50121084600F0DBFA0021012000F0F0
:1004E000D7FA10BD2DE9F041024600250026002074
:1004F00000230024002791F803C00CF00F0591F8A9
:1005000003C00CF0100CBCF1000F03D091F802C036
:100510004CEA050591F800C0BCF1000F31D0146819
:1005200000202BE04FF0010C0CFA00F3B1F800C0F2
:100530000CEA03069E4220D183004FF00F0C0CFA08
:1005400003F7BC4305FA03FC4CEA040491F803C02A
:10055000BCF1280F06D14FF0010C0CFA00FCC2F8D8
:1005600014C00AE091F803C0BCF1480F05D14FF068
:10057000010C0CFA00FCC2F810C0401C0828D1D3B2
:100580001460B1F800C0BCF1FF0F34DD54680020E6
:100590002EE000F1080C4FF0010808FA0CF3B1F856
:1005A00000C00CEA03069E4221D183004FF00F0CDD
:1005B0000CFA03F7BC4305FA03FC4CEA040491F877
:1005C00003C0BCF1280F05D100F1080C08FA0CF8A3
:1005D000C2F8148091F803C0BCF1480F07D100F1B4
:1005E000080C4FF0010808FA0CF8C2F81080401C03
:1005F0000828CED35460BDE8F0814FF6FF7101802A
:10060000022181700421C170704702460020936866
:100610000B400BB1012000E00020704701468868C4
:1006200080B2704702460020D3680B400BB1012016
:1006300000E0002070470146C86880B27047016141
:100640007047416170470AB1016100E04161704744
:10065000C16070474FF480320A43826181618261D8
:1006600082698269704702460020434B18684FF642
:100670008073184040EA021008433F4B18607047EF
:100680003E49C8617047F0B50A46002300240021A6
:10069000002500F00046B6F1004F02D1364EF16958
:1006A00001E0354E7168C0F3034583B200F4401693
:1006B000B6F5401F08D121F070612F4E766826F004
:1006C00070662D4F7E6012E000F48016B6F5801F34
:1006D00006D1032606FA05F4A14341F0706106E055
:1006E000460D360103FA06F6B14341F0706122B1BE
:1006F000460D360103FA06F6314300F00046B6F126
:10070000004F02D11C4EF16101E01B4E7160F0BD43
:1007100030B500228B071C0F0F2303FA04F2164B8F
:1007200008338C1053F824309343134C08348D1045
:1007300044F8253023468C1053F824308C07240FBE
:1007400000FA04F423430C4C08348D1044F825308F
:1007500030BD0A49DC3108607047000000080140E4
:10076000000C01400010014000140140001801403D
:10077000001C014000200140000001400000204218
:10078000DF48006840F00100DD4908600846406825
:10079000DC490840DA49486008460068DA49084000
:1007A000D74908600846006820F4802008600846A1
:1007B000406820F4FE0048604FF41F0088607047D6
:1007C000CF49096821F48031CD4A1160114609688A
:1007D00021F480211160B0F5803F03D0B0F5802F67
:1007E0000ED106E0C649096841F48031C44A11605F
:1007F00007E0C349096841F4A021C14A116000E043
:1008000000BF00BF704710B5014600220023002042
:100810004A11012A02D1BA4C236806E0022A02D109
:10082000B74C236A01E0B64C636A01F01F02012451
:1008300094401C400CB1012000E0002010BD38B5F0
:10084000002000900024002500BF3120FFF7DBFFCF
:1008500005460098401C00900098B0F5A06F01D0AC
:10086000002DF2D03120FFF7CEFF08B1012400E0C7
:100870000024204638BD01460020A14A106820F01F
:10088000F80040EAC10010607047A0490860704756
:10089000024600209A4B586820F47C1042EA01037B
:1008A0001843974B5860704798490866704701464F
:1008B0000020934A506820F00300084350607047BE
:1008C0008F48406800F00C007047014600208C4AB9
:1008D000506820F0F0000843506070470146002047
:1008E000874A506820F4E060084350607047014632
:1008F0000020834A506820F4605040EAC1005060F4
:10090000704729B17E4A527A02437D4B5A7204E005
:100910007B4A527A82437A4B5A7270477B49D8316C
:100920000860704701460020754A506820F4404036
:100930000843506070470021714A20321170704A9C
:1009400082F82010012802D004280AD104E00121F5
:100950006B4A2032117005E00521694A203211707E
:1009600000E000BF00BF70476949086070476449F4
:10097000096A0143624A1162704765494439086057
:10098000704730B500210022002400235C4D6D68C3
:1009900005F00C0121B1042905D0082923D105E077
:1009A0005C4D056022E05B4D05601FE0544D6D68B5
:1009B00005F47012524D6D6805F48034022505EB84
:1009C00092421CB9544D554305600BE04C4D6D6887
:1009D00005F400351DB1504D5543056002E04D4D05
:1009E0005543056002E04B4D056000BF00BF444D1C
:1009F0006D6805F0F0010909484D6B5C0568DD4044
:100A000045603F4D6D6805F4E061090A434D6B5C3C
:100A10004568DD4085603A4D6D6805F46051C90A4E
:100A20003E4D6B5C4568DD40C560354D6D6805F435
:100A30004041890B3A4D6B5CC568B5FBF3F5056128
:100A400030BD29B12E4A526902432D4B5A6104E050
:100A50002B4A526982432A4B5A61704729B1284A6E
:100A600092690243264B9A6104E0254A92698243C7
:100A7000234B9A61704729B1214AD2690243204B26
:100A8000DA6104E01E4AD26982431D4BDA61704785
:100A900029B11B4AD2680243194BDA6004E0184AB4
:100AA000D2688243164BDA60704729B1144A126942
:100AB0000243134B1A6104E0114A12698243104B3E
:100AC0001A61704712494039086070470F49C8647D
:100AD00070470B49C87170470948406A40F0807000
:100AE00007494862704701460020054A92680A405B
:100AF0000AB1012000E00020704701498872704768
:100B0000001002400000FFF8FFFFF6FE0000424226
:100B10008004424200127A0000093D0014000020C7
:100B20002400002010B50446FE48844208D101216B
:100B3000C014FFF7ADFF0021E014FFF7A9FFC4E0E8
:100B4000B4F1804F08D101210846FFF7AEFF002124
:100B50000120FFF7AAFFB8E0F348844208D1012141
:100B60000220FFF7A2FF00210220FFF79EFFACE06A
:100B7000EE48844208D101210420FFF796FF0021AE
:100B80000420FFF792FFA0E0E948844208D1012148
:100B90000820FFF78AFF00210820FFF786FF94E076
:100BA000E448844208D101211020FFF77EFF002194
:100BB0001020FFF77AFF88E0DF48844208D1012146
:100BC0002020FFF772FF00212020FFF76EFF7CE05E
:100BD000DA48844208D101214014FFF759FF00216F
:100BE0006014FFF755FF70E0D548844209D1012118
:100BF000C804FFF74DFF00214FF40020FFF748FF26
:100C000063E0D048844209D101210805FFF740FF85
:100C100000214FF48010FFF73BFF56E0CA488442A2
:100C200009D101214805FFF733FF00214FF40010DF
:100C3000FFF72EFF49E0C548844208D1012140203A
:100C4000FFF733FF00214020FFF72FFF3DE0C048B2
:100C5000844208D101218020FFF727FF0021802056
:100C6000FFF723FF31E0BB48844208D10121801502
:100C7000FFF71BFF0021A015FFF717FF25E0B6487F
:100C8000844209D101210804FFF702FF00214FF43B
:100C90008030FFF7FDFE18E0B048844209D1012101
:100CA0004804FFF7F5FE00214FF40030FFF7F0FE97
:100CB0000BE0AB48844208D101218804FFF7E8FE2D
:100CC00000214FF48020FFF7E3FE10BD00220288D0
:100CD000944B98420ED0994B98420BD0B0F1804F74
:100CE00008D0914B984205D0904B984202D0904B3F
:100CF000984204D14FF68F731A404B881A438D4B9C
:100D0000984207D08C4B984204D04FF6FF431A40CC
:100D1000CB881A4302808B8883850B880385814B9F
:100D200098420BD0854B984208D08B4B984205D007
:100D30008A4B984202D08A4B984201D10B7A0386A3
:100D400001238382704770B5002400220023058CA4
:100D50004FF6FE7635400584028C8388048B4FF66F
:100D60008F752C40B51E2C400D882C43751E2A40D3
:100D70000D892A434D882A436A4DA8420BD06F4DF6
:100D8000A84208D0744DA84205D0744DA84202D0A4
:100D9000734DA84213D14FF6F7752A404D892A4367
:100DA0004FF6FB752A408D882A434FF6FF652B408E
:100DB0004FF6FF552B408D892B43CD892B438380E4
:100DC0000483CD888586028470BD70B5002400221E
:100DD0000023058C4FF6EF7635400584028C83881E
:100DE000048B48F6FF752C404FF6FF452C400D88CC
:100DF0004FF6FF7606EA05252C434FF6DF752A40AD
:100E00000D8906EA05152A434D8806EA05152A4389
:100E1000444DA84202D0494DA8421DD14FF67F75DE
:100E20002A404D894FF6FF7606EA05152A434FF60C
:100E3000BF752A408D8806EA05152A434FF6FF350F
:100E40002B404FF2FF752B408D8906EA85052B4319
:100E5000CD8906EA85052B4383800483CD880587E9
:100E6000028470BD70B5002400220023058C4FF66B
:100E7000FF6635400584028C8388848B4FF68F751E
:100E80002C404FF6FC752C400D882C434FF6FF5537
:100E90002A400D894FF6FF7606EA05252A434D883C
:100EA00006EA05252A431F4DA84202D0234DA84239
:100EB0001DD14FF2FF752A404D894FF6FF7606EAA5
:100EC00005252A434FF6FF352A408D8806EA052579
:100ED0002A434EF6FF752B404DF6FF752B408D894A
:100EE00006EA05152B43CD8906EA05152B438380B9
:100EF0008483CD888587028470BD70B5002200236D
:100F00000024058C4EF6FF7635400584038C8488DA
:100F1000828B48F6FF752A404FF6FF452A400D8820
:100F200020E00000002C01400004004000080040C8
:100F3000000C00400010004000140040003401404C
:100F4000004C014000500140005401400018004096
:100F5000001C0040002000400040014000440140CF
:100F6000004801404FF6FF7606EA05252A434DF674
:100F7000FF752B400D8906EA05352B434D8806EA9F
:100F800005352B43FA4DA84202D0FA4DA84208D1AC
:100F90004BF6FF752C408D894FF6FF7606EA8515D6
:100FA0002C4384808283CD88A0F84050038470BD98
:100FB000828B4FF2FF331A408283828B4FF6FF738E
:100FC00003EA01231A4382837047F0B50C461546A5
:100FD000002200210026078C4EF6FF7C07EA0C0752
:100FE0000784828B018C4FF6FF7707EA043640F6C0
:100FF000FF473A404FF6FF7707EA05273A434FF697
:10100000FF7707EA03373A43D94FB8420ED0D94F9A
:10101000B8420BD0B0F1804F08D0D74FB84205D0BE
:10102000D64FB84202D0D64FB84206D14DF6FF7720
:10103000394046F48057394305E047F6FF573940B9
:1010400044F48057394382830184F0BD828B4FF68C
:10105000F3731A408283828B0A4382837047F0B510
:101060000C461546002200210026078C4FF6FF6C27
:1010700007EA0C070784828B018C4FF6FF7707EA9B
:1010800004264FF60C773A404FF6FF7707EA03172E
:101090002F433A43B64FB8420ED0B64FB8420BD0AA
:1010A000B0F1804F08D0B44FB84205D0B34FB8422A
:1010B00002D0B34FB84206D14FF6FF57394046F43D
:1010C0008077394305E04FF2FF57394044F4807789
:1010D000394382830184F0BD028B4FF2FF331A4003
:1010E0000283028B4FF6FF7303EA01231A43028344
:1010F0007047F0B50C461546002200210026078CEB
:101100004FF6EF7C07EA0C070784028B018C4FF641
:10111000FF7707EA041640F6FF473A404FF6FF779D
:1011200007EA03373A434FF6FF7707EA05273A43C2
:101130008F4FB8420ED08F4FB8420BD0B0F1804FD6
:1011400008D08D4FB84205D08C4FB84202D08C4F9A
:10115000B84206D14FF6DF77394046F010073943E1
:1011600005E04FF65F77394044F0100739430283BA
:101170000184F0BD028B4FF6F3731A400283028B99
:101180000A4302837047F0B50C4615460022002141
:10119000068C4FF6FE773E400684028B018C4FF69C
:1011A0000C7632407E1C06EA03162E433243704E04
:1011B000B0420ED06F4EB0420BD0B0F1804F08D08D
:1011C0006D4EB04205D06D4EB04202D06C4EB04272
:1011D00006D14FF6FD76314044F00106314305E07B
:1011E0004FF6F576314044F0010631430283018425
:1011F000F0BD70B505460C465D4885420ED05D4891
:1012000085420BD0B5F1804F08D05B48854205D0B0
:101210005A48854202D05A48854200D100E000BFBA
:10122000208850B92389A28861882846FFF7ABFF40
:10123000E1882846FFF79EFF25E0208804280AD190
:101240002389A28861882846FFF753FFE188284652
:10125000FFF742FF17E0208808280AD12389A288D7
:1012600061882846FFF7FBFEE1882846FFF7EEFE7F
:1012700009E02389A28861882846FFF7A6FEE18855
:101280002846FFF795FE70BD2DE9F04105460C4656
:1012900000260127608808B9022600E00026A08801
:1012A000012801D1022700E001272088A0B9238965
:1012B000A28861882846FFF766FFE1882846FFF785
:1012C00059FF23893A4631462846FFF712FFE18845
:1012D0002846FFF701FF13E02389A288618828468A
:1012E000FFF707FFE1882846FFF7F6FE23893A4615
:1012F00031462846FFF747FFE1882846FFF73AFFC7
:10130000BDE8F0810A884B881A438B881A43CB8842
:101310001A430B891A434B891A438B891A43A0F845
:10132000442070474FF6FF71818000210180C18009
:101330004180017270470021018041808180C1801D
:10134000018141818181C1817047002101804180FB
:10135000012181800021C18001817047002101802D
:1013600041808180C180018141818181704700007D
:10137000002C0140003401400004004000080040FF
:10138000000C004021B1028842F00102028004E01A
:1013900002884FF6FE731A400280704731B1B0F8F0
:1013A000442042F40042A0F8442005E0B0F8442074
:1013B000C2F30E02A0F8442070471AB183890B4390
:1013C000838102E083898B438381704781827047E8
:1013D00041EA0203A0F8483070471AB183890B43F1
:1013E000838102E083898B438381704701894FF6B3
:1013F000F8721140018170470A46002101894FF6B9
:101400008F73194011430181704730B504460D4672
:1014100029462046FFF7F0FF208940F00700208191
:1014200030BD2DE9F04104460D4616461F46602D9D
:1014300006D13B46012231462046FFF75AFE05E021
:101440003B46012231462046FFF79DFE29462046B5
:10145000FFF7D2FF208940F007002081BDE8F0812E
:1014600030B50C4600210189C9B24FF6FF7505EA77
:101470000325154325432943018130BD2DE9F04162
:1014800005460E4617469846002443463A463146DE
:101490002846FFF7E5FF2C894FF6F870044044F02A
:1014A00007044FF68F70044044F070042C81BDE8AF
:1014B000F081F0B504460D4616461F463B463246BF
:1014C00029462046FFF7CCFF208940F48040208148
:1014D000F0BD0185828270470A46002101884FF6DF
:1014E0008F731940114301807047F0B50C461546C3
:1014F0001E460021002200230189028B038C4FF637
:10150000F877394021434FF6FC473A4040F2011743
:101510003A434FF6DD773B404FF6FF7707EA061771
:101520002F433B43018102830384F0BD0A4600211F
:10153000018B4FF68F7319401143018370470A46A0
:101540000021018B48F6FF7319404FF6FF7303EA41
:1015500002231943018370470A460021818B4FF60D
:101560008F7319401143818370470A460021818B94
:1015700048F6FF7319404FF6FF7303EA022319433D
:101580008183704721B1028842F08002028004E02A
:1015900002884FF67F731A400280704721B182881B
:1015A00042F00402828004E082884FF6FB731A4006
:1015B0008280704721B1828842F00802828004E074
:1015C00082884FF6F7731A408280704721B1828873
:1015D00042F00102828004E082884FF6FE731A40D6
:1015E000828070470A460021018B4FF6F77319403D
:1015F0001143018370470A460021018B4FF2FF73AC
:1016000019404FF6FF7303EA022319430183704721
:101610000A460021818B4FF6F773194011438183ED
:1016200070470A460021818B4FF2FF7319404FF635
:10163000FF7303EA02231943818370470A4600219E
:10164000018B4FF6FB7319401143018370470A4623
:101650000021018B4FF6FF3319404FF6FF7303EA69
:1016600002231943018370470A460021818B4FF6FC
:10167000FB7319401143818370470A460021818B17
:101680004FF6FF3319404FF6FF7303EA0223194365
:10169000818370470A460021018B4FF67F73194002
:1016A0001143018370470A460021018BC1F30E01EB
:1016B0004FF6FF7303EA02231943018370470A467A
:1016C0000021818B4FF67F7319401143818370474E
:1016D0000A460021818BC1F30E014FF6FF7303EA26
:1016E00002231943818370470A460021018C4FF67B
:1016F000FD7319401143018470470A460021018C93
:101700004FF6F77319401143018470470A460021D0
:10171000018C4FF6DF7319404FF6FF7303EA021393
:101720001943018470470A460021018C4FF67F73EC
:1017300019404FF6FF7303EA0213194301847047FF
:101740000A460021018C4FF6FF5319404FF6FF73F4
:1017500003EA02231943018470470A460021018CE1
:101760004FF2FF7319404FF6FF7303EA0223194348
:10177000018470470A460021018C4DF6FF73194021
:101780004FF6FF7303EA023319430184704730B503
:10179000002301248C40A3B2048C9C430484048C59
:1017A00002FA01F5ADB22C43048430BD30B50023FC
:1017B00004248C40A3B2048C9C430484048C02FA5D
:1017C00001F5ADB22C43048430BD70B50346002052
:1017D00000241846183001258D40ACB21D8CA5435D
:1017E0001D8409B1082909D100EB6100056825F0C5
:1017F000700505600568154305600EE00D1FC5F313
:101800004E052844056825F4E045056005684FF657
:10181000FF7606EA02263543056070BD21B10288D5
:1018200042F00202028004E002884FF6FD731A4083
:101830000280704721B1028842F00402028004E075
:1018400002884FF6FB731A400280704721B18288EC
:1018500042F08002828004E082884FF67F731A4053
:101860008280704702884FF6F7731A400280028820
:101870000A430280704782884FF68F731A40828035
:1018800082880A438280704702894FF6F8731A40B3
:10189000028102890A430281704702894FF67F73F1
:1018A0001A40028102890A4302817047818470478D
:1018B00081857047818670470187704781877047AF
:1018C000A0F84010704702884FF6FF431A4002808C
:1018D00002880A43028070470146888E704701469D
:1018E000088F70470146888F70470146B1F8400065
:1018F00070470146888C70470146088D7047024644
:101900000020138A0B400BB1012000E0002070473B
:10191000CA430282704730B50246002000230024EB
:10192000158A05EA0103958905EA010413B10CB192
:10193000012000E0002030BDCA4302827047000051
:1019400010B50446FB48844209D101218803FFF702
:101950009FF800214FF48040FFF79AF832E0F648F4
:10196000844209D101214804FFF79FF800214FF478
:101970000030FFF79AF825E0F048844209D10121B0
:101980008804FFF792F800214FF48020FFF78DF8CC
:1019900018E0EB48844209D10121C804FFF785F81B
:1019A00000214FF40020FFF780F80BE0E548844267
:1019B00008D101210805FFF778F800214FF48010C5
:1019C000FFF773F810BD2DE9F04786B005460E46C7
:1019D0000024A24600BFA1460027B08900B100BF85
:1019E0002F462C8A4CF6FF700440F08804432C826A
:1019F000AC894EF6F3100440B088318908437189F0
:101A000008430443AC81AC8A4FF6FF400440B089E0
:101A10000443AC8201A8FEF7B4FFC648874202D156
:101A2000DDF810A001E0DDF80CA0A88900F400406A
:101A300040B10AEBCA0000EB0A1031684900B0FB64
:101A4000F1F807E00AEBCA0000EB0A1031688900E0
:101A5000B0FBF1F86420B8FBF0F004012009642128
:101A600001FB1089A88900F4004040B1322000EB4E
:101A7000C900B0FBF1F000F00700044308E0322099
:101A800000EB09106421B0FBF1F000F00F000443FB
:101A90002C8106B0BDE8F0874FF41651016000219B
:101AA0008180C18001810C214181002181817047A9
:101AB00010B502460020108A4FF2FF0318400B8831
:101AC0004C8823438C882343CC88234318431082BB
:101AD00010BD0021018041808180C180704721B10B
:101AE000828942F40052828104E082894DF6FF73BC
:101AF0001A4082817047F0B5034600240026002575
:101B0000002040F66A17B94200D100BF1846C1F361
:101B1000421401F01F06012707FA06F5012C01D136
:101B20000C3004E0022C01D1103000E014301AB166
:101B300007682F43076002E00768AF430760F0BD06
:101B40001AB1838A0B43838202E0838A8B438382A8
:101B50007047028A4FF6F0731A400282028A0A43E3
:101B60000282704782894FF2FF731A408281828914
:101B70000A438281704721B1828942F00202828148
:101B800004E082894FF6FD731A4082817047028A11
:101B90004FF6DF731A400282028A0A4302827047BC
:101BA00021B1028A42F48042028204E0028A4BF6AA
:101BB000FF731A4002827047C1F3080282807047A7
:101BC00001468888C0F308007047818941F001010F
:101BD00081817047028BD2B20283028B42EA0122DA
:101BE00002837047028B02F47F420283028B0A4316
:101BF0000283704721B1828A42F02002828204E08F
:101C0000828A4FF6DF731A408282704721B1828A3E
:101C100042F01002828204E0828A4FF6EF731A408B
:101C20008282704721B1828A42F00802828204E0F7
:101C3000828A4FF6F7731A408282704721B18289F7
:101C400042F40042828103E08289C2F30E02828163
:101C5000704721B1828A42F40062828204E0828A63
:101C60004FF2FF731A4082827047828A4FF6FB73ED
:101C70001A408282828A0A438282704721B1828A14
:101C800042F00202828204E0828A4FF6FD731A401B
:101C90008282704702460020B1F5007F00D100BF6C
:101CA00013880B400BB1012000E00020704701F4C5
:101CB0000072B2F5007F00D100BFCA4302807047B6
:101CC00070B50246002400230025002040F66A1665
:101CD000B14200D100BFC1F3421501F01F0301263C
:101CE00006FA03F3012D02D19689334006E0022D56
:101CF00002D1168A334001E0968A33400C12012645
:101D000006FA04F41688344013B10CB1012000E047
:101D1000002070BD10B50022002340F66A14A142D5
:101D200000D100BF0A1201249440A3B2DC43048016
:101D300010BD000000380140004400400048004051
:101D4000004C00400050004010B500F0E4F90020C5
:101D500010BD0000704700BFFEE700BFFEE700BFF8
:101D6000FEE700BFFEE770477047704710B502F00E
:101D70007CFD10BD08B540F225518A48FFF7A0FF51
:101D8000002841D08748FFF71BFFC0B200909DF8A4
:101D900000108548FFF710FF8448B0F80004C0F336
:101DA0000E0040F2FF31884210DA9DF800307F4982
:101DB000B1F80014C1F30E00411C7C4AB2F80024B3
:101DC00061F30E027949A1F800240B549DF800003C
:101DD000232804D1002076490860764908707448A9
:101DE000006818B19DF8000001F0B9FE9DF80000F0
:101DF0003A2809D101206E49086000206D49087019
:101E000018216D4802F027FE40F224416548FFF793
:101E100057FF012818D16548B0F8000420F40040AD
:101E200000F500406149A1F800045E48FFF7C8FED4
:101E3000C0B2009061A15D4802F018FE08B1012017
:101E400000E000205F49087040215648FFF72FFF4F
:101E500008BD08B540F225515B48FFF731FF10B3CC
:101E60005948FFF7ADFEC0B200909DF8000023284E
:101E700004D100205549086055490870534800684E
:101E800018B19DF8000001F05CFD9DF800004028AD
:101E900009D101204D49086000204D4908702021DA
:101EA0004C4802F0D8FD40214748FFF700FF08BD2D
:101EB00008B540F225513C48FFF702FF48B13A48C7
:101EC000FFF77EFEC0B200909DF800103548FFF786
:101ED00073FE40213448FFF7EAFE08BD10B501212A
:101EE0008807FFF718FD00285AD03B48006870B3F8
:101EF00001284FD139480078401C384908700846FD
:101F00000078282822DB364800883649096888424C
:101F10000CD2354832490988405C4FF080418886B0
:101F20002F480088401C2E4908800CE02C4800886F
:101F30002C490968884206D32B482A490968405C25
:101F40004FF08041888600202449087023E0FFE795
:101F500022480078401C214908700846007828284B
:101F600017DB21481E490988405C4FF08041888674
:101F70001B480088002805DD19480088401E1849C4
:101F8000088003E000204FF080418886002013493C
:101F9000087000E000BF00BF01218807FFF7CCFCFC
:101FA00010BD000000380140004800409C010020A6
:101FB000280000204700002083010020434C4F539D
:101FC000454400005C000020004400402C0000203C
:101FD0003E00002063010020300000203A00002075
:101FE00038000020340000206800002008B50121DE
:101FF0001820FEF733FD10208DF803000220ADF805
:10200000000003208DF8020069465348FEF76AFA83
:1020100002215148FEF713FB10208DF80300202009
:10202000ADF8000003208DF8020069464B48FEF72A
:1020300059FA20214948FEF702FB08BD08B50121E5
:102040001020FEF70BFD10208DF803008020ADF866
:10205000000003208DF8020069464048FEF742FA6E
:1020600080213E48FEF7EDFA08BD08B50121182091
:10207000FEF7F4FC10208DF803000220ADF80000FC
:1020800003208DF8020069463448FEF72BFA02213E
:102090003248FEF7D4FA10208DF803000120ADF885
:1020A000000003208DF8020069462C48FEF71AFA5A
:1020B00001212A48FEF7C3FA10208DF803000420FE
:1020C000ADF8000003208DF8020069462348FEF7B2
:1020D00009FA04212148FEF7B4FA10208DF8030014
:1020E0004020ADF8000003208DF8020069461B482F
:1020F000FEF7F8F940211948FEF7A3FA08BD10B51C
:10210000FFF7B3FFFFF79AFFFFF770FF02F094FCB1
:1021100002F0E4FB10BD10B502F060FB01F007FD1A
:1021200001F0C1FC00F068F9FFF7E9FF01F09CFA4B
:102130000BA20021084600F0C3FC022001F008FFBA
:1021400000F027FB0BA20221182000F0B9FC0C487C
:1021500002F079FB10BD0000000C014000100140AE
:10216000496E697469616C697A6174696F6E202166
:1021700000000000496E697420646F6E65210000E4
:1021800040420F0010B5044600BF2021F748FFF77A
:1021900081FD0028F9D0F548FFF712FD10BD70B59C
:1021A00004460D46E1B2F148FFF706FD00BF4021AD
:1021B000EE48FFF76FFD0028F9D0204670BD00BF44
:1021C000EB48008800F020000028F9D0E848001D06
:1021D0000088C0F30800704708B54FF4A060FEF710
:1021E000B3F827208DF8000001208DF801000220AF
:1021F0008DF8020001208DF803006846FEF7A9F86B
:1022000008BD08B54FF4A060FEF79EF826208DF8B3
:10221000000001208DF801008DF802008DF8030008
:102220006846FEF796F808BD08B54FF4A060FEF7C3
:102230008BF825208DF8000001208DF80100022088
:102240008DF8020001208DF803006846FEF781F842
:1022500008BD00B585B001218804FEF70CFC012102
:102260000820FEF7FBFB4FF48060ADF8100018204B
:102270008DF8130003208DF8120004A9BD48FEF765
:1022800031F94FF40060ADF8100004208DF8130010
:1022900003208DF8120004A9B648FEF723F94FF485
:1022A000E13000900020ADF80400ADF80600ADF874
:1022B0000800ADF80C000C20ADF80A006946AB48E8
:1022C000FFF781FB012240F22551A848FFF713FCDC
:1022D0004021A648FFF7EBFC0121A448FFF7FFFBD4
:1022E00005B000BD00B585B001214804FEF7C3FB71
:1022F00001210420FEF7B2FB0420ADF810001820E5
:102300008DF8130003208DF8120004A99A48FEF7F7
:10231000E9F80820ADF8100004208DF81300032020
:102320008DF8120004A99448FEF7DCF84FF4E13070
:1023300000900020ADF80400ADF80600ADF80800EC
:10234000ADF80C000C20ADF80A0069468B48FFF789
:102350003AFB012240F225518848FFF7CCFB40218F
:102360008648FFF7A4FC01218448FFF7B8FB05B0BD
:1023700000BD00B585B0012144F20400FEF76EFBFC
:102380004FF40070ADF8100018208DF813000320F2
:102390008DF8120004A97848FEF7A4F84FF4806085
:1023A000ADF8100004208DF8130004A97248FEF760
:1023B00099F84FF4E13000900020ADF80400ADF83A
:1023C0000600ADF80800ADF80C000C20ADF80A00CE
:1023D00069466748FFF7F7FA012240F22551644841
:1023E000FFF789FB40216248FFF761FC012160484B
:1023F000FFF775FB05B000BD10B5FFF7BAFFFFF79B
:1024000071FFFFF726FFFFF70FFFFFF7FAFEFFF759
:10241000E3FE10BD2DE9F04103460D4617464FF08F
:10242000000C29460A2F28D13BB9302001F8010BB6
:10243000002008702846BDE8F081002B03DA2D202B
:1024400001F8010B5B4242F2107410E093FBF4F2CE
:1024500012B9BCF1000F07D002F1300001F8010BF6
:1024600002FB14334FF0010C0A2094FBF0F4002C13
:10247000ECDC002008702846DDE7102F4FD143B96F
:10248000302001F8010B01F8010B002008702846EC
:10249000D1E70A2B0ADA302001F8010B03F13000F2
:1024A00001F8010B002008702846C4E700241DE055
:1024B000641C18464FEAE37803EB18784FEA2818B3
:1024C000A3EB08124FEAE37803EB18784FEA2813DE
:1024D0000A2A03DA02F1300001F8010B0A2A05DBAF
:1024E0000F2A03DC02F1370001F8010B002BDFD1CA
:1024F000204604EBD0784FEA6808A8F1010608E00E
:10250000AA5DA01B401E285CA855A01B401E2A5493
:10251000761E002EF4DA0020087028468BE7002093
:102520000870284687E70FB470B586B005460CA83A
:1025300001909DE00B9800785C2826D10B98401CF8
:102540000B9000786E2809D0722819D10D212846E9
:10255000FFF732FB0B98401C0B9015E00A21284630
:10256000FFF72AFB0B98401C0B900DE00048004041
:1025700000380140000C01400008014000440040C8
:102580000B98401C0B9000BF6BE00B98007825283F
:1025900060D10B98401C0B90007864281BD07328E6
:1025A00002D0782851D133E0019810C801900BE097
:1025B00021782846FFF700FB00BF80212846FFF75F
:1025C00069FB0028F9D0641C20780028F0D10B9812
:1025D000401C0B903DE0019840C801900A2202A9DE
:1025E0003046FFF717FF02AC0BE021782846FFF7D3
:1025F000E3FA00BF80212846FFF74CFB0028F9D002
:10260000641C20780028F0D10B98401C0B9020E02F
:10261000019840C80190102202A93046FFF7FAFE47
:1026200002AC0BE021782846FFF7C6FA00BF8021F4
:102630002846FFF72FFB0028F9D0641C20780028DB
:10264000F0D10B98401C0B9003E00B98401C0B90B2
:1026500000BF06E00B9810F8011B0B902846FFF70F
:10266000ABFA00BF80212846FFF714FB0028F9D001
:102670000B98007800287FF45DAF06B070BC5DF861
:1026800014FB000070B5044608256901F848FDF701
:10269000D6FF00BF00BF2021F548FDF7D2FF00BFE5
:1026A00000BF16E004F0800020B14021F048FDF7A3
:1026B000C6FF03E04021EE48FDF7C3FF2021EC48B0
:1026C000FDF7BDFF00BF2021E948FDF7BAFF600616
:1026D000040E2800A5F10101CDB2E3D170BD70B5A3
:1026E000044608256901E248FDF7ABFF2021E048D8
:1026F000FDF7A7FF16E004F0800020B14021DC4880
:10270000FDF79DFF03E04021D948FDF79AFF202106
:10271000D748FDF794FF00BF2021D548FDF791FF72
:102720006006040E2800A5F10101CDB2E3D170BD11
:1027300070B504460D4605F1B001C8B2FFF7CFFFF2
:10274000102141EA1410FFF7CAFF04F00F0141F015
:102750000100FFF7C4FF70BD70B50646002415E008
:1027600004F1B001C8B2FFF7BAFF0120FFF7B7FFCD
:102770001020FFF7B4FF002504E03046FFF782FF8A
:10278000681CC5B2802DF8DB601CC4B2082CE7DBE6
:1027900070BD70B5002415E004F1B001C8B2FFF7B8
:1027A0009EFF0120FFF79BFF1020FFF798FF0025F9
:1027B00004E00020FFF766FF681CC5B2802DF8DB3F
:1027C000601CC4B2082CE7DB70BD70B5044604F190
:1027D000B001C8B2FFF783FF0120FFF780FF102090
:1027E000FFF77DFF002504E00020FFF74BFF681C8A
:1027F000C5B2802DF8DB70BD07E040F2375100BF55
:102800000A00A1F10101FBD1401E0028F5D170475B
:1028100010B504462046FFF762FF10BD70B50446B0
:102820002546E11704EB11710911A4EB0111C8B29F
:10283000FFF755FF2546E11704EB1171091110311F
:10284000C8B2FFF74CFF70BD10B504462020FFF75B
:1028500046FF2046FFF743FF10BD70B505460C4606
:102860002120FFF73CFF2846FFF739FF2046FFF7FE
:1028700036FF70BD70B505460C462220FFF72FFFCE
:102880002846FFF72CFF2046FFF729FF70BD10B543
:10289000044644F04000FFF722FF10BD10B5044687
:1028A0008120FFF71CFF2046FFF719FF10BD10B570
:1028B00004468D20FFF713FF44F01000FFF70FFFD1
:1028C00010BD10B5044644F0A000FFF708FF10BD8E
:1028D00010B5044644F0A400FFF701FF10BD10B589
:1028E000044644F0A600FFF7FAFE10BD10B50446FA
:1028F000A820FFF7F4FE2046FFF7F1FE10BD10B54B
:10290000044644F0AE00FFF7EAFE10BD10B50446E1
:1029100044F0B000FFF7E3FE10BD10B5044644F0EC
:10292000C000FFF7DCFE10BD10B50446D320FFF752
:10293000D6FE2046FFF7D3FE10BD10B50446D520C5
:10294000FFF7CDFE2046FFF7CAFE10BD10B50446C6
:10295000D920FFF7C4FE2046FFF7C1FE10BD10B519
:102960000446DA20FFF7BBFE44F00200FFF7B7FE93
:1029700010BD10B50446DB20FFF7B1FE2046FFF77F
:10298000AEFE10BD10B5E320FFF7A9FE10BD70B577
:1029900005460C4621462846FFF7CAFE2046E117A9
:1029A00004EB5171C910A4EBC10201219140CEB2D8
:1029B000B02101EBE401C8B2FFF791FE102141EA1A
:1029C0001510FFF78CFE05F00F00FFF788FE30466C
:1029D000FFF758FE70BD2DE9F04707460C469046BC
:1029E0001D46DDF820A0E1103846FFF7A1FE3E4667
:1029F00013E0A146E11704EB5171C910A4EBC10229
:102A000001219140C8B2FFF73DFEBAF1010F02D19A
:102A10003220FFF7F1FE701CC6B24645E9DDE91031
:102A20003846FFF785FE3E4613E0A946E91705EB59
:102A30005171C910A5EBC10201219140C8B2FFF745
:102A400021FEBAF1010F02D10520FFF7D5FE701C5F
:102A5000C6B24645E9DDBDE8F0872DE9F0470446FA
:102A6000884615464FF000090026002723E00000A5
:102A7000000C0140E85D203800F0FF097E2C04DDE9
:102A8000002408F1010000F0FF0841462046FFF74E
:102A90004FFE002609E009EB4901FA4A02EB410129
:102AA000885DFFF7EFFD701CC6B2062EF3DBA01D9C
:102AB000C4B2781CC7B2E85D0028DBD1BDE8F0875E
:102AC0002DE9F04706460F46904600250024A14612
:102AD00031E018F809002038C5B2782E02DD002652
:102AE000781CC7B239463046FFF722FE002407E0C3
:102AF00004EB0511E44A505CFFF7C4FD601CC4B24E
:102B0000082CF5DB781CC1B23046FFF711FE00241B
:102B100008E004EB05110831DB4A505CFFF7B2FD19
:102B2000601CC4B2082CF4DB06F10800C6B209F13F
:102B3000010000F0FF0918F809000028C9D1BDE81C
:102B4000F0872DE9F04706460D4691460024002700
:102B50004FF001084AE000244FF00108762E02DD14
:102B60000026681CC5B229463046FFF7E1FDB8F1E2
:102B7000010F19D029463046FFF7DAFD002403E0A3
:102B800008F10108601CC4B20E2CF9DB681CC1B24C
:102B90003046FFF7CDFD002403E008F10108601C7A
:102BA000C4B20E2CF9DB1CE0781CC7B229463046B3
:102BB000FFF7BEFD002404E00020FFF763FD601C6A
:102BC000C4B2102CF8DB681CC1B23046FFF7B0FD70
:102BD000002404E00020FFF755FD601CC4B2102C57
:102BE000F8DB06F10E00C6B2B81CC7B219F8070030
:102BF0000028B0D1BDE8F087F8B506460F46154667
:102C0000002427E0285D7F2814DD285D8DF8000072
:102C1000601C285C8DF8010000208DF802006A46D7
:102C200039463046FFF78DFF06F10E00C6B2A01CF4
:102C3000C4B20FE0285D8DF8000000208DF801007F
:102C40006A4639463046FFF73BFF06F10800C6B238
:102C5000601CC4B2285D0028D4D1F8BD2DE9F05F16
:102C600006460F4690461C46DDF828A04FF0000BA4
:102C7000E11704EB5171C910A4EBC10131B9204631
:102C8000E11704EB5171C1F3C70506E02046E117D7
:102C900004EB5171C910491CCDB23D4614E02946E0
:102CA0003046FFF745FDB1460AE059460BF1010BEE
:102CB0001AF80100FFF7E6FC09F1010000F0FF0936
:102CC000C145F2DB681CC5B2A542E8DDBDE8F09F56
:102CD0002DE9F04104460D4617464FF00008002646
:102CE000A7F120004FFA80F87A2C02DD0024681C3E
:102CF00045B2E9B2E0B2FFF71BFD002609E008EBA0
:102D00004801604A02EB4101885DFFF7BBFC701C83
:102D100046B2062EF3DBBDE8F0812DE9F04705460B
:102D20000E461446002C06DA2D2271B268B2FFF767
:102D3000CFFF604244B2642094FBF0F000F0FF0942
:102D4000642094FBF0F100FB11400A2190FBF1F0AC
:102D500000F0FF080A2094FBF0F100FB1140C7B21D
:102D600009F1300042B271B2A81D40B2FFF7B0FFC6
:102D700008F1300042B271B205F10C0040B2FFF729
:102D8000A7FF07F1300042B271B205F1120040B264
:102D9000FFF79EFFBDE8F0872DE9F05F05460E4680
:102DA0001446002C06DA2D2271B268B2FFF790FFAC
:102DB000604204B242F2107094FBF0F000F0FF0A9F
:102DC00042F2107094FBF0F100FB11404FF47A7165
:102DD00090FBF1F000F0FF0B084694FBF0F100FBD4
:102DE0001140642190FBF1F0C7B2642094FBF0F134
:102DF00000FB11400A2190FBF1F000F0FF080A20CF
:102E000094FBF0F100FB114000F0FF09BAF1000F54
:102E100007D00AF1300042B271B2A81D40B2FFF7EC
:102E200057FFBBF1000F08D00BF1300042B271B276
:102E300005F10C0040B2FFF74BFF47B107F130003E
:102E400042B271B205F1120040B2FFF741FFB8F192
:102E5000000F08D008F1300042B271B205F118003D
:102E600040B2FFF735FFB9F1000F08D009F130008B
:102E700042B271B205F11E0040B2FFF729FFBDE872
:102E8000F09F0000524F00087A5100082DE9F05FD2
:102E900004460D46164699462E2269B260B2FFF7E7
:102EA00017FF4FF47A7096FBF0F000F0FF0B4FF431
:102EB0007A7096FBF0F100FB1160642190FBF1F059
:102EC00000F0FF0A642096FBF0F100FB11600A217C
:102ED00090FBF1F000F0FF080A2096FBF0F100FBF8
:102EE0001160C7B2B9F1010F09D0B9F1020F0FD0CB
:102EF000B9F1030F1ED0B9F1040F5AD135E007F133
:102F0000300042B269B2A01D40B2FFF7E1FE50E0CE
:102F100008F1300042B269B2A01D40B2FFF7D8FEFE
:102F200007F1300042B269B204F10C0040B2FFF781
:102F3000CFFE3EE00AF1300042B269B2A01D40B2BD
:102F4000FFF7C6FE08F1300042B269B204F10C008E
:102F500040B2FFF7BDFE07F1300042B269B204F1A2
:102F6000120040B2FFF7B4FE23E00BF1300042B292
:102F700069B2A01D40B2FFF7ABFE0AF1300042B2C9
:102F800069B204F10C0040B2FFF7A2FE08F1300074
:102F900042B269B204F1120040B2FFF799FE07F1A4
:102FA000300042B269B204F1180040B2FFF790FE5F
:102FB00000BF00BFBDE8F09F2DE9F05F04460D465D
:102FC000164699464FF47A7096FBF0F000F0FF0B2E
:102FD0004FF47A7096FBF0F100FB1160642190FBD6
:102FE000F1F000F0FF0A642096FBF0F100FB1160A5
:102FF0000A2190FBF1F000F0FF080A2096FBF0F1A7
:1030000000FB1160C7B2B9F1010F09D0B9F1020F8D
:103010000FD0B9F1030F1ED0B9F1040F5AD135E02A
:1030200007F1300042B269B2A01D40B2FFF750FE76
:1030300050E008F1300042B269B2A01D40B2FFF783
:1030400047FE07F1300042B269B204F10C0040B211
:10305000FFF73EFE3EE00AF1300042B269B2A01D29
:1030600040B2FFF735FE08F1300042B269B204F118
:103070000C0040B2FFF72CFE07F1300042B269B2FB
:1030800004F1120040B2FFF723FE23E00BF1300001
:1030900042B269B2A01D40B2FFF71AFE0AF1300039
:1030A00042B269B204F10C0040B2FFF711FE08F120
:1030B000300042B269B204F1120040B2FFF708FEDC
:1030C00007F1300042B269B204F1180040B2FFF7D4
:1030D000FFFD00BF00BFBDE8F09F2DE9FF4F87B0A7
:1030E00004460D464FF0060B4FF00009099801F019
:1030F00062FD0590099801F05EFD009001F052FD1F
:103100000190099901F019FDFE49029001F018FDA6
:10311000039001F069FD0490099801F079FDFA4AE5
:10312000FA4BCDE9020101F087FD05D22D2269B2EB
:1031300060B2FFF7CDFD04E02B2269B260B2FFF769
:10314000C7FD0598002802DA0598404205900598C9
:103150001FFA80F942F2107099FBF0F0C0B20690AD
:1031600042F2107099FBF0F100FB11904FF47A716C
:1031700090FBF1F000F0FF0A084699FBF0F100FB2C
:103180001190642190FBF1F000F0FF08642099FB9E
:10319000F0F100FB11900A2190FBF1F0C6B20A2079
:1031A00099FBF0F100FB1190C7B2069860B3069846
:1031B000303042B269B2A01D40B2FFF789FD0AF17A
:1031C000300042B269B204F10C0040B2FFF780FD5A
:1031D00008F1300042B269B204F1120040B2FFF7C8
:1031E00077FD06F1300042B269B204F1180040B236
:1031F000FFF76EFD07F1300042B269B204F11E0024
:1032000040B2FFF765FD67E0BAF1000F25D04FF03F
:10321000050B0AF1300042B269B2A01D40B2FFF7BF
:1032200057FD08F1300042B269B204F10C0040B21F
:10323000FFF74EFD06F1300042B269B204F1120010
:1032400040B2FFF745FD07F1300042B269B204F128
:10325000180040B2FFF73CFD3EE0B8F1000F1CD073
:103260004FF0040B08F1300042B269B2A01D40B229
:10327000FFF72EFD06F1300042B269B204F10C00F6
:1032800040B2FFF725FD07F1300042B269B204F108
:10329000120040B2FFF71CFD1EE09EB14FF0030B81
:1032A00006F1300042B269B2A01D40B2FFF710FD36
:1032B00007F1300042B269B204F10C0040B2FFF7EE
:1032C00007FD09E04FF0020B07F1300042B269B28E
:1032D000A01D40B2FFF7FCFC00BF0A98052845D2AC
:1032E000DFE800F00304162738003FE04FF47A715E
:1032F0000498B0FBF1F080B20BEB4B0104EB410101
:103300000390C8B229460A9B039AFFF7BFFD2DE040
:1033100064210498B0FBF1F080B20BEB4B0104EB9D
:1033200041010390C8B229460A9B039AFFF7AEFDFC
:103330001CE00A210498B0FBF1F080B20BEB4B01CA
:1033400004EB41010390C8B229460A9B039AFFF798
:103350009DFD0BE004998AB20BEB4B0104EB41019C
:10336000C8B229460A9BFFF791FD00BF00BF0BB012
:10337000BDE8F08F2DE9F04104460D46164664483D
:10338000B6FBF0F0303047B23A4669B2A01D40B209
:10339000FFF79EFC5E48B6FBF0F100FB11605D4953
:1033A000B0FBF1F0303047B23A4669B204F10C009C
:1033B00040B2FFF78DFC5748B6FBF0F100FB1160FF
:1033C0005549B0FBF1F0303047B23A4669B204F1EA
:1033D000120040B2FFF77CFC4F48B6FBF0F100FB57
:1033E000116042F21071B0FBF1F0303047B23A4652
:1033F00069B204F1180040B2FFF76AFC42F21070A3
:10340000B6FBF0F100FB11604FF47A71B0FBF1F004
:10341000303047B23A4669B204F11E0040B2FFF7BD
:1034200057FC4FF47A70B6FBF0F100FB1160642199
:10343000B0FBF1F0303047B23A4669B204F12400F3
:1034400040B2FFF745FC6420B6FBF0F100FB1160D1
:103450000A21B0FBF1F0303047B23A4669B204F1CC
:103460002A0040B2FFF734FC0A20B6FBF0F100FB63
:103470001160303047B23A4669B204F1300040B2D0
:10348000FFF726FCBDE8F0812DE9F04104460D462A
:10349000164642F2107096FBF0F0303047B23A46D2
:1034A00069B2A01D40B2FFF713FC42F2107096FB08
:1034B000F0F100FB11604FF47A7190FBF1F03030C5
:1034C00047B23A4669B204F10C0040B2FFF700FC83
:1034D0004FF47A7096FBF0F100FB1160642190FBD1
:1034E000F1F0303047B23A4669B204F1120040B20E
:1034F000FFF7EEFB642096FBF0F100FB11600A2160
:103500000CE0000000401C4648AFBC9AF2D77A3E5F
:103510008096980040420F00A086010090FBF1F0D9
:10352000303047B23A4669B204F1180040B2FFF7B2
:10353000CFFB0A2096FBF0F100FB1160303047B260
:103540003A4669B204F11E0040B2FFF7C1FBBDE884
:10355000F0812DE9F04104460D461646642096FBA5
:10356000F0F0303047B23A4669B2A01D40B2FFF7E2
:10357000AFFB642096FBF0F100FB11600A2190FB89
:10358000F1F0303047B23A4669B204F10C0040B273
:10359000FFF79EFB0A2096FBF0F100FB1160303034
:1035A00047B23A4669B204F1120040B2FFF790FB0D
:1035B000BDE8F08108B501210820FDF74FFA4FF46E
:1035C000F070ADF8000003208DF8020010208DF897
:1035D000030069463D48FCF785FF20213B48FDF785
:1035E0002EF880213948FDF72CF83220FFF704F936
:1035F00080213648FDF723F80020FFF780F980206E
:10360000FFF79BF93F20FFF771F90020FFF78CF9D6
:103610000020FFF73CF90420FFF749F90220FFF7EB
:1036200013F90120FFF74DF90820FFF776F9102074
:10363000FFF795F9CF20FFF731F9F120FFF786F971
:103640004020FFF796F90020FFF742F90020FFF72E
:1036500046F90120FFF753F90020FFF77DF800211C
:103660000846FFF765F808BD10B5FFF7A3FF10BDCA
:1036700010B5FFF78EF816A204212020FFF7BCFA40
:103680004FF4FA50FFF7B8F8FFF783F84FF4FA5009
:10369000FFF7B2F810BD10B580210C48FCF7D1FF40
:1036A0004FF47A70FFF7A8F880210848FCF7C7FFAD
:1036B000FFF780FF09A200212220FFF7CEF90AA21E
:1036C00001210020FFF7C9F910BD0000000C0140E6
:1036D000496E697420446F6E65000000536D61721D
:1036E0007420486F6D650000446F6F723A000000EF
:1036F00010B5FA480078072817D1F94800785428FF
:1037000013D1F74A02210020FFF7A7F9F4484078C7
:10371000F4490877F24880784877F148407981F891
:103720002200EF48807981F82300EC4800780428D3
:1037300015D1EB4800784D2811D1E94A032100202A
:10374000FFF78BF9E6484078E64981F82900E4481C
:10375000807881F82A00E248C07881F82B00DF48A1
:10376000007807281DD1DE4800784C2819D1DC4AA2
:1037700004210020FFF771F9D9488078D94981F8F0
:103780003200D748C07881F83300D548007981F8F5
:103790003400D348407981F83500D148807981F8E8
:1037A0003600CE480078022879D1CD4800785128DB
:1037B00010D1CB4A05210020FFF74FF9C8484078C7
:1037C000442801D1C8490870C5484078532801D120
:1037D000C5490870C2480078532817D1C0484078BE
:1037E000552813D1BE4A05211220FFF736F9532080
:1037F000BC4981F83C00752081F83D006E2081F8BD
:103800003E0081F83F00792081F84000B4480078FC
:10381000522818D1B2484078412814D1B04A052125
:103820001220FFF71AF95220AE4981F83C006120BE
:1038300081F83D00692081F83E006E2081F83F004C
:10384000792081F84000A6480078532811D1A44877
:103850004078312804D1A24A06214220FFF7FDF822
:103860009F484078322804D19D4A07214220FFF723
:10387000F4F89B4800784E2811D1994840783128B7
:1038800004D1974A06214220FFF7E7F89448407890
:10389000322804D1924A07214220FFF7DEF88F48F0
:1038A000007803284CD18E480078522848D18C48A3
:1038B0004078312822D18A4880784F280FD18BA2B6
:1038C00006210020FFF7C9F84F20864981F84500FE
:1038D0004E2081F84600202081F8470030E086A283
:1038E00006210020FFF7B9F84F207E4981F84500F6
:1038F000462081F8460081F8470021E0784880782A
:103900004F280FD17FA207210020FFF7A6F84F20F4
:10391000744981F84C004E2081F84D00202081F838
:103920004E000DE07AA207210020FFF796F84F2005
:103930006C4981F84C00462081F84D0081F84E001A
:1039400010BD10B5044665490878411C634A1170E2
:1039500063490C541046007870490978884202D1B6
:1039600001206F490870FFF7C3FE10BD0146002219
:103970005A4B1A706A4B1A70002004E0584A125CC5
:103980000A54421CD0B2654A12789042F6DB704766
:103990006348007870476348007830B1002061497F
:1039A00008705F490870012070470020FCE75B4900
:1039B0000870704710B5302263214A4801F044F87E
:1039C0005420484988764D20C876432088775F2068
:1039D000C877482081F820004D2081F82100502030
:1039E00081F824005F2081F82500532081F826000B
:1039F0004D2081F82700532081F82800702081F89D
:103A00002C0081F82D006D2081F82E005F2081F8B8
:103A10002F004C2081F83000532081F831006C20B9
:103A200081F83700782081F838005F2081F839006C
:103A3000572081F83A00452081F83B005F2081F84B
:103A40004100532081F8420081F843004F2081F863
:103A500044005F2081F84800532081F8490081F834
:103A60004A00542081F84B005F2081F84F00482025
:103A700081F85000542081F851005F2081F85500F2
:103A8000412081F85600522081F857005F2081F8CC
:103A90005B00502081F85C004D2081F85D00002023
:103AA00081F8620010BD10B5002404E030200C49FC
:103AB0000855601CC4B2202CF8DB20201749087080
:103AC000002017490870174908700449087007203A
:103AD000FFF76DFFFFF76EFF10BD00003E000020F6
:103AE00063010020000100203F00002052656C614E
:103AF00079313A4F4E20000052656C6179313A4F6E
:103B00004646000052656C6179323A4F4E20000003
:103B100052656C6179323A4F464600003B00002006
:103B20003C0000203D000020A2490870704700B50D
:103B3000002204E00020A0498854501CC2B2182A78
:103B4000F8DB18209B49087000209C4908709C49AC
:103B500008709C4908700A20FFF7E6FF00BD10B509
:103B6000044698490878411C964A117092490C54B1
:103B7000104600788F490978884202D101208F4988
:103B8000087090480078032813D18B480078632888
:103B90000FD18948407861280BD1874880786E28FA
:103BA00007D10120864908708449087000208549A2
:103BB00008708448007804287ED17F480078532814
:103BC0000FD17D48407877280BD17B48C078742886
:103BD00007D17D48007808B9012000E000207A492B
:103BE00008707548007841280FD1734840786528DF
:103BF0000BD17148C078612807D17448007808B9A2
:103C0000012000E00020714908706B4800784C28C2
:103C100029D169484078692825D16748C078682843
:103C200021D16B48006838B96A48007808B901208A
:103C300000E000206749087065480068012807D146
:103C40006548007808B9012000E00020624908704A
:103C50005F480068401C5E4908600846006802280A
:103C600001DB002008605448007852280FD15248E8
:103C7000407865280BD15048C078742807D1574840
:103C8000007808B9012000E00020544908704A4833
:103C90000078432814D148484078752810D1464808
:103CA000C07874280CD14E480078401C4C490870EC
:103CB00008460078022800E05AE001DD0020087084
:103CC0003D48007844280FD13B4840786F280BD1FD
:103CD0003948C078722807D14248007808B90120D5
:103CE00000E000203F4908703348007848280FD191
:103CF0003148407875280BD12F48C078692807D102
:103D00003948007808B9012000E0002036490870E1
:103D100029480078532813D1274840786F280FD1BD
:103D20002548C07831280BD13048007808B90120E7
:103D300000E000202D4908702DA12E48FEF7F3FB6E
:103D40001D480078532813D11B4840786F280FD1A5
:103D50001948C07832280BD12748007808B90120CB
:103D600000E000202449087024A12248FEF7DBFB74
:103D700010BD01460022134B1A70104B1A70002020
:103D800004E00D4A125C0A54421CD0B2094A12786F
:103D90009042F6DB70470948007870470848007881
:103DA00030B10020064908700449087001207047AE
:103DB0000020FCE744000020830100204500002093
:103DC000460000204700002051000020490000204C
:103DD000600000204A0000204B0000204800002026
:103DE0004F0000204D0000204E0000204C0000201D
:103DF000536F31000044004050000020536F3200E8
:103E00002DE9F04107460C4615461E46FE48B0F81F
:103E100000046FF30E00FC49A1F800043A46FBA130
:103E2000FC48FEF780FB1CB915B90120BDE8F08104
:103E3000B6F5E16F06D84FF47A7106FB01F000F099
:103E400002FD08E0F44800F0FEFCF34800F0FBFC43
:103E5000F14800F0F8FC0020EB49B1F80014C1F380
:103E60000E01E94A5054B4B1ADB12146104600F0FC
:103E7000FDFD08B1012000E0002040B92946E248DC
:103E800000F0F4FD08B1012000E0002008B101209D
:103E9000CCE70020CAE744B12146DB4800F0E6FD4C
:103EA00008B10120C2E70020C0E72946D64800F04B
:103EB000DDFD08B10120B9E70020B7E710B54FF4E8
:103EC000FA730022D5A1D6A0FFF79AFF08B9002007
:103ED00010BD4FF4FA73D6A2D0A1D6A0FFF790FF81
:103EE000F6E7F0B5B9B006460F4614461D46642104
:103EF00020A800F0B0FD16B1012E10D107E03B461E
:103F0000CFA2D0A120A8009400F01EFF08E03B46FD
:103F1000D0A2CCA120A8009400F016FF00E000BFC2
:103F200000BF052D06DA20AB2A46CBA102A800F07F
:103F30000BFF04E020AACDA102A800F005FF4FF47A
:103F4000E163CEA2B5A102A8FFF75AFF39B0F0BDD8
:103F500010B5044624B1012C4ED0022C7ED1A9E02C
:103F600000BF4FF47A730022ACA1C8A0FFF748FF4E
:103F70000028F6D000BF40F6C4130022A7A1C6A0B7
:103F8000FFF73EFF0028F6D000BF42F21073002278
:103F9000A2A1C3A0FFF734FF0028F6D09E4800F08E
:103FA00052FC9D4800F04FFC9B4800F04CFC9A48A6
:103FB00000F049FC984800F046FC00BF4FF47A73CB
:103FC000002296A1BEA0FFF71BFF0028F6D000BF7D
:103FD0004FF47A73002291A1BCA0FFF711FF0028D3
:103FE000F6D000BF4FF47A7300228CA1A7A0FFF790
:103FF00007FF0028F6D082E000BF4FF47A7300225A
:1040000086A1BDA0FFF7FCFE0028F6D000BF40F659
:10401000C413002281A1A0A0FFF7F2FE0028F6D071
:104020007D4800F010FC7C4800F00DFC00BF40F61D
:10403000C413002279A1B3A0FFF7E2FE0028F6D056
:1040400000BF4FF47A73002274A1B4A0FFF7D8FE2A
:104050000028F6D000BF4FF47A7300E04EE0002253
:104060006EA1B8A0FFF7CCFE0028F4D000BF4FF43B
:104070007A73002269A1B6A0FFF7C2FE0028F6D02D
:1040800000BF40F6C413002264A1B6A0FFF7B8FE3B
:104090000028F6D004E0B7A201214020FEF7DDFCA5
:1040A00040F6C41300225DA1B4A0FFF7A9FE0028CA
:1040B000F1D024E0584800F0C6FB574800F0C3FB9D
:1040C000554800F0C0FB544800F0BDFB524800F0DA
:1040D000BAFB00BF052386A2ABA10020FFF701FFBA
:1040E0000028F7D04C4800F0AEFB00BFFFF7E6FE1B
:1040F0000028FBD0484800F0A6FB00E000BF00BF4E
:1041000010BD9AB0642101A800F0A5FC00BFFFF724
:10411000D5FE0028FBD0A0A000F006FE00BFFEE701
:1041200010B54FF40071A248FCF78BFAA14800F0DB
:104130008AFB4FF400719E48FCF781FA10BD10B560
:1041400000244FF400719A48FCF779FA9A4800F07D
:104150007AFB0CE04FF4FA73002230A197A0FFF72E
:104160004FFE00B110BDFFF7DBFF601CC4B20A2C8C
:10417000F0DB00BFF6E710B5044624B1012C0AD0ED
:10418000022C18D10FE04FF4E1638DA223A13FA0D0
:10419000FFF736FE10BD4FF4E16389A21FA156A0C0
:1041A000FFF72EFEF6E74FF4E16385A21BA187A07F
:1041B000FFF726FEEEE70020ECE730B59FB004469F
:1041C0000D462B46224684A101A800F0BDFD41F218
:1041D0008833002211A101A8FFF712FE1FB030BDE5
:1041E00070B5A0B004460D4616462B4622467FA168
:1041F00002A8009600F0A8FD4FF47A73002207A1F0
:1042000002A8FFF7FDFDFDE09C01002025730D0ACB
:10421000000000000038014040771B004F4B0000B9
:1042200041542B4349504D4F44453D31000000005F
:104230003E00000041542B43495053454E4400007A
:1042400054435000222573222C222573222C2573DF
:10425000000000005544500041542B434950535432
:104260004152543D25642C257300000041542B43DA
:10427000495053544152543D25730000414C52451E
:10428000415920434F4E4E454354000041542B4367
:10429000574D4F44453D310041542B52535400007B
:1042A00041542B43574A41503D2234323073797385
:1042B000222C22343230647A6378737973220000BE
:1042C00041542B4349504D55583D300041542B43E8
:1042D000495053544152543D302C22544350222CC7
:1042E000223134342E3136382E36312E3337222CCB
:1042F000313233343600000041542B43574D4F4484
:10430000453D320041542B43495041503D22313903
:10431000322E3136382E342E3122000041542B43B8
:10432000575341503D22536D6172745F486F6D6504
:10433000222C22313233333231353536222C312C96
:104340003400000041542B4349504D55583D310035
:1043500041542B4349505345525645523D312C3818
:104360003038300041542B43495053544F3D31387D
:10437000300000004661696C2021000041542B434D
:1043800049465352000000003134342E3136382E65
:1043900036312E33370000000D0AC5E4D6C3204560
:1043A00053503832363620CDEAB1CF0D0A00000026
:1043B0000010014020A1070040420F0041540000BE
:1043C0006E6F206368616E676500000041542B4387
:1043D000574D4F44453D330041542B43574A4150BC
:1043E0003D222573222C22257322000041542B43A9
:1043F000575341503D222573222C222573222C3104
:104400002C25640020B070BD10B586B004460CB1F8
:10441000012000E000200246A6A101A800F094FCC3
:104420004FF4FA730022AFF20C2101A8FFF7E8FC69
:1044300006B010BD70B5BCB004460D4616460CB3B0
:104440002B4601229FA11EA800F07EFC3246A2A1AD
:10445000684600F079FC4FF4FA730022AFF2442171
:104460001EA8FFF7CDFC58B14FF4FA730022AFF24B
:1044700054216846FFF7C4FC10B101203CB070BD68
:104480000020FBE72B4600228EA11EA800F05CFC5A
:104490004FF4FA730022AFF27C211EA8FFF7B0FCA4
:1044A000ECE710B54FF4FA730022AFF290218EA022
:1044B000FFF7A6FCA0B190A1924800F0D7FA08B18E
:1044C000022010BD90A18F4800F0D0FA08B103205F
:1044D000F7E790A18B4800F0C9FA08B10420F0E793
:1044E0008FA201216120FEF7B8FA0020E9E710B59C
:1044F00000244FF4FA730022AFF2E0217AA0FFF714
:104500007FFC002831D088A17E4800F0AFFA10B1BE
:1045100044F0010401E024F0010487A1794800F08F
:10452000A5FA10B144F0020401E024F0020486A1CF
:10453000744800F09BFA10B144F0040401E024F048
:10454000040485A16F4800F091FA10B144F008040A
:1045500001E024F0080484A16A4800F087FA10B151
:1045600044F0100401E024F01004204610BD2DE9B1
:10457000F04105460F464FF4FA730022AFF2643162
:10458000AFF20820FFF73CFC7BA15E4800F06EFA1A
:1045900006460EB1B61D02E00020BDE8F081002401
:1045A00009E0305D2855285D222802D100202855D9
:1045B00003E0601CC4B2BC42F3DB00BF0120ECE7A7
:1045C00010B56FA16F48FDF7AEFF6F4800F03BF9E3
:1045D0006D4800F038F96DA202216120FEF73DFA26
:1045E00010BD2DE9F04186B005460E4690461C46AA
:1045F00000272DB131466348FDF795FF012729E0DB
:10460000052C07DA08F10203224662A101A800F096
:104610009BFB04E0424664A101A800F095FB4FF427
:104620007A73002264A101A8FFF7EAFB4FF47A73C2
:10463000002262A13046FFF7E3FB07462FB161A2DB
:1046400001216120FEF709FA04E060A20121612046
:10465000FEF703FA384606B0BDE8F08170B50446AF
:1046600000252848B0F800046FF30E002549A1F892
:1046700000040846B0F8000420F40040A1F800044B
:1046800000BF2048B0F80004C00B0028F9D000207B
:104690001C49B1F80014C1F30E011A4A50540CB170
:1046A000154605E04BA1174800F0E0F900B1154DA3
:1046B000284670BD41542B4349504D55583D256403
:1046C0000000000041542B43495053455256455277
:1046D0003D25642C2573000041542B43495053540D
:1046E0004F3D25730000000041542B434950535463
:1046F00041545553000000005354415455533A322D
:104700000D0A00009C0100205354415455533A3384
:104710000D0A00005354415455533A340D0A000019
:104720004661696C200000002B43495053544154AA
:1047300055533A302C0000002B43495053544154F8
:1047400055533A312C0000002B43495053544154E7
:1047500055533A322C0000002B43495053544154D6
:1047600055533A332C0000002B43495053544154C5
:1047700055533A342C000000415049502C2200007F
:104780002B2B2B000038014040771B0045786974C3
:104790002000000041542B43495053454E443D25D1
:1047A000642C25640000000041542B4349505345BC
:1047B0004E443D25640000003E20000053454E4419
:1047C000204F4B0053204F4B20000000534661699F
:1047D0006C0000002B4950440000000030B5274811
:1047E0000068274AB0FBF2F1B1F1807F01D30120CC
:1047F0001DE021F07F40401E4FF0E0225061501735
:104800000F22002807DA13071D0E1E4B00F00F04BD
:10481000241F1D5503E013071C0E1B4B1C5400BF27
:1048200000204FF0E022906107201061002008B1C5
:1048300000BFFEE74FF0E020006920F001004FF0DC
:10484000E021086130BD01B51049009808604FF0C3
:10485000E020006940F001004FF0E021086100BF56
:104860000A4800680028FBD108BD0848006820B14C
:1048700006480068401E0549086070470000002097
:1048800040420F0018ED00E000E400E0640000206A
:1048900008B54FF4A060FBF757FD06208DF8000027
:1048A00002208DF8010001208DF802008DF8030030
:1048B0006846FBF74EFD07208DF800006846FBF7C1
:1048C00048FD09208DF800006846FBF742FD0A20EC
:1048D0008DF800006846FBF73CFD08BD08B50121D6
:1048E0000520FCF7BBF801210920FCF7B7F80121EE
:1048F0001120FCF7B3F8FFF7CBFF0120ADF8000063
:1049000028208DF8030069461648FBF7EBFD1020C0
:10491000ADF8000069461448FBF7E4FD0220ADF84D
:10492000000069461148FBF7DDFD0820ADF80000E6
:1049300069460D48FBF7D6FD08BD70B504460D4627
:1049400029462046FBF761FE012808D100BF294611
:104950002046FBF75AFE0128F9D0012070BD002047
:10496000FCE70000000C014000100140000801407D
:1049700008B501210420FCF771F80120ADF8000012
:1049800018208DF8030003208DF8020069462D4899
:10499000FBF7A8FD08BD08B54FF4A060FBF7D4FCF9
:1049A0001C208DF8000003208DF8010002208DF8F6
:1049B000020001208DF803006846FBF7CAFC08BD21
:1049C00000B587B001210846FCF755F82320ADF863
:1049D000140040F2CF70ADF810000020ADF81600C2
:1049E000ADF8120004A94FF08040FCF76FF9602089
:1049F000ADF800000120ADF802000020ADF806007F
:104A00000220ADF8080069464007FCF79CF9082130
:104A1000C806FCF7E7FD01218807FCF7B3FD01227A
:104A200011469007FCF7C9FCFFF7B5FF0121880785
:104A3000FCF7A8FC07B000BD10B5FFF799FFFFF722
:104A4000BFFF10BD00080140D2B201E000F8012B09
:104A5000491EFBD270470022F6E710B513460A46FE
:104A600004461946FFF7F0FF204610BD30B5054655
:104A70002A460B4612F8010B13F8014B08B1A0426D
:104A8000F8D01CB1002802D06D1CF1E7284630BDDB
:104A9000F0B480EA0102D40F4200B2EB410F02D21F
:104AA0000246084611464A0042D0C30DDDB2C1F3AA
:104AB000C752AD1A202D35DAC1F3160141F40002B8
:104AC00004B15242C5F1200602FA06F12A4110440F
:104AD000B3EBD05F23D0C4B1012DA0EBC35009DCF0
:104AE000F0BC4FF0004202EAC352DBB200F5000016
:104AF00000F0D9B8400000F1807000EBC350A0F185
:104B0000807040EAD170490009E0490841EAC0716B
:104B1000A0EBC35000F50000400800EBC350F0BC10
:104B200000F0B8B86142012202EB4101001BF6E738
:104B3000F0BC704781F00041AAE780F00040A7E791
:104B400080EA010210B502F00043400022D04A0082
:104B50001FD0010E01EB1261C0F35600C2F35602E2
:104B600040F4000042F40002A0FB022000047F3960
:104B7000140400D0401C50EA124001D44000491EE9
:104B8000C2B20C0604EBD010401C4008802A02D0B0
:104B900003E0002010BD20F00100002900DA002011
:104BA000184310BDC10F80EAE0700844CA0796237D
:104BB000002100F078B800F0004220F00040C10D64
:104BC000C0F3160040F400007F2901DA002070478E
:104BD000962903DCC1F19601C84001E0963988406E
:104BE000002AF4D04042704720F00040C10DC0F3CD
:104BF000160040F400007F2901DA00207047962952
:104C000003DCC1F19601C84070479639884070476F
:104C100000F0004230F000400AD0C10D01F5607193
:104C2000C0F3160042EA0151C20840071143704721
:104C3000002001467047000030B5041E71F10004E9
:104C400004DB4FF00044404264EB0101141E73F199
:104C5000000405DB1C464FF00043524263EB0403A3
:104C60008B4208BF824230BD30B50B460146002062
:104C70002022012409E021FA02F59D4205D303FA1E
:104C800002F5491B04FA02F52844151EA2F101029F
:104C9000F1DC30BD0029A8BF7047401C490008BFA7
:104CA00020F00100704710B4B0FA80FC00FA0CF05C
:104CB00050EA010404BF10BC704749B1CCF1200494
:104CC00021FA04F411FA0CF118BF01212143084321
:104CD000A3EB0C01CB1D4FEA00614FEA102042BF4D
:104CE000002010BC704700EBC35010440029A4BF43
:104CF00010BC7047401C490008BF20F0010010BCE8
:104D000070470000064C074D06E0E06840F00103E4
:104D100094E8070098471034AC42F6D3FBF70CFA3E
:104D20006C5700088C5700080FB4054B10B503A949
:104D3000044A029800F02CF810BC5DF814FB000047
:104D40009F210008FC0000200FB4084B10B504A9F7
:104D500002AA039800F01CF8044602A9002000F003
:104D6000F3F8204610BC5DF814FB0000494F000822
:104D700002E008C8121F08C1002AFAD17047704724
:104D8000002001E001C1121F002AFBD17047000082
:104D90002DE9FF4F8BB09A460F460546002606E0E8
:104DA00025280BD052460D9990476D1C761C28780B
:104DB0000028F5D10FB03046BDE8F08F0024A046A2
:104DC0000122604900E0044315F8013F203B02FA4C
:104DD00003F00842F7D128782E2817D115F8010FD3
:104DE00044F004042A280ED06FF02F022878A0F196
:104DF000300109290AD808EB880102EB410100EBD8
:104E000001086D1CF2E757F8048B6D1C287869289F
:104E10003ED006DC0028CDD063280BD0642804D116
:104E200036E0732810D075284BD052460D99904724
:104E3000761C85E017F8040B8DF8000000208DF833
:104E40000100E946012003E057F8049B4FF0FF30D2
:104E500061074FF0000401D40AE0641C44450DDAF8
:104E60008442FADB19F804100029F6D106E0641C2C
:104E70008442FCDB19F804100029F8D1264404E030
:104E800019F8010B52460D999047641EF8D257E06D
:104E900001CF4FF00A0B002802DA40422D2102E038
:104EA000210504D52B218DF82410012103E0E10711
:104EB00005D02021F7E70DF1200908910CE0002131
:104EC000F9E701CF4FF00A0BF9E75946FFF7CCFE9F
:104ED00001F1300209F8012D0028F6D1ADEB0900EF
:104EE00000F1200B600701D44FF00108D84502DD26
:104EF000A8EB0B0000E000208046002406E009A893
:104F00005246005D0D999047641C761C08988442B7
:104F1000F5DB04E0302052460D999047761CB8F13D
:104F20000001A8F10108F5DC05E019F8010B524673
:104F30000D999047761CBBF10001ABF1010BF4DC3D
:104F40006D1C34E7092801000A68531C0B601070BF
:104F500070470000000000000000002F000000006B
:104F60000700070000147F147F1400242A7F2A12F0
:104F700000626408132300364955225000000503DF
:104F8000000000001C224100000041221C0000140F
:104F9000083E08140008083E0808000000A0600051
:104FA00000080808080800006060000000201008E1
:104FB0000402003E5149453E0000427F400000424D
:104FC00061514946002141454B31001814127F10B0
:104FD000002745454539003C4A49493000017109DF
:104FE000050300364949493600064949291E000093
:104FF000363600000000563600000008142241003A
:105000000014141414140000412214080002015169
:10501000090600324959513E007C1211127C007F72
:1050200049494936003E41414122007F4141221C0D
:10503000007F49494941007F09090901003E414972
:10504000497A007F0808087F0000417F4100002066
:1050500040413F01007F08142241007F4040404012
:10506000007F020C027F007F0408107F003E414158
:10507000413E007F09090906003E4151215E007F43
:10508000091929460046494949310001017F0101BA
:10509000003F4040403F001F2040201F003F40385D
:1050A000403F00631408146300070870080700619C
:1050B0005149454300007F41410000552A552A557A
:1050C000000041417F000004020102040040404012
:1050D0004040000001020400002054545478007F36
:1050E0004844443800384444442000384444487F0D
:1050F00000385454541800087E0901020018A4A472
:10510000A47C007F080404780000447D4000004037
:1051100080847D00007F102844000000417F400013
:10512000007C04180478007C0804047800384444A7
:10513000443800FC242424180018242418FC007C83
:105140000804040800485454542000043F444020FC
:10515000003C4040207C001C2040201C003C403093
:10516000403C004428102844001CA0A0A07C00441F
:1051700064544C441414141414140000000000006F
:1051800000000000000000000000000000F8000027
:105190000000000000333000000000100C06100C6E
:1051A0000600000000000000000040C07840C07809
:1051B0004000043F04043F040400007088FC0830F1
:1051C0000000001820FF211E0000F008F000E01889
:1051D000000000211C031E211E0000F00888700042
:1051E00000001E2123241927211010160E00000094
:1051F00000000000000000000000000000E01804B3
:105200000200000000071820400000020418E0001F
:1052100000000040201807000000404080F080405F
:1052200040000202010F01020200000000F0000035
:1052300000000101011F0101010000000000000049
:10524000000080B0700000000000000000000000BE
:105250000000000101010101010100000000000047
:1052600000000030300000000000000000008060FE
:105270001804006018060100000000E01008081083
:10528000E000000F102020100F00001010F80000A8
:1052900000000020203F202000000070080808883F
:1052A000700000302824222130000030088888480F
:1052B00030000018202020110E000000C02010F83F
:1052C000000000070424243F240000F80888880810
:1052D00008000019212020110E0000E01088881815
:1052E0000000000F112020110E0000380808C838F7
:1052F00008000000003F00000000007088080888D7
:105300007000001C222121221C0000E0100808105F
:10531000E0000000312222110F00000000C0C00098
:10532000000000000030300000000000008000009D
:10533000000000008060000000000000804020109D
:105340000800000102040810200040404040404096
:1053500040000404040404040400000810204080F9
:10536000000000201008040201000070480808082E
:10537000F0000000003036010000C030C828E810FE
:10538000E0000718272423140B000000C038E000B9
:105390000000203C23020227382008F88888887003
:1053A0000000203F202020110E00C030080808080F
:1053B0003800071820202010080008F808080810F6
:1053C000E000203F202020100F0008F88888E8081F
:1053D0001000203F20202320180008F88888E808C3
:1053E0001000203F200003000000C03008080838EB
:1053F000000007182020221E020008F808000008FC
:10540000F808203F210101213F20000808F8080882
:1054100000000020203F2020000000000808F808BD
:105420000800C08080807F00000008F888C028182D
:105430000800203F20012638200008F8080000005E
:105440000000203F20202020300008F8F800F8F865
:105450000800203F003F003F200008F830C000084F
:10546000F808203F200007183F00E0100808081047
:10547000E0000F10202020100F0008F8080808088E
:10548000F000203F210101010000E0100808081091
:10549000E0000F18242438504F0008F888888888C6
:1054A0007000203F2000030C30200070880808089E
:1054B00038000038202121221C00180808F80808AC
:1054C00018000000203F2000000008F80800000835
:1054D000F808001F202020201F000878880000C83E
:1054E0003808000007380E010000F80800F800082E
:1054F000F800033C0700073C030008186880806838
:10550000180820302C03032C30200838C800C83875
:1055100008000000203F2000000010080808C838DC
:1055200008002038262120201800000000FE02027A
:1055300002000000007F40404000000C30C000002E
:105540000000000000010638C00000020202FE0058
:105550000000004040407F00000000000402020202
:105560000400000000000000000000000000000037
:105570000000808080808080808000020204000023
:10558000000000000000000000000000808080801B
:1055900000000019242222223F2008F80080800009
:1055A0000000003F112020110E00000000808080CC
:1055B0000000000E112020201100000000808088D3
:1055C000F800000E112020103F2000008080808015
:1055D0000000001F222222221300008080F0888811
:1055E00088180020203F202000000000808080805C
:1055F0008000006B94949493600008F80080808091
:105600000000203F210000203F20008098980000EB
:1056100000000020203F202000000000008098981B
:10562000000000C08080807F000008F800008080BB
:105630008000203F24022D302000000808F80000E0
:1056400000000020203F202000008080808080809B
:105650008000203F20003F20003F8080008080802D
:105660000000203F210000203F200000808080803B
:105670000000001F202020201F008080008080006C
:10568000000080FFA12020110E000000008080801B
:105690008000000E112020A0FF808080800080808C
:1056A000800020203F2120000100000080808080B9
:1056B00080000033242424241900008080E08080AE
:1056C00000000000001F20200000808000000080FB
:1056D0008000001F202020103F208080800000805C
:1056E000808000010E30080601008080008000806C
:1056F00080800F300C030C300F0000808000808011
:1057000080000020312E0E3120008080800000803B
:10571000808080818E7018060100008080808080EB
:1057200080000021302C2221300000000000807C0D
:10573000020200000000003F404000000000FF00A7
:10574000000000000000FF0000000002027C80005A
:1057500000000040403F000000000006010102027E
:105760000404000000000000000000008C57000846
:105770000000002000010000704D00088C58000857
:1057800000010020A0080000804D000800A24A048B
:1057900000000000000000000102030406070809E1
:1057A00000000000010203040102030406070809C7
:1057B00002040608000000000000000000000000D5
:1057C0009100000000000000000000000000000048
:1057D00000000000000000000000000200000000C7
:1057E00000000000000000000000000000000000B9
:1057F000000000000001020304050506070809096E
:105800000A0B0C0D0D0E0F10111112131415151695
:10581000171819191A1B1C1C1D1E1F2020212223BA
:1058200024242526272828292A2B2C2C2D2E2F30DE
:105830003031323334343536373838393A3B3C3C02
:105840003D3E3F40404142434445464748494A4B1C
:105850004C4D4E4F505152535455565758595A5B10
:105860005C5D5E5F60616263646A70767C7D838983
:105870008F9596979DA3AAB0B6BCC2C8CED4DAE0E5
:0C588000E6ECF2F8FEFF00000000000063
:0400000508000131BD
:00000001FF
