:020000040800F2
:1000000068410020450100087D2100087F2100088B
:1000100083210008872100088B21000800000000D0
:100020000000000000000000000000008F21000818
:10003000912100080000000093210008952100088C
:100040005F0100085F0100085F0100085F01000810
:100050005F0100085F010008612300089523000884
:100060005F010008AF2300087B2300085F01000840
:100070005F0100085F0100085F0100085F010008E0
:100080005F0100085F0100085F0100085F010008D0
:100090005F0100085F0100085F0100085F010008C0
:1000A0005F010008052300085F0100085F010008E8
:1000B0005F0100085F0100085F0100085F010008A0
:1000C0005F0100085F0100085F0100085F01000890
:1000D0005F0100089D2100087B220008D92200084A
:1000E0005F0100085F0100085F0100085F01000870
:1000F0005F0100085F0100085F0100085F01000860
:100100005F0100085F0100085F0100085F0100084F
:100110005F0100085F0100085F0100085F0100083F
:100120005F0100085F0100085F0100085F0100082F
:10013000DFF80CD007F0F2FF0048004771210008FB
:10014000684100200648804706480047FEE7FEE772
:10015000FEE7FEE7FEE7FEE7FEE7FEE7FEE7FEE777
:1001600047020008310100080CB500200190009002
:100170006C48006840F480306A49086000BF6948F4
:10018000006800F4003000900198401C0190009835
:1001900018B90198B0F5A06FF1D16248006800F479
:1001A000003010B10120009001E000200090009884
:1001B000012843D15C48006840F010005A490860AB
:1001C0000846006820F0030008600846006840F018
:1001D0000200086053484068524948600846406839
:1001E00048600846406840F48060486008464068BF
:1001F00020F47C1048600846406840F4E8104860ED
:100200000846006840F08070086000BF45480068FC
:1002100000F000700028F9D04248406820F0030048
:10022000404948600846406840F00200486000BF0E
:100230003C48406800F00C000828F9D10CBD10B50E
:10024000FFF792FF10BD10B53648006840F001007E
:1002500034490860084640683449084031494860DC
:1002600008460068324908402E4908600846006880
:1002700020F4802008600846406820F4FE004860B2
:100280004FF41F008860FFF7DAFF4FF00060294944
:10029000086010BD10B5002100200022214B5B68D2
:1002A00003F00C0121B1042906D0082928D107E068
:1002B000214B224C236027E01F4B204C236023E07E
:1002C000184B5B6803F47010164B5B6803F48032C4
:1002D000022303EB904022B9194B4343174C236090
:1002E0000DE0104B5B6803F4003323B1144B434320
:1002F000124C236003E0104B4343104C236003E097
:100300000D4B0E4C236000BF00BF064B5B68C3F370
:1003100003130C4CE15C094B1B68CB40074C23607A
:1003200010BD000000100240002002400000FFF855
:10033000FFFFF6FE08ED00E000127A00000000204A
:1003400000093D000400002031490143314A116099
:10035000704770B5002100230F22C47804B32D4CE0
:10036000246804F4E064C4F5E064210AC1F10403E4
:10037000CA40447804FA03F1847814402143090107
:10038000254C0678A155047804F01F050124AC40E3
:1003900005786D11AD0005F1E025C5F8004109E0D3
:1003A000047804F01F050124AC401C4D067876113A
:1003B00045F8264070BD1A4A0A400243154B1B1FE0
:1003C0001A60704739B1134A121D12680243114B6B
:1003D0001B1D1A6006E00F4A121D126882430D4B66
:1003E0001B1D1A607047042808D14FF0E0210969ED
:1003F00041F004014FF0E022116107E04FF0E021ED
:10040000096921F004014FF0E022116170470000FA
:100410000000FA050CED00E000E400E080E100E0FF
:1004200080FFFF1F10B50446CC48844208D101214B
:10043000042000F02DFB0021042000F029FB46E001
:10044000C748844208D10121082000F021FB002187
:10045000082000F01DFB3AE0C248844208D1012187
:10046000102000F015FB0021102000F011FB2EE001
:10047000BD48844208D10121202000F009FB002161
:10048000202000F005FB22E0B848844208D1012179
:10049000402000F0FDFA0021402000F0F9FA16E0BB
:1004A000B348844208D10121802000F0F1FA0021F4
:1004B000802000F0EDFA0AE0AE48844207D1012125
:1004C000801500F0E5FA0021A01500F0E1FA10BD5A
:1004D00010B50121084600F0DBFA0021012000F0F0
:1004E000D7FA10BD2DE9F041024600250026002074
:1004F00000230024002791F803C00CF00F0591F8A9
:1005000003C00CF0100CBCF1000F03D091F802C036
:100510004CEA050591F800C0BCF1000F31D0146819
:1005200000202BE04FF0010C0CFA00F3B1F800C0F2
:100530000CEA03069E4220D183004FF00F0C0CFA08
:1005400003F7BC4305FA03FC4CEA040491F803C02A
:10055000BCF1280F06D14FF0010C0CFA00FCC2F8D8
:1005600014C00AE091F803C0BCF1480F05D14FF068
:10057000010C0CFA00FCC2F810C0401C0828D1D3B2
:100580001460B1F800C0BCF1FF0F34DD54680020E6
:100590002EE000F1080C4FF0010808FA0CF3B1F856
:1005A00000C00CEA03069E4221D183004FF00F0CDD
:1005B0000CFA03F7BC4305FA03FC4CEA040491F877
:1005C00003C0BCF1280F05D100F1080C08FA0CF8A3
:1005D000C2F8148091F803C0BCF1480F07D100F1B4
:1005E000080C4FF0010808FA0CF8C2F81080401C03
:1005F0000828CED35460BDE8F0814FF6FF7101802A
:10060000022181700421C170704702460020936866
:100610000B400BB1012000E00020704701468868C4
:1006200080B2704702460020D3680B400BB1012016
:1006300000E0002070470146C86880B27047016141
:100640007047416170470AB1016100E04161704744
:10065000C16070474FF480320A43826181618261D8
:1006600082698269704702460020434B18684FF642
:100670008073184040EA021008433F4B18607047EF
:100680003E49C8617047F0B50A46002300240021A6
:10069000002500F00046B6F1004F02D1364EF16958
:1006A00001E0354E7168C0F3034583B200F4401693
:1006B000B6F5401F08D121F070612F4E766826F004
:1006C00070662D4F7E6012E000F48016B6F5801F34
:1006D00006D1032606FA05F4A14341F0706106E055
:1006E000460D360103FA06F6B14341F0706122B1BE
:1006F000460D360103FA06F6314300F00046B6F126
:10070000004F02D11C4EF16101E01B4E7160F0BD43
:1007100030B500228B071C0F0F2303FA04F2164B8F
:1007200008338C1053F824309343134C08348D1045
:1007300044F8253023468C1053F824308C07240FBE
:1007400000FA04F423430C4C08348D1044F825308F
:1007500030BD0A49DC3108607047000000080140E4
:10076000000C01400010014000140140001801403D
:10077000001C014000200140000001400000204218
:10078000DF48006840F00100DD4908600846406825
:10079000DC490840DA49486008460068DA49084000
:1007A000D74908600846006820F4802008600846A1
:1007B000406820F4FE0048604FF41F0088607047D6
:1007C000CF49096821F48031CD4A1160114609688A
:1007D00021F480211160B0F5803F03D0B0F5802F67
:1007E0000ED106E0C649096841F48031C44A11605F
:1007F00007E0C349096841F4A021C14A116000E043
:1008000000BF00BF704710B5014600220023002042
:100810004A11012A02D1BA4C236806E0022A02D109
:10082000B74C236A01E0B64C636A01F01F02012451
:1008300094401C400CB1012000E0002010BD38B5F0
:10084000002000900024002500BF3120FFF7DBFFCF
:1008500005460098401C00900098B0F5A06F01D0AC
:10086000002DF2D03120FFF7CEFF08B1012400E0C7
:100870000024204638BD01460020A14A106820F01F
:10088000F80040EAC10010607047A0490860704756
:10089000024600209A4B586820F47C1042EA01037B
:1008A0001843974B5860704798490866704701464F
:1008B0000020934A506820F00300084350607047BE
:1008C0008F48406800F00C007047014600208C4AB9
:1008D000506820F0F0000843506070470146002047
:1008E000874A506820F4E060084350607047014632
:1008F0000020834A506820F4605040EAC1005060F4
:10090000704729B17E4A527A02437D4B5A7204E005
:100910007B4A527A82437A4B5A7270477B49D8316C
:100920000860704701460020754A506820F4404036
:100930000843506070470021714A20321170704A9C
:1009400082F82010012802D004280AD104E00121F5
:100950006B4A2032117005E00521694A203211707E
:1009600000E000BF00BF70476949086070476449F4
:10097000096A0143624A1162704765494439086057
:10098000704730B500210022002400235C4D6D68C3
:1009900005F00C0121B1042905D0082923D105E077
:1009A0005C4D056022E05B4D05601FE0544D6D68B5
:1009B00005F47012524D6D6805F48034022505EB84
:1009C00092421CB9544D554305600BE04C4D6D6887
:1009D00005F400351DB1504D5543056002E04D4D05
:1009E0005543056002E04B4D056000BF00BF444D1C
:1009F0006D6805F0F0010909484D6B5C0568DD4044
:100A000045603F4D6D6805F4E061090A434D6B5C3C
:100A10004568DD4085603A4D6D6805F46051C90A4E
:100A20003E4D6B5C4568DD40C560354D6D6805F435
:100A30004041890B3A4D6B5CC568B5FBF3F5056128
:100A400030BD29B12E4A526902432D4B5A6104E050
:100A50002B4A526982432A4B5A61704729B1284A6E
:100A600092690243264B9A6104E0254A92698243C7
:100A7000234B9A61704729B1214AD2690243204B26
:100A8000DA6104E01E4AD26982431D4BDA61704785
:100A900029B11B4AD2680243194BDA6004E0184AB4
:100AA000D2688243164BDA60704729B1144A126942
:100AB0000243134B1A6104E0114A12698243104B3E
:100AC0001A61704712494039086070470F49C8647D
:100AD00070470B49C87170470948406A40F0807000
:100AE00007494862704701460020054A92680A405B
:100AF0000AB1012000E00020704701498872704768
:100B0000001002400000FFF8FFFFF6FE0000424226
:100B10008004424200127A0000093D0014000020C7
:100B200024000020002044490860091D0860091DB8
:100B30000860091D086041483F491431086070474A
:100B400000213D498279002A3AD00A46126803689A
:100B50009A430B461A600A1D126803689A430B1DDC
:100B60001A60027911440A6803681A430A60324A1B
:100B70000832126803689A432F4B08331A601A1D13
:100B8000126803689A432C4B0C331A604279102A7E
:100B90000ED11A1F126803681A43274B08331A60D4
:100BA0001A1D126803681A43234B0C331A600DE0B8
:100BB0002149427911440A6803681A430A6005E032
:100BC000027911440A6803689A430A607047002159
:100BD000016001710C21417100218171704716493A
:100BE000103109680143144A103211607047014600
:100BF0000020114A143212680A400AB1012000E0B4
:100C0000002070470C4914310860704701460020ED
:100C10000022094B1B6803EA0102074B14331B68CF
:100C20000B4013B10AB1012000E0002070470249D7
:100C3000143108607047000000040140FFFF0F00FE
:100C400010B50446BE48844208D101218014FFF744
:100C50001FFF0021A014FFF71BFF16E0B9488442D4
:100C600008D101210014FFF720FF00212014FFF715
:100C70001CFF0AE0B448844207D10121C013FFF7EA
:100C800014FF0021E013FFF710FF10BD10B5002284
:100C9000028802F441520B884C8823438C882343FA
:100CA000CC8823430C8923434C8923438C892343D9
:100CB000CC8923431A430280838B4FF2FF74234075
:100CC00083830B8A038210BD2DE9F04F85B0054662
:100CD0000C464FF0000902274FF000084FF0010BBF
:100CE0000026B246A88B4FF240010840A88302209C
:100CF0002884B5F81C90A068022801D100BF38E014
:100D0000A08810B94FF0010B01E04FF0020B8D48A5
:100D1000854200D100E000BF6846FFF732FEDDF8F3
:100D200000A0E088B0F5007F0AD14FEA1A2000EB5E
:100D300080004000A168B0FBF1F0401D86B20BE0DE
:100D40004FEA4B10BAFBF0F000EB80004000A168C6
:100D5000B0FBF1F0401D86B20A20B6FBF0F606F0BB
:100D60000108A6EB0800C0F34F074FF6FF7000EA3A
:100D70000828022F01DBFF2F02DD02274FF00008B9
:100D8000E08840EA080038432884A088A189084305
:100D9000618808432188084340F4006040EA09095B
:100DA000A5F81C9005B0BDE8F08F002101804180BE
:100DB0008180C180018141818181C18107210182BE
:100DC00070470021018041808180C18002218160C3
:100DD00000218181704721B1028842F040020280E7
:100DE00004E002884FF6BF731A400280704721B1B9
:100DF000828B42F48062828304E0828B4FF6FF3361
:100E00001A408283704730B5002400230C1101255D
:100E1000A540ABB21AB185881D43858002E0858864
:100E20009D43858030BD1AB183880B43838002E0E7
:100E300083888B438380704781817047014688890E
:100E400070474FF6FF62914204D0028842F48072EC
:100E5000028004E002884FF6FF631A400280704768
:100E600021B1828842F00402828004E082884FF639
:100E7000FB731A408280704702884FF2FF731A405A
:100E8000028002880A4302807047018841F4805141
:100E90000180704721B1028842F40052028004E0D0
:100EA00002884DF6FF731A40028070470246002008
:100EB000012901D0108B00E0908A70470146088A12
:100EC0007047B1F5804F04D1028842F4804202801D
:100ED00004E002884BF6FF731A4002807047024616
:100EE000002013890B400BB1012000E00020704767
:100EF000CA4302817047F0B5024600200024002357
:100F0000002501F00F070126BE40B4B20B110126E7
:100F10009E40B3B2968806EA03051689264016B1AC
:100F20000DB1012000E00020F0BD10B5002201F05D
:100F30000F040123A3409AB2D343038110BD0000E4
:100F40000030014000380040003C004010B504462D
:100F5000FE48844208D10121C014FFF799FD002109
:100F6000E014FFF795FDC4E0B4F1804F08D10121F2
:100F70000846FFF79AFD00210120FFF796FDB8E033
:100F8000F348844208D101210220FFF78EFD0021A1
:100F90000220FFF78AFDACE0EE48844208D101212F
:100FA0000420FFF782FD00210420FFF77EFDA0E072
:100FB000E948844208D101210820FFF776FD00218D
:100FC0000820FFF772FD94E0E448844208D1012133
:100FD0001020FFF76AFD00211020FFF766FD88E072
:100FE000DF48844208D101212020FFF75EFD002167
:100FF0002020FFF75AFD7CE0DA48844208D1012125
:101000004014FFF745FD00216014FFF741FD70E03B
:10101000D548844209D10121C804FFF739FD0021D8
:101020004FF40020FFF734FD63E0D048844209D13B
:1010300001210805FFF72CFD00214FF48010FFF778
:1010400027FD56E0CA48844209D101214805FFF72F
:101050001FFD00214FF40010FFF71AFD49E0C548BD
:10106000844208D101214020FFF71FFD00214020CC
:10107000FFF71BFD3DE0C048844208D101218020DC
:10108000FFF713FD00218020FFF70FFD31E0BB4883
:10109000844208D101218015FFF707FD0021A0152A
:1010A000FFF703FD25E0B648844209D10121080479
:1010B000FFF7EEFC00214FF48030FFF7E9FC18E069
:1010C000B048844209D101214804FFF7E1FC002126
:1010D0004FF40030FFF7DCFC0BE0AB48844208D152
:1010E00001218804FFF7D4FC00214FF48020FFF792
:1010F000CFFC10BD00220288944B98420ED0994B31
:1011000098420BD0B0F1804F08D0914B984205D057
:10111000904B984202D0904B984204D14FF68F7377
:101120001A404B881A438D4B984207D08C4B9842FB
:1011300004D04FF6FF431A40CB881A4302808B88B5
:1011400083850B880385814B98420BD0854B984251
:1011500008D08B4B984205D08A4B984202D08A4BDC
:10116000984201D10B7A038601238382704770B5C0
:10117000002400220023058C4FF6FE7635400584BE
:10118000028C8388048B4FF68F752C40B51E2C4043
:101190000D882C43751E2A400D892A434D882A4309
:1011A0006A4DA8420BD06F4DA84208D0744DA8429A
:1011B00005D0744DA84202D0734DA84213D14FF60A
:1011C000F7752A404D892A434FF6FB752A408D88D2
:1011D0002A434FF6FF652B404FF6FF552B408D8974
:1011E0002B43CD892B4383800483CD88858602845D
:1011F00070BD70B5002400220023058C4FF6EF76F9
:1012000035400584028C8388048B48F6FF752C409A
:101210004FF6FF452C400D884FF6FF7606EA052570
:101220002C434FF6DF752A400D8906EA05152A433F
:101230004D8806EA05152A43444DA84202D0494D7F
:10124000A8421DD14FF67F752A404D894FF6FF7693
:1012500006EA05152A434FF6BF752A408D8806EA2F
:1012600005152A434FF6FF352B404FF2FF752B40F3
:101270008D8906EA85052B43CD8906EA85052B4332
:1012800083800483CD880587028470BD70B50024F7
:1012900000220023058C4FF6FF6635400584028C42
:1012A0008388848B4FF68F752C404FF6FC752C404D
:1012B0000D882C434FF6FF552A400D894FF6FF76D7
:1012C00006EA05252A434D8806EA05252A431F4DCF
:1012D000A84202D0234DA8421DD14FF2FF752A40EB
:1012E0004D894FF6FF7606EA05252A434FF6FF356E
:1012F0002A408D8806EA05252A434EF6FF752B40C5
:101300004DF6FF752B408D8906EA05152B43CD89D7
:1013100006EA05152B4383808483CD888587028464
:1013200070BD70B5002200230024058C4EF6FF76B8
:1013300035400584038C8488828B48F6FF752A40EB
:101340004FF6FF452A400D8820E00000002C0140A8
:101350000004004000080040000C00400010004065
:101360000014004000340140004C01400050014096
:101370000054014000180040001C004000200040C4
:101380000040014000440140004801404FF6FF7614
:1013900006EA05252A434DF6FF752B400D8906EA1E
:1013A00005352B434D8806EA05352B43FA4DA842F7
:1013B00002D0FA4DA84208D14BF6FF752C408D891A
:1013C0004FF6FF7606EA85152C4384808283CD880C
:1013D000A0F84050038470BD828B4FF2FF331A4057
:1013E0008283828B4FF6FF7303EA01231A438283C1
:1013F0007047F0B50C461546002200210026078CE8
:101400004EF6FF7C07EA0C070784828B018C4FF6AF
:10141000FF7707EA043640F6FF473A404FF6FF777A
:1014200007EA05273A434FF6FF7707EA03373A43BF
:10143000D94FB8420ED0D94FB8420BD0B0F1804F3F
:1014400008D0D74FB84205D0D64FB84202D0D64FB9
:10145000B84206D14DF6FF77394046F480573943FC
:1014600005E047F6FF57394044F4805739438283FB
:101470000184F0BD828B4FF6F3731A408283828B16
:101480000A4382837047F0B50C46154600220021BE
:101490000026078C4FF6FF6C07EA0C070784828B47
:1014A000018C4FF6FF7707EA04264FF60C773A4097
:1014B0004FF6FF7707EA03172F433A43B64FB84278
:1014C0000ED0B64FB8420BD0B0F1804F08D0B44F19
:1014D000B84205D0B34FB84202D0B34FB84206D19C
:1014E0004FF6FF57394046F48077394305E04FF215
:1014F000FF57394044F48077394382830184F0BD3B
:10150000028B4FF2FF331A400283028B4FF6FF73B8
:1015100003EA01231A4302837047F0B50C461546CF
:10152000002200210026078C4FF6EF7C07EA0C070B
:101530000784028B018C4FF6FF7707EA041640F60A
:10154000FF473A404FF6FF7707EA03373A434FF633
:10155000FF7707EA05273A438F4FB8420ED08F4FE7
:10156000B8420BD0B0F1804F08D08D4FB84205D0B3
:101570008C4FB84202D08C4FB84206D14FF6DF777D
:10158000394046F01007394305E04FF65F773940A0
:1015900044F01007394302830184F0BD028B4FF6FB
:1015A000F3731A400283028B0A4302837047F0B53B
:1015B0000C46154600220021068C4FF6FE773E4071
:1015C0000684028B018C4FF60C7632407E1C06EAB4
:1015D00003162E433243704EB0420ED06F4EB042CF
:1015E0000BD0B0F1804F08D06D4EB04205D06D4E9B
:1015F000B04202D06C4EB04206D14FF6FD7631407B
:1016000044F00106314305E04FF6F576314044F0F1
:101610000106314302830184F0BD70B505460C46D6
:101620005D4885420ED05D4885420BD0B5F1804FB4
:1016300008D05B48854205D05A48854202D05A48B6
:10164000854200D100E000BF208850B92389A288DC
:1016500061882846FFF7ABFFE1882846FFF79EFF29
:1016600025E0208804280AD12389A2886188284699
:10167000FFF753FFE1882846FFF742FF17E0208875
:1016800008280AD12389A28861882846FFF7FBFE33
:10169000E1882846FFF7EEFE09E02389A2886188E9
:1016A0002846FFF7A6FEE1882846FFF795FE70BDA5
:1016B0002DE9F04105460C4600260127608808B94F
:1016C000022600E00026A088012801D1022700E0C0
:1016D00001272088A0B92389A28861882846FFF7BE
:1016E00066FFE1882846FFF759FF23893A463146CD
:1016F0002846FFF712FFE1882846FFF701FF13E0B5
:101700002389A28861882846FFF707FFE1882846D9
:10171000FFF7F6FE23893A4631462846FFF747FF92
:10172000E1882846FFF73AFFBDE8F0810A884B8838
:101730001A438B881A43CB881A430B891A434B8967
:101740001A438B891A43A0F8442070474FF6FF7163
:10175000818000210180C180418001727047002199
:10176000018041808180C180018141818181C1816D
:101770007047002101804180012181800021C180CA
:10178000018170470021018041808180C1800181F9
:101790004181818170470000002C014000340140EC
:1017A0000004004000080040000C004021B1028805
:1017B00042F00102028004E002884FF6FE731A40F4
:1017C0000280704731B1B0F8442042F40042A0F8E2
:1017D000442005E0B0F84420C2F30E02A0F84420F3
:1017E00070471AB183890B43838102E083898B435D
:1017F000838170478182704741EA0203A0F8483034
:1018000070471AB183890B43838102E083898B433C
:101810008381704701894FF6F8721140018170474A
:101820000A46002101894FF68F7319401143018147
:10183000704730B504460D4629462046FFF7F0FFB5
:10184000208940F00700208130BD2DE9F041044699
:101850000D4616461F46602D06D13B4601223146F5
:101860002046FFF75AFE05E03B460122314620465E
:10187000FFF79DFE29462046FFF7D2FF208940F062
:1018800007002081BDE8F08130B50C4600210189B8
:10189000C9B24FF6FF7505EA0325154325432943D1
:1018A000018130BD2DE9F04105460E4617469846A8
:1018B000002443463A4631462846FFF7E5FF2C8987
:1018C0004FF6F870044044F007044FF68F70044060
:1018D00044F070042C81BDE8F081F0B504460D465B
:1018E00016461F463B46324629462046FFF7CCFFA8
:1018F000208940F480402081F0BD018582827047BC
:101900000A46002101884FF68F7319401143018068
:101910007047F0B50C4615461E46002100220023F4
:101920000189028B038C4FF6F877394021434FF63B
:10193000FC473A4040F201173A434FF6DD773B400F
:101940004FF6FF7707EA06172F433B4301810283D7
:101950000384F0BD0A460021018B4FF68F731940B6
:101960001143018370470A460021018B48F6FF733B
:1019700019404FF6FF7303EA0223194301837047AE
:101980000A460021818B4FF68F73194011438183E2
:1019900070470A460021818B48F6FF7319404FF6C5
:1019A000FF7303EA022319438183704721B1028840
:1019B00042F08002028004E002884FF67F731A40F2
:1019C0000280704721B1828842F00402828004E0E4
:1019D00082884FF6FB731A408280704721B182885B
:1019E00042F00802828004E082884FF6F7731A40C2
:1019F0008280704721B1828842F00102828004E037
:101A000082884FF6FE731A40828070470A46002192
:101A1000018B4FF6F77319401143018370470A4653
:101A20000021018B4FF2FF7319404FF6FF7303EA59
:101A300002231943018370470A460021818B4FF628
:101A4000F77319401143818370470A460021818B47
:101A50004FF2FF7319404FF6FF7303EA0223194355
:101A6000818370470A460021018B4FF6FB731940B2
:101A70001143018370470A460021018B4FF6FF3363
:101A800019404FF6FF7303EA02231943018370479D
:101A90000A460021818B4FF6FB7319401143818365
:101AA00070470A460021818B4FF6FF3319404FF6ED
:101AB000FF7303EA02231943818370470A4600211A
:101AC000018B4FF67F7319401143018370470A461B
:101AD0000021018BC1F30E014FF6FF7303EA0223CD
:101AE0001943018370470A460021818B4FF67F73AB
:101AF00019401143818370470A460021818BC1F34D
:101B00000E014FF6FF7303EA0223194381837047E6
:101B10000A460021018C4FF6FD73194011430184E0
:101B200070470A460021018C4FF6F77319401143A4
:101B3000018470470A460021018C4FF6DF7319407B
:101B40004FF6FF7303EA02131943018470470A46F4
:101B50000021018C4FF67F7319404FF6FF7303EAA3
:101B600002131943018470470A460021018C4FF685
:101B7000FF5319404FF6FF7303EA02231943018410
:101B800070470A460021018C4FF2FF7319404FF64F
:101B9000FF7303EA02231943018470470A460021B8
:101BA000018C4DF6FF7319404FF6FF7303EA0233C1
:101BB00019430184704730B5002301248C40A3B23F
:101BC000048C9C430484048C02FA01F5ADB22C43CE
:101BD000048430BD30B5002304248C40A3B2048CAF
:101BE0009C430484048C02FA01F5ADB22C430484B6
:101BF00030BD70B50346002000241846183001257A
:101C00008D40ACB21D8CA5431D8409B1082909D1B2
:101C100000EB6100056825F0700505600568154357
:101C200005600EE00D1FC5F34E052844056825F438
:101C3000E045056005684FF6FF7606EA0226354363
:101C4000056070BD21B1028842F00202028004E00A
:101C500002884FF6FD731A400280704721B1028856
:101C600042F00402028004E002884FF6FB731A403F
:101C70000280704721B1828842F08002828004E0B5
:101C800082884FF67F731A408280704702884FF631
:101C9000F7731A40028002880A43028070478288E4
:101CA0004FF68F731A40828082880A438280704781
:101CB00002894FF6F8731A40028102890A430281B1
:101CC000704702894FF67F731A40028102890A43E6
:101CD0000281704781847047818570478186704793
:101CE0000187704781877047A0F8401070470288CD
:101CF0004FF6FF431A40028002880A430280704771
:101D00000146888E70470146088F70470146888FCC
:101D100070470146B1F8400070470146888C704713
:101D20000146088D704702460020138A0B400BB114
:101D3000012000E000207047CA430282704730B59E
:101D40000246002000230024158A05EA0103958934
:101D500005EA010413B10CB1012000E0002030BD00
:101D6000CA4302827047000010B50446FB48844213
:101D700009D101218803FEF78BFE00214FF480403A
:101D8000FEF786FE32E0F648844209D1012148047C
:101D9000FEF78BFE00214FF40030FEF786FE25E0B3
:101DA000F048844209D101218804FEF77EFE00211B
:101DB0004FF48020FEF779FE18E0EB48844209D109
:101DC0000121C804FEF771FE00214FF40020FEF748
:101DD0006CFE0BE0E548844208D101210805FEF7BE
:101DE00064FE00214FF48010FEF75FFE10BD2DE968
:101DF000F04786B005460E460024A24600BFA14625
:101E00000027B08900B100BF2F462C8A4CF6FF7026
:101E10000440F08804432C82AC894EF6F310044051
:101E2000B08831890843718908430443AC81AC8A86
:101E30004FF6FF400440B0890443AC8201A8FEF78E
:101E4000A0FDC648874202D1DDF810A001E0DDF810
:101E50000CA0A88900F4004040B10AEBCA0000EBD6
:101E60000A1031684900B0FBF1F807E00AEBCA003C
:101E700000EB0A1031688900B0FBF1F86420B8FB70
:101E8000F0F004012009642101FB1089A88900F405
:101E9000004040B1322000EBC900B0FBF1F000F08F
:101EA0000700044308E0322000EB09106421B0FB76
:101EB000F1F000F00F0004432C8106B0BDE8F0877C
:101EC0004FF41651016000218180C18001810C21F5
:101ED000418100218181704710B502460020108A9F
:101EE0004FF2FF0318400B884C8823438C88234310
:101EF000CC8823431843108210BD0021018041800B
:101F00008180C180704721B1828942F40052828170
:101F100004E082894DF6FF731A4082817047F0B564
:101F20000346002400260025002040F66A17B94227
:101F300000D100BF1846C1F3421401F01F0601276B
:101F400007FA06F5012C01D10C3004E0022C01D176
:101F5000103000E014301AB107682F43076002E028
:101F60000768AF430760F0BD1AB1838A0B438382D1
:101F700002E0838A8B4383827047028A4FF6F073B4
:101F80001A400282028A0A430282704782894FF213
:101F9000FF731A40828182890A438281704721B18E
:101FA000828942F00202828104E082894FF6FD7349
:101FB0001A4082817047028A4FF6DF731A4002820C
:101FC000028A0A430282704721B1028A42F48042A7
:101FD000028204E0028A4BF6FF731A4002827047C5
:101FE000C1F308028280704701468888C0F3080068
:101FF0007047818941F0010181817047028BD2B223
:102000000283028B42EA012202837047028B02F4B0
:102010007F420283028B0A430283704721B1828A86
:1020200042F02002828204E0828A4FF6DF731A4077
:102030008282704721B1828A42F01002828204E0DB
:10204000828A4FF6EF731A408282704721B1828AEA
:1020500042F00802828204E0828A4FF6F7731A4047
:102060008282704721B1828942F40042828103E07A
:102070008289C2F30E028281704721B1828A42F4C2
:102080000062828204E0828A4FF2FF731A408282E9
:102090007047828A4FF6FB731A408282828A0A4313
:1020A0008282704721B1828A42F00202828204E079
:1020B000828A4FF6FD731A408282704702460020E2
:1020C000B1F5007F00D100BF13880B400BB1012098
:1020D00000E00020704701F40072B2F5007F00D1EB
:1020E00000BFCA430280704770B502460024002337
:1020F0000025002040F66A16B14200D100BFC1F3AE
:10210000421501F01F03012606FA03F3012D02D147
:102110009689334006E0022D02D1168A334001E051
:10212000968A33400C12012606FA04F416883440CD
:1021300013B10CB1012000E0002070BD10B50022E9
:10214000002340F66A14A14200D100BF0A12012404
:102150009440A3B2DC43048010BD0000003801406D
:102160000044004000480040004C00400050004047
:1021700000F002FA01E000F03DFAFCE7704700BF12
:10218000FEE700BFFEE700BFFEE700BFFEE77047C7
:102190007047704710B504F086FD10BD08B540F2D9
:1021A00025518948FFF7A0FF002841D08648FFF756
:1021B0001BFFC0B200909DF800108448FFF710FF8D
:1021C0008348B0F80004C0F30E0040F2FF318842AB
:1021D00010DA9DF800307E49B1F80014C1F30E000A
:1021E000411C7B4AB2F8002461F30E027849A1F841
:1021F00000240B549DF80000232804D100207549C9
:102200000860754908707348006818B19DF80000AF
:1022100004F0B1FB9DF800003A2809D101206D4976
:10222000086000206C49087018216C4805F036FEE3
:1022300040F224416448FFF757FF012818D1644851
:10224000B0F8000420F4004000F500406049A1F817
:1022500000045D48FFF7C8FEC0B2009060A15C4872
:1022600005F027FE08B1012000E000205E4908705B
:1022700040215548FFF72FFF08BD08B540F2255112
:102280005A48FFF731FF10B35848FFF7ADFEC0B210
:1022900000909DF80000232804D1002054490860D4
:1022A000544908705248006818B19DF8000004F0C5
:1022B00054FA9DF80000402809D101204C490860DB
:1022C00000204C49087020214B4805F0E7FD4021D3
:1022D0004648FFF700FF08BD08B540F225513B48CE
:1022E000FFF702FF48B13948FFF77EFEC0B2009009
:1022F0009DF800103448FFF773FE40213348FFF784
:10230000EAFE08BD10B501213C48FFF718FD30B3C7
:102310003B480078401C3A490870084600780A2873
:1023200019DB384838490978405C34493431088031
:1023300035480078401C3449087008460078282841
:1023400006DB32A1214802F0FAFF00202E49087076
:1023500000202B49087001212848FFF701FD10BD1E
:1023600010B50120FEF752FC30B12AA1174802F047
:10237000E6FF0120FEF75BFC10BD10B51020FEF754
:1023800045FC30B126A1114802F0D9FF1020FEF71C
:102390004EFC10BD10B50220FEF738FC30B123A171
:1023A0000A4802F0CCFF0220FEF741FC10BD10B538
:1023B0000820FEF72BFC30B11FA1044802F0BFFF3C
:1023C0000820FEF734FC10BD0038014000480040F2
:1023D0006429002028000020930000204B290020C1
:1023E000434C4F5345440000A800002000440040E7
:1023F0002C000020870000202B290020002C014009
:1024000039000020B4000020380000206675636B9E
:102410000A0A00006B65793220746573740A000043
:102420006B65793320746573740A00006B657934C9
:1024300020746573740A00006B65793520746573C8
:10244000740A000008B501211820FEF707FB1020D0
:102450008DF803000220ADF8000003208DF8020083
:1024600069465848FEF73EF802215648FEF7E7F85D
:1024700010208DF803002020ADF8000003208DF817
:10248000020069465048FEF72DF820214E48FEF71D
:10249000D6F808BD08B501211020FEF7DFFA10209C
:1024A0008DF803008020ADF8000003208DF80200B5
:1024B00069464548FEF716F880214348FEF7C1F803
:1024C00008BD08B501219020FEF7C8FA10208DF84C
:1024D00003000220ADF8000003208DF802006946D9
:1024E0003948FDF7FFFF02213748FEF7A8F8102012
:1024F0008DF803000120ADF8000003208DF80200E4
:1025000069463148FDF7EEFF01212F48FEF797F8A5
:1025100010208DF803000420ADF8000003208DF892
:10252000020069462848FDF7DDFF04212648FEF732
:1025300088F810208DF803002020ADF8000003205B
:102540008DF8020069462148FDF7CCFF20211F4885
:10255000FEF777F808BD10B5FFF7B3FFFFF79AFF56
:10256000FFF770FF04F0D8FB04F0E7FC41F61F41D1
:10257000C72004F002FD10BD10B504F04DFB04F0BF
:10258000E2F904F09CF902F043FE05F055F904F07D
:10259000F2FD00F074F9FFF7DEFF03F071FF0CA20B
:1025A0000021084603F098F902F0FFFF0DA2022176
:1025B000182003F091F90E4804F063FB02F0F5FFD8
:1025C00010BD0000000C014000100140001C014043
:1025D000496E697469616C697A6174696F6E2021F2
:1025E00000000000496E697420646F6E6521000070
:1025F000A086010010B50024FD49522005F0D9F94C
:10260000FC490870FA484078F949097840EA012005
:10261000F9490880F748007858B90220F549087050
:10262000F64805F0F1F9F3490870F5A1F64802F013
:1026300086FEF048007838B90220EE490870EF486D
:1026400005F057FAEB490870EA48007800287BD17A
:10265000E7484078E649097840EA0120E6490880E1
:1026600000242AE0E9480068A0F51C40403800EB4F
:1026700084010422E64804F0CFFDE548007804EB2D
:102680000411E44A02EB41018877E148417804EB08
:10269000041002EB4000C177DD48817804EB0410A0
:1026A00002EB400080F82010D948C17804EB0410F8
:1026B00002EB400080F82110641CD7480078844267
:1026C000D0DB00243AE0CD48007804EB0411D14A75
:1026D00002EB4101897F88422FD1C848417804EB41
:1026E000041002EB4000C07F814226D1C3488178AC
:1026F00004EB041002EB400090F8200081421CD152
:10270000BE48C17804EB041002EB400090F82100B1
:10271000814212D1C1A1BC4802F011FEC1A2012127
:102720001E2003F0A6F80F21BF48FFF7DDFABF48CF
:1027300004F0A7FABE4804F0A4FA641CB648007876
:102740008442C0DB0CE0FFE7BAA201211E2003F0A7
:1027500090F80721B448FFF7C7FAB74804F091FA98
:1027600010BD38B504200090D920AA4988776A2185
:10277000A848C1775D2180F820104A2180F82110F7
:10278000A32180F84010FF2180F84110812180F8BA
:102790004210B52180F84310E32180F862102D210A
:1027A00080F86310ED2180F86410002180F8651036
:1027B000362180F88410D42180F8851080F88610A6
:1027C000022180F8871091480068A0F57A710122F3
:1027D000684604F0C4FD00244CE08C4A1268A2F55F
:1027E0001C52103A042303FB042104EB0412894B0E
:1027F00003EB420202F11E00012204F0B0FD834A05
:102800001268A2F51C52103A042303FB0422511C47
:1028100004EB04127F4B03EB420202F11F00012282
:1028200004F09DFD794A1268A2F51C52103A042367
:1028300003FB0422911C04EB0412764B03EB4202CF
:1028400002F12000012204F08AFD704A1268A2F50C
:102850001C52103A042303FB0422D11C04EB041283
:102860006C4B03EB420202F12100012204F077FDE0
:10287000601CC4B29DF800008442AEDB38BD10B5C8
:1028800062480068A0F57A710122634804F0C4FC34
:102890006A4802886AA15C4802F051FD5E480278ED
:1028A0006BA1594802F04BFD00242BE0574800680B
:1028B000A0F51C40403800EB84010422544804F089
:1028C000ABFC5348007804EB0411524A02EB41017F
:1028D00088774F48417804EB041002EB4000C17741
:1028E0004B48817804EB041002EB400080F8201084
:1028F0004748C17804EB041002EB400080F8211037
:10290000601CC4B2444800788442CFDB10BD70B56F
:1029100000BF3749522005F04CF80028F9D137485C
:1029200005F072F833490870344805F0E2F831498F
:1029300008700846007858BBFFF7A1FF36480478B6
:1029400014E000250EE031480068A0F51C40403836
:10295000314A127800EB82010422284804F0FFFC7F
:10296000681CC5B2042DEEDB601CC4B22A48007896
:10297000401C8442E5DB28480078401C264908704A
:1029800022480068A0F57A710122234804F0E7FC90
:1029900070BD10B500203449087048708870C87048
:1029A0001A480068A0F57A7101221B4804F034FC33
:1029B00000240DE015480068A0F57A70164A1278D8
:1029C00000EB82010422284804F0C9FC601CC4B258
:1029D000114800788442EDDB00200F4908700B4855
:1029E0000068A0F57A7101220B4804F0B8FC10BD14
:1029F0003C00002063000020480000203E00002032
:102A000066696E640D0A00000048004068000020FE
:102A10004E000020F00000205E0000204F4B210DF2
:102A20000A0000004F4E20000008004060E316003E
:102A300020A107004F464600E0930400DC00002080
:102A4000464C4153482049443A2578200D0A00005D
:102A5000464C415348C0EFC3E6B5C4BFA8CAFDCE3B
:102A6000AA25640D0A0D0A004A00002010B5FE4890
:102A70000068A0F24C410122FC4804F070FC0020E8
:102A8000FB49087048708870C87008714871887177
:102A90000024A6E0F4480068F64A801AF34A127847
:102AA0000B2303FB02010122F34804F058FCEE481B
:102AB0000068F04A801AED4A12780B2303FB0200EB
:102AC000411C0122EC48401C04F049FCE648006827
:102AD000E84A801AE54A12780B2303FB0200811CA6
:102AE0000122E548801C04F03AFCDF480068E14A16
:102AF000801ADE4A12780B2303FB0200C11C01225C
:102B0000DD48C01C04F02BFCD7480068D94A801A65
:102B1000D64A12780B2303FB0200011D0122D44880
:102B200004F01DFCD0480068D24A801ACF4A1278BF
:102B30000B2303FB0200411D0122CD48401C04F081
:102B40000EFCC9480068CB4A801AC84A12780B2389
:102B500003FB0200811D0122C548801C04F0FFFB1D
:102B6000C1480068C34A801AC04A12780B2303FB8D
:102B70000200C11D0122BE48C01C04F0F0FBBA488F
:102B80000068BC4A801AB94A12780B2303FB020082
:102B900000F108010122B648001D04F0E0FBB24834
:102BA0000068B44A801AB14A12780B2303FB020072
:102BB00000F109010122AE48401D04F0D0FBAA48F3
:102BC0000068AC4A801AA94A12780B2303FB020062
:102BD00000F10A010122A648801D04F0C0FB601C20
:102BE000C4B2142CFFF656AF10BD0EB5A348007842
:102BF00001286DD19C480068A149401A801C01221F
:102C0000014601909F4804F007FB002002905AE023
:102C1000954800689A49401AC01C0422029902FB98
:102C20000100019001EB0110974901EB40001E30BB
:102C300001220090019904F0EFFA8B480068904956
:102C4000401AC01C0422029902FB0100401C0190A2
:102C500001EB01108C4901EB40001F300122009074
:102C6000019904F0D9FA804800688549401AC01CCF
:102C70000422029902FB0100801C019001EB01106B
:102C8000814901EB4000203001220090019904F0BD
:102C9000C3FA754800687A49401AC01C0422029998
:102CA00002FB0100C01C019001EB0110764901EB11
:102CB0004000213001220090019904F0ADFA029801
:102CC000401CC0B202906F490978029888429FDB8D
:102CD0006A48007802286DD1634800686849401A44
:102CE000CA30012201460190664804F095FA00209E
:102CF00002905AE05C4801686148081ACB3004220F
:102D0000029902FB0100019001EB01105E4901EB09
:102D100040001E3001220090019904F07DFA5248D3
:102D200000685749401ACB300422029902FB010087
:102D3000401C019001EB0110534901EB40001F3092
:102D400001220090019904F067FA474800684C4955
:102D5000401ACB300422029902FB0100801C019032
:102D600001EB0110484901EB4000203001220090A6
:102D7000019904F051FA3C4800684149401ACB30AF
:102D80000422029902FB0100C01C019001EB01101A
:102D90003D4901EB4000213001220090019904F0EF
:102DA0003BFA0298401CC0B202903649097802985A
:102DB00088429FDB31480078032867D12A480068A1
:102DC0002F49401A00F5C9700122014601902D4893
:102DD00004F022FA0020029072E02348006828499B
:102DE000401A00F293100422029902FB01000190A4
:102DF00001EB0110244901EB40001E30012200903C
:102E0000019904F009FA184800681D49401A00F2B7
:102E100093100422029902FB0100401C019001EB77
:102E20000110194901EB40001F3001220090019967
:102E300004F0F2F90C4800681149401A00F29310AE
:102E40000422029902FB0100801C019001EB011099
:102E50000D4901EB4000203001220090019904F05F
:102E6000DBF90148006812E06800002064000020DF
:102E70007600002040420F00520000206F0000202A
:102E8000C027090075000020801B00201DE0FE49BE
:102E9000401A00F293100422029902FB0100C01CA8
:102EA000019001EB0110F94901EB400021300122B2
:102EB0000090019904F0B0F90298401CC0B2029051
:102EC000F34909780298884287DBF24800780428A1
:102ED00072D1F1480068EC49401A00F25A200122F0
:102EE00001460190EA4804F097F9002002905EE064
:102EF000E9480068E449401A00F25B200422029984
:102F000002FB0100019001EB0110E04901EB4000E0
:102F10001E3001220090019904F07EF9DE4800681D
:102F2000D949401A00F25B200422029902FB0100F9
:102F3000401C019001EB0110D44901EB40001F300F
:102F400001220090019904F067F9D3480068CE4946
:102F5000401A00F25B200422029902FB0100801C4F
:102F6000019001EB0110C94901EB40002030012222
:102F70000090019904F050F9C7480068C249401A0E
:102F800000F25B200422029902FB0100C01C0190A8
:102F900001EB0110BD4901EB4000213001220090FE
:102FA000019904F039F90298401CC0B20290B84966
:102FB0000978029888429BDBB6480078052872D1D0
:102FC000B5480068B049401A00F22230012201469B
:102FD0000190AF4804F020F9002002905EE0AE4876
:102FE0000068A949401A00F223300422029902FB2A
:102FF0000100019001EB0110A44901EB40001E30DB
:1030000001220090019904F007F9A34800689E4945
:10301000401A00F223300422029902FB0100401CF6
:10302000019001EB0110994901EB40001F30012292
:103030000090019904F0F0F8974800689249401A0E
:1030400000F223300422029902FB0100801C01904F
:1030500001EB01108D4901EB40002030012200906E
:10306000019904F0D9F88C4800688749401A00F2A9
:1030700023300422029902FB0100C01C019001EBE5
:103080000110824901EB400021300122009001999A
:1030900004F0C2F80298401CC0B202907C49097842
:1030A000029888429BDB7B480078062872D17A48D8
:1030B00000687549401A00F2EA3001220146019089
:1030C000734804F0A9F8002002905EE0724800689E
:1030D0006D49401A00F2EB300422029902FB010014
:1030E000019001EB0110694901EB40001E30012203
:1030F0000090019904F090F8674800686249401A0E
:1031000000F2EB300422029902FB0100401C019006
:1031100001EB01105D4901EB40001F3001220090DE
:10312000019904F079F85C4800685749401A00F2A8
:10313000EB300422029902FB0100801C019001EB9C
:103140000110524901EB400020300122009001990A
:1031500004F062F8504800684B49401A00F2EB3026
:103160000422029902FB0100C01C019001EB011036
:10317000464901EB4000213001220090019904F002
:103180004BF80298401CC0B202904149097802985D
:1031900088429BDB3F480078072872D13E48006890
:1031A0003949401A00F2B2400122014601903848E4
:1031B00004F032F8002002905EE03748006832499F
:1031C000401A00F2B3400422029902FB010001EB15
:1031D000011101902D4800EB41001E3001220090AA
:1031E000019904F019F82C4800682749401A00F2A8
:1031F000B3400422029902FB0100401C019001EB44
:103200000110224901EB40001F300122009001997A
:1032100004F002F8204800681B49401A00F2B3404D
:103220000422029902FB0100801C019001EB0110B5
:10323000164901EB4000203001220090019903F073
:10324000EBFF154800681049401A00F2B340042211
:10325000029902FB0100C01C019001EB01100B4917
:1032600001EB4000213001220090019903F0D4FFCE
:103270000298401CC0B20290054909780298884221
:103280009BDB064800780BE0C0270900801B00206C
:10329000750000206F0000206800002070000020F2
:1032A00008286DD1FE480068FE49401A801C0122A2
:1032B00001460190FC4803F0AFFF002002905AE065
:1032C000F7480068F749401AC01C0422029902FB23
:1032D000010001EB01110190F44800EB41001E30A8
:1032E00001220090019903F097FFED480068ED4935
:1032F000401AC01C0422029902FB0100401C0190EC
:1033000001EB0110E94901EB40001F300122009060
:10331000019903F081FFE2480068E249401AC01CAD
:103320000422029902FB0100801C019001EB0110B4
:10333000DE4901EB4000203001220090019903F0AA
:103340006BFFD7480068D749401AC01C0422029975
:1033500002FB0100C01C019001EB0110D34901EBFD
:103360004000213001220090019903F055FF02989E
:10337000401CC0B20290CC490978029888429FDB79
:10338000CB48007809286DD1C5480068C549401A66
:10339000CA30012201460190C34803F03DFF0020DE
:1033A00002905AE0BE480068BE49401ACB30042261
:1033B000029902FB0100019001EB0110BB4901EBF6
:1033C00040001E3001220090019903F025FFB4480F
:1033D0000068B449401ACB300422029902FB010074
:1033E000401C019001EB0110B04901EB40001F307F
:1033F00001220090019903F00FFFA9480068A94934
:10340000401ACB300422029902FB0100801C01907B
:1034100001EB0110A54901EB400020300122009092
:10342000019903F0F9FE9E4800689E49401ACB308E
:103430000422029902FB0100C01C019001EB011063
:103440009A4901EB4000213001220090019903F0DC
:10345000E3FE0298401CC0B202909349097802989A
:1034600088429FDB924800780A2872D18C48006815
:103470008C49401A00F5C9700122014601908A4822
:1034800003F0CAFE002002905EE08548006885498E
:10349000401A00F293100422029902FB010001EB92
:1034A00001110190814800EB41001E300122009083
:1034B000019903F0B1FE7A4800687A49401A00F297
:1034C00093100422029902FB0100401C019001EBC1
:1034D0000110764901EB40001F3001220090019954
:1034E00003F09AFE6E4800686E49401A00F293108D
:1034F0000422029902FB0100801C019001EB0110E3
:103500006A4901EB4000203001220090019903F04C
:1035100083FE634800686349401A00F29310042256
:10352000029902FB0100C01C019001EB01105F49F0
:1035300001EB4000213001220090019903F06CFE64
:103540000298401CC0B202905749097802988842FC
:103550009BDB574800780B2872D1514800685149CD
:10356000401A00F25A200122014601904E4803F011
:1035700053FE002002905EE0494800684949401A25
:1035800000F25B200422029902FB010001EB011111
:103590000190464800EB41001E3001220090019945
:1035A00003F03AFE3E4800683E49401A00F25B20B4
:1035B0000422029902FB0100401C019001EB011062
:1035C0003A4901EB40001F3001220090019903F0BD
:1035D00023FE334800683349401A00F25B2004227E
:1035E000029902FB0100801C019001EB01102F49A0
:1035F00001EB4000203001220090019903F00CFE05
:10360000274800682749401A00F25B2004220299EB
:1036100002FB0100C01C019001EB0110234901EBEA
:103620004000213001220090019903F0F5FD02983D
:10363000401CC0B202901C490978029888429BDB6A
:103640001B4800780C287FD1154800681549401A9E
:1036500000F22230012201460190134803F0DCFD04
:103660000020029069E00E4800680E49401A00F2FE
:1036700023300422029902FB0100019001EB0110AA
:103680000A4901EB40001E3001220090019903F02D
:10369000C3FD034800680349401A00F2233009E0E3
:1036A0006800002000350C0075000020801B002001
:1036B000700000200422029902FB0100401C0190CE
:1036C00001EB0110FE4901EB40001F300122009088
:1036D000019903F0A1FDFB480068FB49401A00F284
:1036E00023300422029902FB0100801C019001EBAF
:1036F0000110F34901EB40002030012200900199B4
:1037000003F08AFDEF480068EF49401A00F22330C9
:103710000422029902FB0100C01C019001EB011080
:10372000E74901EB4000213001220090019903F0AC
:1037300073FD0298401CC0B20290E44909780298D7
:10374000884200E000E08EDBE14800780D2872D16D
:10375000DC480068DC49401A00F2EA3001220146E8
:103760000190DA4803F058FD002002905EE0D54851
:103770000068D549401A00F2EB300422029902FB9E
:103780000100019001EB0110CD4901EB40001E301A
:1037900001220090019903F03FFDCA480068CA4920
:1037A000401A00F2EB300422029902FB0100401C97
:1037B000019001EB0110C24901EB40001F300122D2
:1037C0000090019903F028FDBE480068BE49401AE8
:1037D00000F2EB300422029902FB0100801C0190F0
:1037E00001EB0110B64901EB4000203001220090AE
:1037F000019903F011FDB3480068B349401A00F283
:10380000EB300422029902FB0100C01C019001EB85
:103810000110AB4901EB40002130012200900199D9
:1038200003F0FAFC0298401CC0B20290A749097844
:10383000029888429BDBA64800780E2872D1A148E6
:103840000068A149401A00F2B240012201460190ED
:103850009E4803F0E1FC002002905EE09948006879
:103860009949401A00F2B3400422029902FB010078
:10387000019001EB0110924901EB40001E30012242
:103880000090019903F0C8FC8E4800688E49401AE8
:1038900000F2B3400422029902FB0100401C019097
:1038A00001EB0110864901EB40001F30012200901E
:1038B000019903F0B1FC834800688349401A00F283
:1038C000B3400422029902FB0100801C019001EB2D
:1038D00001107B4901EB400020300122009001994A
:1038E00003F09AFC774800687749401A00F2B34029
:1038F0000422029902FB0100C01C019001EB01109F
:103900006F4901EB4000213001220090019903F042
:1039100083FC0298401CC0B202906C49097802985E
:1039200088429BDB6B4800780F286DD165480068A2
:103930006949401A801C012201460190634803F046
:103940006BFC002002905AE05E4800686249401A11
:10395000C01C0422029902FB0100019001EB01103E
:10396000574901EB40001E3001220090019903F0FD
:1039700053FC544800685849401AC01C042202995C
:1039800002FB0100401C019001EB01104C4901EBCE
:1039900040001F3001220090019903F03DFC49488E
:1039A00000684D49401AC01C0422029902FB010024
:1039B000801C019001EB0110414901EB40002030D7
:1039C00001220090019903F027FC3E48006842491B
:1039D000401AC01C0422029902FB0100C01C019085
:1039E00001EB0110364901EB40002130012200902B
:1039F000019903F011FC0298401CC0B202903349B7
:103A00000978029888429FDB3248007810287DD1DF
:103A10002C4800683049401ACA3001220146019002
:103A20002A4803F0F9FB002002906AE0254800686C
:103A30002949401ACB300422029902FB010001906F
:103A400001EB01101E4901EB40001E3001220090E5
:103A5000019903F0E1FB1B4800681F49401ACB3075
:103A60000422029902FB0100401C019001EB0110AD
:103A7000134901EB40001F3001220090019903F02F
:103A8000CBFB104800681449401ACB30042202993D
:103A900002FB0100801C019001EB0110084901EBC1
:103AA0004000203001220090019903F0B5FB054849
:103AB00000680949401ACB30042202990EE025E043
:103AC000801B00206800002000350C0075000020DD
:103AD000700000207100002040420F0002FB010036
:103AE000C01C019001EB0110FE4901EB40002130A8
:103AF00001220090019903F08FFB0298401CC0B294
:103B00000290F9490978029888428FDBF7480078DB
:103B1000112872D1F6480068F649401A00F5C970BC
:103B2000012201460190F04803F076FB002002904C
:103B30005EE0EF480068EF49401A00F2931004225B
:103B4000029902FB0100019001EB0110E54901EB34
:103B500040001E3001220090019903F05DFBE44813
:103B60000068E449401A00F293100422029902FB13
:103B70000100401C019001EB0110DA4901EB40000B
:103B80001F3001220090019903F046FBD8480068DD
:103B9000D849401A00F293100422029902FB010056
:103BA000801C01EB01110190CE4800EB4100203058
:103BB00001220090019903F02FFBCD480068CD4908
:103BC000401A00F293100422029902FB0100C01C6B
:103BD000019001EB0110C34901EB400021300122AB
:103BE0000090019903F018FB0298401CC0B20290AB
:103BF000BD490978029888429BDBBC4800781228AE
:103C000072D1BB480068BB49401A00F25A20012219
:103C100001460190B44803F0FFFA002002905EE0F4
:103C2000B3480068B349401A00F25B2004220299AD
:103C300002FB0100019001EB0110AA4901EB4000D9
:103C40001E3001220090019903F0E6FAA8480068AE
:103C5000A849401A00F25B200422029902FB0100ED
:103C6000401C019001EB01109E4901EB40001F3008
:103C700001220090019903F0CFFA9D4800689D4908
:103C8000401A00F25B200422029902FB0100801C12
:103C9000019001EB0110934901EB4000203001221B
:103CA0000090019903F0B8FA914800689149401AD0
:103CB00000F25B200422029902FB0100C01C01906B
:103CC00001EB0110874901EB4000213001220090F7
:103CD000019903F0A1FA0298401CC0B202908249F7
:103CE0000978029888429BDB80480078132872D1BB
:103CF0007F4800687F49401A00F2223001220146C5
:103D00000190794803F088FA002002905EE078483C
:103D100000687849401A00F223300422029902FB1D
:103D20000100019001EB01106E4901EB40001E30D3
:103D300001220090019903F06FFA6D4800686D4907
:103D4000401A00F223300422029902FB0100401CB9
:103D5000019001EB0110634901EB40001F3001228B
:103D60000090019903F058FA614801686148081A07
:103D700000F223300422029902FB0100801C019012
:103D800001EB0110574901EB400020300122009067
:103D9000019903F041FA564800685649401A00F26A
:103DA00023300422029902FB0100C01C019001EBA8
:103DB00001104C4901EB4000213001220090019993
:103DC00003F02AFA0298401CC0B2029046490978D2
:103DD000029888429BDB45480078142872D14448F9
:103DE00000684449401A00F2EA300122014601907D
:103DF0003D4803F011FA002002905EE03C48006864
:103E00003C49401A00F2EB300422029902FB010007
:103E1000019001EB0110334901EB40001E300122FB
:103E20000090019903F0F8F9314800683149401ACF
:103E300000F2EB300422029902FB0100401C0190C9
:103E400001EB0110274901EB40001F3001220090D7
:103E5000019903F0E1F9264800682649401A00F26A
:103E6000EB300422029902FB0100801C019001EB5F
:103E700001101C4901EB4000203001220090019903
:103E800003F0CAF91A4800681A49401A00F2EB30E8
:103E90000422029902FB0100C01C019001EB0110F9
:103EA000104901EB4000213001220090019903F0FC
:103EB000B3F90298401CC0B202900B4909780298ED
:103EC00088429BDB0948007815287DD108480068A6
:103ED0000849401A00F2B24001220146019002480E
:103EE0000AE00000801B0020750000207100002007
:103EF0006800002040420F0003F08EF9002002907D
:103F00005EE0FE480068FE49401A00F2B340042219
:103F1000029902FB0100019001EB0110F94901EB4C
:103F200040001E3001220090019903F075F9F3481A
:103F30000068F349401A00F2B3400422029902FBE0
:103F40000100401C019001EB0110EE4901EB400023
:103F50001F3001220090019903F05EF9E7480068E4
:103F6000E749401A00F2B3400422029902FB010023
:103F7000801C019001EB0110E24901EB4000203070
:103F800001220090019903F047F9DC480068DC4900
:103F9000401A00F2B3400422029902FB0100C01C47
:103FA000019001EB0110D74901EB400021300122C3
:103FB0000090019903F030F90298401CC0B20290C1
:103FC000D1490978029800E001E0884299DB0EBDF2
:103FD00008B5CE480078012855D1C8480068CC49BA
:103FE000401AC01CC8490978042202FB01000122C2
:103FF00001460090C74803F0B2F9C0480068C449C0
:10400000401AC01CC0490978042202FB0100401C70
:10401000012201460090BF48401C03F0A0F9B748B8
:104020000068BB49401AC01CB7490978042202FB4A
:104030000100801C012201460090B648801C03F05C
:104040008EF9AE480068B249401AC01CAE490978E2
:10405000042202FB0100C01C012201460090AD4871
:10406000C01C03F07CF9A8480078401CA6490870E1
:10407000A2480068A649401A801C0122014600900F
:10408000A14803F06CF9A1480078022855D19B485B
:1040900000689F49401ACB309B490978042202FBF3
:1040A00001000122014600909A4803F058F9934814
:1040B00000689749401ACB3093490978042202FBE3
:1040C0000100401C0122014600909248401C03F070
:1040D00046F98A4800688E49401ACB308A490978E7
:1040E000042202FB0100801C012201460090894845
:1040F000801C03F034F9814800688549401ACB30B0
:1041000081490978042202FB0100C01C01220146FA
:1041100000908048C01C03F022F97B480078401CC6
:1041200079490870754800687949401ACA300122F7
:1041300001460090744803F012F97448007803288F
:104140005AD16E4800687249401A00F293106E49C5
:104150000978042202FB01000122014600906D480B
:1041600003F0FDF8654800686949401A00F29310B1
:1041700065490978042202FB0100401C0122014626
:1041800000906448401C03F0EAF85C48006860490D
:10419000401A00F293105C490978042202FB0100E6
:1041A000801C0122014600905A48801C03F0D7F879
:1041B000524800685649401A00F293105249097853
:1041C000042202FB0100C01C01220146009051485C
:1041D000C01C03F0C4F84C480078401C4A490870E1
:1041E000464800684A49401A00F5C9700122014654
:1041F0000090454803F0B3F84448007804285AD1A9
:104200003E4800684249401A00F25B203E49097866
:10421000042202FB01000122014600903D4803F008
:104220009EF8364800683A49401A00F25B20364949
:104230000978042202FB0100401C01220146009083
:104240003448401C03F08BF82C4800683049401A71
:1042500000F25B202C490978042202FB0100801C3B
:104260000122014600902B48801C03F078F8234877
:1042700000682749401A00F25B202349097804228C
:1042800002FB0100C01C0122014600902148C01C15
:1042900003F065F81C480078401C1B49087017485B
:1042A00000681B49401A00F25A2001220146009082
:1042B000154803F054F815480078052868D10F48D0
:1042C00000681349401A00F223300F49097804228C
:1042D00002FB01000122014600900E4803F03FF866
:1042E000064800680A49401A00F223300649097856
:1042F000042202FB0100401C01220DE068000020A6
:1043000040420F00801B0020750000206F0000203D
:10431000C02709005200002001460090FE4803F02B
:104320001EF8FE480068FE49401A00F22330FD499D
:104330000978042202FB0100801C01220146009042
:10434000F548401C03F00BF8F4480068F449401AA3
:1043500000F22330F3490978042202FB0100C01C5B
:10436000012201460090EC48801C02F0F8FFED4865
:104370000078401CEB490870E8480068E849401A9A
:1043800000F22230012201460090E64802F0E7FFE9
:10439000E5480078062855D1E0480068E049401A11
:1043A00000F2EA30012201460090DE4802F0D7FF19
:1043B000DA480068DA49401A00F2EB30D949097846
:1043C000042202FB0100012201460090D248401E57
:1043D00002F0C5FFD1480068D149401A00F2EB3025
:1043E000D0490978042202FB0100401C0122014649
:1043F0000090C94802F0B3FFC8480068C849401A95
:1044000000F2EB30C7490978042202FB0100801C4E
:10441000012201460090C048401C02F0A0FFBF48A6
:104420000068BF49401A00F2EB30BE490978042207
:1044300002FB0100C01C012201460090B648801C0E
:1044400002F08DFFB848007807285AD1B3480068B9
:10445000B349401A00F2B340B2490978042202FB82
:104460000100012201460090AB48401E02F077FF98
:10447000AA480068AA49401A00F2B340A94909783D
:10448000042202FB0100401C012201460090A248C8
:1044900002F065FFA1480068A149401A00F2B3404C
:1044A000A0490978042202FB0100801C0122014678
:1044B00000909948401C02F052FF984800689849C3
:1044C000401A00F2B34097490978042202FB010028
:1044D000C01C0122014600908F48801C02F03FFF63
:1044E00090480078401C8F4908708C4800688C49BF
:1044F000401A00F2B240012201460090894802F0C1
:104500002EFF8A480078082855D1844800688849D9
:10451000401AC01C83490978042202FB01000122D1
:10452000014600907C48401E02F019FF7B4800685D
:104530007F49401AC01C7B490978042202FB010014
:10454000401C012201460090734802F008FF7348A6
:1045500000687749401AC01C72490978042202FB9E
:104560000100801C0122014600906B48401C02F0B3
:10457000F6FE6A4800686E49401AC01C694909780D
:10458000042202FB0100C01C012201460090624887
:10459000801C02F0E4FE63480078401C614908700A
:1045A0005E4800686249401A801C01220146009062
:1045B0005C4802F0D4FE5D480078092855D1574880
:1045C00000685B49401ACB3056490978042202FB47
:1045D00001000122014600904F48401E02F0BFFE3C
:1045E0004E4800685249401ACB304E49097804229F
:1045F00002FB0100401C012201460090464802F0E7
:10460000AEFE464800684A49401ACB304549097811
:10461000042202FB0100801C0122014600903E485A
:10462000401C02F09CFE3D4800684149401ACB30D6
:104630003C490978042202FB0100C01C012201460A
:1046400000903548801C02F08AFE36480078401CF5
:1046500034490870314800683549401ACA3001228F
:10466000014600902F4802F07AFE304800780A2870
:1046700069D12A4800682E49401A00F2931029494E
:104680000978042202FB0100012201460090224821
:10469000401E02F064FE214800682549401A00F2DD
:1046A000931020490978042202FB0100401C0122DA
:1046B00001460090184802F052FE184800681C4954
:1046C000401A00F2931017490978042202FB0100F6
:1046D000801C0122014600900F48401C02F03FFE62
:1046E0000E4800681249401A00F293100D490978EB
:1046F000042202FB0100C01C012201460090064872
:10470000801C02F02CFE07480078401C0549087008
:104710000248006806490DE05300002068000020B0
:10472000C0270900750000206F00002070000020E5
:1047300000350C00401A00F5C970012201460090B6
:10474000FE4802F00CFEFE4800780B285AD1FD48C6
:104750000068FD49401A00F25B20F84909780422FC
:1047600002FB0100012201460090F84802F0F7FD2B
:10477000F4480068F449401A00F25B20EF490978D8
:10478000042202FB0100401C012201460090EF4878
:10479000401C02F0E4FDEB480068EB49401A00F2CF
:1047A0005B20E6490978042202FB0100801C0122FB
:1047B00001460090E548801C02F0D1FDE148006808
:1047C000E149401A00F25B20DC490978042202FB2F
:1047D0000100C01C012201460090DC48C01C02F010
:1047E000BEFDD6480078401CD4490870D548006802
:1047F000D549401A00F25A20012201460090CF48C4
:1048000002F0ADFDCE4800780C285AD1CD480068A2
:10481000CD49401A00F22330C8490978042202FB2E
:104820000100012201460090C84802F098FDC548E9
:104830000068C549401A00F22330C04909780422B3
:1048400002FB0100401C012201460090BF48401CB1
:1048500002F085FDBB480068BB49401A00F22330D6
:10486000B6490978042202FB0100801C012201469E
:104870000090B648801C02F072FDB2480068B24950
:10488000401A00F22330AD490978042202FB0100EE
:10489000C01C012201460090AC48C01C02F05FFD24
:1048A000A6480078401CA5490870A6480068A6499B
:1048B000401A00F222300122014600909F4802F087
:1048C0004EFD9F4800780D285AD19E4800689E49A9
:1048D000401A00F2EB3099490978042202FB0100EA
:1048E000012201460090994802F039FD9548006880
:1048F0009549401A00F2EB3090490978042202FBF6
:104900000100401C0122014600909048401C02F02A
:1049100026FD8C4800688C49401A00F2EB3087492C
:104920000978042202FB0100801C0122014600904C
:104930008648801C02F013FD824800688249401AB4
:1049400000F2EB307D490978042202FB0100C01C13
:104950000122014600907D48C01C02F000FD77480E
:104960000078401C75490870764800687649401AFE
:1049700000F2EA30012201460090704802F0EFFC9C
:104980006F4800780E285AD16E4800686E49401A68
:1049900000F2B34069490978042202FB01000122B8
:1049A00001460090694802F0DAFC664800686649F2
:1049B000401A00F2B34061490978042202FB010069
:1049C000401C0122014600906048401C02F0C7FCD8
:1049D0005C4800685C49401A00F2B34057490978C6
:1049E000042202FB0100801C01220146009057486E
:1049F000801C02F0B4FC534800685349401A00F28E
:104A0000B3404E490978042202FB0100C01C012278
:104A1000014600904D48C01C02F0A1FC47480078B8
:104A2000401C46490870474800684749401A00F250
:104A3000B240012201460090404802F090FC4448F8
:104A400000780F2855D13F4800684249401AC01CE1
:104A50003A490978042202FB010001220146009034
:104A60003A4802F07CFC374800683A49401AC01CBA
:104A700032490978042202FB0100401C0122014650
:104A800000903248401C02F06AFC2E480068314910
:104A9000401AC01C29490978042202FB0100801C2D
:104AA0000122014600902948801C02F058FC25484C
:104AB00000682849401AC01C20490978042202FBDA
:104AC0000100C01C0122014600902048C01C02F0D9
:104AD00046FC1A480078401C1849087019480068BC
:104AE0001C49401A801C012201460090134802F024
:104AF00036FC17480078102863D112480068154921
:104B0000401ACB300D490978042202FB0100012232
:104B1000014600900D4802F022FC0A4800680D4949
:104B2000401ACB3005490978042202FB0100401CE1
:104B30000122014600900548401C0DE07500002050
:104B4000700000206800002000350C00520000209A
:104B50007100002040420F0002F001FCFE48006896
:104B6000FE49401ACB30FE490978042202FB0100BD
:104B7000801C012201460090FA4802F0F0FBF64842
:104B80000068F649401ACB30F5490978042202FB47
:104B90000100C01C012201460090F248401C02F0B6
:104BA000DEFBEF480078401CED490870EA480068D9
:104BB000EA49401ACA30012201460090E84802F052
:104BC000CEFBE948007811285AD1E3480068E34950
:104BD000401A00F29310E2490978042202FB010016
:104BE000012201460090DF48801E02F0B8FBDA483F
:104BF0000068DA49401A00F29310D9490978042272
:104C000002FB0100401C012201460090D548401ED5
:104C100002F0A5FBD0480068D049401A00F293107A
:104C2000CF490978042202FB0100801C01220146C1
:104C30000090CC4802F093FBC7480068C749401A6F
:104C400000F29310C6490978042202FB0100C01C3F
:104C5000012201460090C348401C02F080FBC0487E
:104C60000078401CBE490870BB480068BB49401A28
:104C700000F5C970012201460090B94802F06FFBAF
:104C8000B948007812285AD1B3480068B349401A8D
:104C900000F25B20B2490978042202FB01000122E4
:104CA00001460090AF48801E02F059FBAA480068F8
:104CB000AA49401A00F25B20A9490978042202FBA4
:104CC0000100401C012201460090A648401E02F04F
:104CD00046FBA1480068A149401A00F25B20A049A8
:104CE0000978042202FB0100801C01220146009089
:104CF0009C4802F034FB984800689849401A00F23A
:104D00005B2097490978042202FB0100C01C0122A4
:104D1000014600909348401C02F021FB9048007827
:104D2000401C8F4908708C4800688C49401A00F27A
:104D30005A20012201460090894802F010FB8A485F
:104D4000007813285AD1844800688449401A00F238
:104D5000233083490978042202FB01000122014625
:104D600000908048801E02F0FAFA7B4800687B4978
:104D7000401A00F223307A490978042202FB01002C
:104D8000401C0122014600907648401E02F0E7FADE
:104D9000714800687149401A00F22330704909785F
:104DA000042202FB0100801C0122014600906D4894
:104DB00002F0D5FA684800686849401A00F22330CA
:104DC00067490978042202FB0100C01C0122014648
:104DD00000906448401C02F0C2FA61480078401C10
:104DE0005F4908705C4800685C49401A00F2223054
:104DF0000122014600905A4802F0B1FA5A48007860
:104E000014285AD1544800685449401A00F2EB3033
:104E100053490978042202FB010001220146009057
:104E20005048801E02F09BFA4B4800684B49401ADC
:104E300000F2EB304A490978042202FB0100401CD1
:104E40000122014600904748401E02F088FA42487D
:104E500000684249401A00F2EB30414909780422C7
:104E600002FB0100801C0122014600903D4802F037
:104E700076FA394800683949401A00F2EB3038496F
:104E80000978042202FB0100C01C012201460090A7
:104E90003448401C02F063FA31480078401C304925
:104EA00008702D4800682D49401A00F2EA300122AE
:104EB000014600902A4802F052FA2B480078152843
:104EC00065D1254800682549401A00F2B3402449BD
:104ED0000978042202FB01000122014600902148CA
:104EE000801E02F03CFA1C4800681C49401A00F27F
:104EF000B3401B490978042202FB0100401C012237
:104F0000014600901748401E02F029FA1248006836
:104F10001249401A00F2B34011490978042202FBF9
:104F20000100801C0122014600900E4802F017FA91
:104F3000094800680949401A00F2B3400849097855
:104F4000042202FB0100C01C01220146009005481A
:104F5000401C02F004FA09E06800002040420F0003
:104F600075000020540000207100002008480078DF
:104F7000401C07490870074800680749401A00F2BA
:104F8000B240012201460090014802F0E8F908BD54
:104F9000750000206800002040420F0010B5044654
:104FA00000BF2021F748FDF789F80028F9D0F5481F
:104FB000FDF71AF810BD70B504460D46E1B2F14890
:104FC000FDF70EF800BF4021EE48FDF777F8002806
:104FD000F9D0204670BD00BFEB48008800F02000EB
:104FE0000028F9D0E848001D0088C0F30800704789
:104FF00008B54FF4A060FBF7A7F927208DF8000053
:1050000001208DF8010002208DF8020001208DF8AA
:1050100003006846FBF79DF908BD08B54FF4A06092
:10502000FBF792F926208DF8000001208DF8010091
:105030008DF802008DF803006846FBF78AF908BD79
:1050400008B54FF4A060FBF77FF925208DF800002C
:1050500001208DF8010002208DF8020001208DF85A
:1050600003006846FBF775F908BD00B585B001215E
:105070008804FBF700FD01210820FBF7EFFC4FF44B
:105080008060ADF8100018208DF8130003208DF813
:10509000120004A9BD48FBF725FA4FF40060ADF8F3
:1050A000100004208DF8130003208DF8120004A9CD
:1050B000B648FBF717FA4FF4E13000900020ADF846
:1050C0000400ADF80600ADF80800ADF80C000C20A7
:1050D000ADF80A006946AB48FCF789FE012240F2B0
:1050E0002551A848FCF71BFF4021A648FCF7F3FF19
:1050F0000121A448FCF707FF05B000BD00B585B04D
:1051000001214804FBF7B7FC01210420FBF7A6FCB2
:105110000420ADF8100018208DF8130003208DF83E
:10512000120004A99A48FBF7DDF90820ADF8100039
:1051300004208DF8130003208DF8120004A9944870
:10514000FBF7D0F94FF4E13000900020ADF80400F7
:10515000ADF80600ADF80800ADF80C000C20ADF875
:105160000A0069468B48FCF742FE012240F22551B5
:105170008848FCF7D4FE40218648FCF7ACFF0121AB
:105180008448FCF7C0FE05B000BD00B585B0012124
:1051900044F20500FBF762FC4FF40070ADF810001C
:1051A00018208DF8130003208DF8120004A9784808
:1051B000FBF798F94FF48060ADF8100004208DF8EB
:1051C000130004A97248FBF78DF94FF4E130009009
:1051D0000020ADF80400ADF80600ADF80800ADF809
:1051E0000C000C20ADF80A0069466748FCF7FFFD8B
:1051F000012240F225516448FCF791FE40216248AB
:10520000FCF769FF01216048FCF77DFE05B000BD99
:1052100010B5FFF7BAFFFFF771FFFFF726FFFFF7A3
:105220000FFFFFF7FAFEFFF7E3FE10BD2DE9F04197
:1052300003460D4617464FF0000C29460A2F28D189
:105240003BB9302001F8010B002008702846BDE86A
:10525000F081002B03DA2D2001F8010B5B4242F2B2
:10526000107410E093FBF4F212B9BCF1000F07D0F8
:1052700002F1300001F8010B02FB14334FF0010C76
:105280000A2094FBF0F4002CECDC00200870284687
:10529000DDE7102F4FD143B9302001F8010B01F8A1
:1052A000010B002008702846D1E70A2B0ADA3020CB
:1052B00001F8010B03F1300001F8010B0020087028
:1052C0002846C4E700241DE0641C18464FEAE37832
:1052D00003EB18784FEA2818A3EB08124FEAE3789B
:1052E00003EB18784FEA28130A2A03DA02F1300098
:1052F00001F8010B0A2A05DB0F2A03DC02F1370053
:1053000001F8010B002BDFD1204604EBD0784FEAE7
:105310006808A8F1010608E0AA5DA01B401E285CF1
:10532000A855A01B401E2A54761E002EF4DA002039
:10533000087028468BE700200870284687E70FB4DE
:1053400070B586B005460CA801909DE00B980078DA
:105350005C2826D10B98401C0B9000786E2809D051
:10536000722819D10D212846FCF73AFE0B98401CF3
:105370000B9015E00A212846FCF732FE0B98401CE2
:105380000B900DE00048004000380140000C014047
:1053900000080140004400400B98401C0B9000BFE7
:1053A0006BE00B980078252860D10B98401C0B907F
:1053B000007864281BD0732802D0782851D133E0BC
:1053C000019810C801900BE021782846FCF708FEF0
:1053D00000BF80212846FCF771FE0028F9D0641C2C
:1053E00020780028F0D10B98401C0B903DE00198EC
:1053F00040C801900A2202A93046FFF717FF02AC0D
:105400000BE021782846FCF7EBFD00BF8021284601
:10541000FCF754FE0028F9D0641C20780028F0D155
:105420000B98401C0B9020E0019840C8019010227E
:1054300002A93046FFF7FAFE02AC0BE021782846BD
:10544000FCF7CEFD00BF80212846FCF737FE002880
:10545000F9D0641C20780028F0D10B98401C0B90E8
:1054600003E00B98401C0B9000BF06E00B9810F86F
:10547000011B0B902846FCF7B3FD00BF8021284696
:10548000FCF71CFE0028F9D00B98007800287FF468
:105490005DAF06B070BC5DF814FB000070B504464B
:1054A00008256901F848FBF7CAF800BF00BF2021B2
:1054B000F548FBF7C6F800BF00BF16E004F0800017
:1054C00020B14021F048FBF7BAF803E04021EE4854
:1054D000FBF7B7F82021EC48FBF7B1F800BF20211B
:1054E000E948FBF7AEF86006040E2800A5F10101BB
:1054F000CDB2E3D170BD70B5044608256901E2481C
:10550000FBF79FF82021E048FBF79BF816E004F03A
:10551000800020B14021DC48FBF791F803E04021F6
:10552000D948FBF78EF82021D748FBF788F800BF51
:105530002021D548FBF785F86006040E2800A5F168
:105540000101CDB2E3D170BD70B504460D4605F141
:10555000B001C8B2FFF7CFFF102141EA1410FFF7E6
:10556000CAFF04F00F0141F00100FFF7C4FF70BD56
:1055700070B50646002415E004F1B001C8B2FFF78B
:10558000BAFF0120FFF7B7FF1020FFF7B4FF002597
:1055900004E03046FFF782FF681CC5B2802DF8DBBF
:1055A000601CC4B2082CE7DB70BD70B5002415E0A8
:1055B00004F1B001C8B2FFF79EFF0120FFF79BFF87
:1055C0001020FFF798FF002504E00020FFF766FF9A
:1055D000681CC5B2802DF8DB601CC4B2082CE7DB68
:1055E00070BD70B5044604F1B001C8B2FFF783FF87
:1055F0000120FFF780FF1020FFF77DFF002504E06A
:105600000020FFF74BFF681CC5B2802DF8DB70BD92
:1056100007E040F2375100BF0A00A1F10101FBD1C0
:10562000401E0028F5D1704710B504462046FFF70C
:1056300062FF10BD70B504462546E11704EB1171F9
:105640000911A4EB0111C8B2FFF755FF2546E11778
:1056500004EB117109111031C8B2FFF74CFF70BD96
:1056600010B504462020FFF746FF2046FFF743FF12
:1056700010BD70B505460C462120FFF73CFF2846BB
:10568000FFF739FF2046FFF736FF70BD70B50546BE
:105690000C462220FFF72FFF2846FFF72CFF20465D
:1056A000FFF729FF70BD10B5044644F04000FFF736
:1056B00022FF10BD10B504468120FFF71CFF2046D5
:1056C000FFF719FF10BD10B504468D20FFF713FF3B
:1056D00044F01000FFF70FFF10BD10B5044644F072
:1056E000A000FFF708FF10BD10B5044644F0A40069
:1056F000FFF701FF10BD10B5044644F0A600FFF708
:10570000FAFE10BD10B50446A820FFF7F4FE2046AF
:10571000FFF7F1FE10BD10B5044644F0AE00FFF7F0
:10572000EAFE10BD10B5044644F0B000FFF7E3FEFA
:1057300010BD10B5044644F0C000FFF7DCFE10BDFC
:1057400010B50446D320FFF7D6FE2046FFF7D3FE60
:1057500010BD10B50446D520FFF7CDFE2046FFF75B
:10576000CAFE10BD10B50446D920FFF7C4FE20467E
:10577000FFF7C1FE10BD10B50446DA20FFF7BBFEEF
:1057800044F00200FFF7B7FE10BD10B50446DB2061
:10579000FFF7B1FE2046FFF7AEFE10BD10B5E320C7
:1057A000FFF7A9FE10BD70B505460C4621462846F8
:1057B000FFF7CAFE2046E11704EB5171C910A4EBB4
:1057C000C10201219140CEB2B02101EBE401C8B287
:1057D000FFF791FE102141EA1510FFF78CFE05F04E
:1057E0000F00FFF788FE3046FFF758FE70BD2DE929
:1057F000F04707460C4690461D46DDF820A0E11014
:105800003846FFF7A1FE3E4613E0A146E11704EB40
:105810005171C910A4EBC10201219140C8B2FFF738
:105820003DFEBAF1010F02D13220FFF7F1FE701CEC
:10583000C6B24645E9DDE9103846FFF785FE3E462B
:1058400013E0A946E91705EB5171C910A5EBC10298
:1058500001219140C8B2FFF721FEBAF1010F02D138
:105860000520FFF7D5FE701CC6B24645E9DDBDE850
:10587000F0872DE9F0470446884615464FF00009A9
:105880000026002723E00000000C0140E85D2038DE
:1058900000F0FF097E2C04DD002408F1010000F077
:1058A000FF0841462046FFF74FFE002609E009EBBE
:1058B0004901FA4A02EB4101885DFFF7EFFD701CD8
:1058C000C6B2062EF3DBA01DC4B2781CC7B2E85DD9
:1058D0000028DBD1BDE8F0872DE9F04706460F46EA
:1058E000904600250024A14631E018F80900203830
:1058F000C5B2782E02DD0026781CC7B23946304684
:10590000FFF722FE002407E004EB0511E44A505C97
:10591000FFF7C4FD601CC4B2082CF5DB781CC1B2D3
:105920003046FFF711FE002408E004EB05110831B2
:10593000DB4A505CFFF7B2FD601CC4B2082CF4DBFC
:1059400006F10800C6B209F1010000F0FF0918F8DD
:1059500009000028C9D1BDE8F0872DE9F0470646C7
:105960000D469146002400274FF001084AE000242C
:105970004FF00108762E02DD0026681CC5B22946CC
:105980003046FFF7E1FDB8F1010F19D02946304646
:10599000FFF7DAFD002403E008F10108601CC4B23F
:1059A0000E2CF9DB681CC1B23046FFF7CDFD002498
:1059B00003E008F10108601CC4B20E2CF9DB1CE006
:1059C000781CC7B229463046FFF7BEFD002404E02C
:1059D0000020FFF763FD601CC4B2102CF8DB681CCC
:1059E000C1B23046FFF7B0FD002404E00020FFF70D
:1059F00055FD601CC4B2102CF8DB06F10E00C6B2D7
:105A0000B81CC7B219F807000028B0D1BDE8F0876C
:105A1000F8B506460F461546002427E0285D7F2886
:105A200014DD285D8DF80000601C285C8DF80100F5
:105A300000208DF802006A4639463046FFF78DFF98
:105A400006F10E00C6B2A01CC4B20FE0285D8DF8AE
:105A5000000000208DF801006A4639463046FFF705
:105A60003BFF06F10800C6B2601CC4B2285D0028E6
:105A7000D4D1F8BD2DE9F05F06460F4690461C468E
:105A8000DDF828A04FF0000BE11704EB5171C910AD
:105A9000A4EBC10131B92046E11704EB5171C1F308
:105AA000C70506E02046E11704EB5171C910491CF7
:105AB000CDB23D4614E029463046FFF745FDB146DC
:105AC0000AE059460BF1010B1AF80100FFF7E6FC5A
:105AD00009F1010000F0FF09C145F2DB681CC5B205
