:020000040800F2
:10000000604000204501000881210008832100088C
:100010008F2100089B210008A72100080000000094
:10002000000000000000000000000000B3210008F4
:10003000B521000800000000B7210008B921000820
:100040005F0100085F0100085F0100085F01000810
:100050005F0100085F010008232200083322000826
:100060005F0100083B2200082B2200085F01000806
:100070005F0100085F0100085F0100085F010008E0
:100080005F0100085F0100085F0100085F010008D0
:100090005F0100085F0100085F0100085F010008C0
:1000A0005F010008FD2100085F0100085F010008F2
:1000B0005F0100085F010008052200085F010008D9
:1000C0005F0100085F0100085F0100085F01000890
:1000D0005F010008C1210008C92100085F01000874
:1000E0005F0100085F0100085F0100085F01000870
:1000F0005F0100085F0100085F0100085F01000860
:100100005F0100085F0100085F0100085F0100084F
:100110005F010008D12100081B2200085F010008D0
:100120005F0100085F0100085F0100085F0100082F
:10013000DFF80CD009F0C0FB00480047712100082F
:10014000604000200648804706480047FEE7FEE77B
:10015000FEE7FEE7FEE7FEE7FEE7FEE7FEE7FEE777
:1001600047020008310100080CB500200190009002
:100170006C48006840F480306A49086000BF6948F4
:10018000006800F4003000900198401C0190009835
:1001900018B90198B0F5A06FF1D16248006800F479
:1001A000003010B10120009001E000200090009884
:1001B000012843D15C48006840F010005A490860AB
:1001C0000846006820F0030008600846006840F018
:1001D0000200086053484068524948600846406839
:1001E00048600846406840F48060486008464068BF
:1001F00020F47C1048600846406840F4E8104860ED
:100200000846006840F08070086000BF45480068FC
:1002100000F000700028F9D04248406820F0030048
:10022000404948600846406840F00200486000BF0E
:100230003C48406800F00C000828F9D10CBD10B50E
:10024000FFF792FF10BD10B53648006840F001007E
:1002500034490860084640683449084031494860DC
:1002600008460068324908402E4908600846006880
:1002700020F4802008600846406820F4FE004860B2
:100280004FF41F008860FFF7DAFF4FF00060294944
:10029000086010BD10B5002100200022214B5B68D2
:1002A00003F00C0121B1042906D0082928D107E068
:1002B000214B224C236027E01F4B204C236023E07E
:1002C000184B5B6803F47010164B5B6803F48032C4
:1002D000022303EB904022B9194B4343174C236090
:1002E0000DE0104B5B6803F4003323B1144B434320
:1002F000124C236003E0104B4343104C236003E097
:100300000D4B0E4C236000BF00BF064B5B68C3F370
:1003100003130C4CE15C094B1B68CB40074C23607A
:1003200010BD000000100240002002400000FFF855
:10033000FFFFF6FE08ED00E000127A00000000204A
:1003400000093D000400002031490143314A116099
:10035000704770B5002100230F22C47804B32D4CE0
:10036000246804F4E064C4F5E064210AC1F10403E4
:10037000CA40447804FA03F1847814402143090107
:10038000254C0678A155047804F01F050124AC40E3
:1003900005786D11AD0005F1E025C5F8004109E0D3
:1003A000047804F01F050124AC401C4D067876113A
:1003B00045F8264070BD1A4A0A400243154B1B1FE0
:1003C0001A60704739B1134A121D12680243114B6B
:1003D0001B1D1A6006E00F4A121D126882430D4B66
:1003E0001B1D1A607047042808D14FF0E0210969ED
:1003F00041F004014FF0E022116107E04FF0E021ED
:10040000096921F004014FF0E022116170470000FA
:100410000000FA050CED00E000E400E080E100E0FF
:1004200080FFFF1F10B50446CC48844208D101214B
:10043000042000F02DFB0021042000F029FB46E001
:10044000C748844208D10121082000F021FB002187
:10045000082000F01DFB3AE0C248844208D1012187
:10046000102000F015FB0021102000F011FB2EE001
:10047000BD48844208D10121202000F009FB002161
:10048000202000F005FB22E0B848844208D1012179
:10049000402000F0FDFA0021402000F0F9FA16E0BB
:1004A000B348844208D10121802000F0F1FA0021F4
:1004B000802000F0EDFA0AE0AE48844207D1012125
:1004C000801500F0E5FA0021A01500F0E1FA10BD5A
:1004D00010B50121084600F0DBFA0021012000F0F0
:1004E000D7FA10BD2DE9F041024600250026002074
:1004F00000230024002791F803C00CF00F0591F8A9
:1005000003C00CF0100CBCF1000F03D091F802C036
:100510004CEA050591F800C0BCF1000F31D0146819
:1005200000202BE04FF0010C0CFA00F3B1F800C0F2
:100530000CEA03069E4220D183004FF00F0C0CFA08
:1005400003F7BC4305FA03FC4CEA040491F803C02A
:10055000BCF1280F06D14FF0010C0CFA00FCC2F8D8
:1005600014C00AE091F803C0BCF1480F05D14FF068
:10057000010C0CFA00FCC2F810C0401C0828D1D3B2
:100580001460B1F800C0BCF1FF0F34DD54680020E6
:100590002EE000F1080C4FF0010808FA0CF3B1F856
:1005A00000C00CEA03069E4221D183004FF00F0CDD
:1005B0000CFA03F7BC4305FA03FC4CEA040491F877
:1005C00003C0BCF1280F05D100F1080C08FA0CF8A3
:1005D000C2F8148091F803C0BCF1480F07D100F1B4
:1005E000080C4FF0010808FA0CF8C2F81080401C03
:1005F0000828CED35460BDE8F0814FF6FF7101802A
:10060000022181700421C170704702460020936866
:100610000B400BB1012000E00020704701468868C4
:1006200080B2704702460020D3680B400BB1012016
:1006300000E0002070470146C86880B27047016141
:100640007047416170470AB1016100E04161704744
:10065000C16070474FF480320A43826181618261D8
:1006600082698269704702460020434B18684FF642
:100670008073184040EA021008433F4B18607047EF
:100680003E49C8617047F0B50A46002300240021A6
:10069000002500F00046B6F1004F02D1364EF16958
:1006A00001E0354E7168C0F3034583B200F4401693
:1006B000B6F5401F08D121F070612F4E766826F004
:1006C00070662D4F7E6012E000F48016B6F5801F34
:1006D00006D1032606FA05F4A14341F0706106E055
:1006E000460D360103FA06F6B14341F0706122B1BE
:1006F000460D360103FA06F6314300F00046B6F126
:10070000004F02D11C4EF16101E01B4E7160F0BD43
:1007100030B500228B071C0F0F2303FA04F2164B8F
:1007200008338C1053F824309343134C08348D1045
:1007300044F8253023468C1053F824308C07240FBE
:1007400000FA04F423430C4C08348D1044F825308F
:1007500030BD0A49DC3108607047000000080140E4
:10076000000C01400010014000140140001801403D
:10077000001C014000200140000001400000204218
:10078000DF48006840F00100DD4908600846406825
:10079000DC490840DA49486008460068DA49084000
:1007A000D74908600846006820F4802008600846A1
:1007B000406820F4FE0048604FF41F0088607047D6
:1007C000CF49096821F48031CD4A1160114609688A
:1007D00021F480211160B0F5803F03D0B0F5802F67
:1007E0000ED106E0C649096841F48031C44A11605F
:1007F00007E0C349096841F4A021C14A116000E043
:1008000000BF00BF704710B5014600220023002042
:100810004A11012A02D1BA4C236806E0022A02D109
:10082000B74C236A01E0B64C636A01F01F02012451
:1008300094401C400CB1012000E0002010BD38B5F0
:10084000002000900024002500BF3120FFF7DBFFCF
:1008500005460098401C00900098B0F5A06F01D0AC
:10086000002DF2D03120FFF7CEFF08B1012400E0C7
:100870000024204638BD01460020A14A106820F01F
:10088000F80040EAC10010607047A0490860704756
:10089000024600209A4B586820F47C1042EA01037B
:1008A0001843974B5860704798490866704701464F
:1008B0000020934A506820F00300084350607047BE
:1008C0008F48406800F00C007047014600208C4AB9
:1008D000506820F0F0000843506070470146002047
:1008E000874A506820F4E060084350607047014632
:1008F0000020834A506820F4605040EAC1005060F4
:10090000704729B17E4A527A02437D4B5A7204E005
:100910007B4A527A82437A4B5A7270477B49D8316C
:100920000860704701460020754A506820F4404036
:100930000843506070470021714A20321170704A9C
:1009400082F82010012802D004280AD104E00121F5
:100950006B4A2032117005E00521694A203211707E
:1009600000E000BF00BF70476949086070476449F4
:10097000096A0143624A1162704765494439086057
:10098000704730B500210022002400235C4D6D68C3
:1009900005F00C0121B1042905D0082923D105E077
:1009A0005C4D056022E05B4D05601FE0544D6D68B5
:1009B00005F47012524D6D6805F48034022505EB84
:1009C00092421CB9544D554305600BE04C4D6D6887
:1009D00005F400351DB1504D5543056002E04D4D05
:1009E0005543056002E04B4D056000BF00BF444D1C
:1009F0006D6805F0F0010909484D6B5C0568DD4044
:100A000045603F4D6D6805F4E061090A434D6B5C3C
:100A10004568DD4085603A4D6D6805F46051C90A4E
:100A20003E4D6B5C4568DD40C560354D6D6805F435
:100A30004041890B3A4D6B5CC568B5FBF3F5056128
:100A400030BD29B12E4A526902432D4B5A6104E050
:100A50002B4A526982432A4B5A61704729B1284A6E
:100A600092690243264B9A6104E0254A92698243C7
:100A7000234B9A61704729B1214AD2690243204B26
:100A8000DA6104E01E4AD26982431D4BDA61704785
:100A900029B11B4AD2680243194BDA6004E0184AB4
:100AA000D2688243164BDA60704729B1144A126942
:100AB0000243134B1A6104E0114A12698243104B3E
:100AC0001A61704712494039086070470F49C8647D
:100AD00070470B49C87170470948406A40F0807000
:100AE00007494862704701460020054A92680A405B
:100AF0000AB1012000E00020704701498872704768
:100B0000001002400000FFF8FFFFF6FE0000424226
:100B10008004424200127A0000093D0014000020C7
:100B200024000020002044490860091D0860091DB8
:100B30000860091D086041483F491431086070474A
:100B400000213D498279002A3AD00A46126803689A
:100B50009A430B461A600A1D126803689A430B1DDC
:100B60001A60027911440A6803681A430A60324A1B
:100B70000832126803689A432F4B08331A601A1D13
:100B8000126803689A432C4B0C331A604279102A7E
:100B90000ED11A1F126803681A43274B08331A60D4
:100BA0001A1D126803681A43234B0C331A600DE0B8
:100BB0002149427911440A6803681A430A6005E032
:100BC000027911440A6803689A430A607047002159
:100BD000016001710C21417100218171704716493A
:100BE000103109680143144A103211607047014600
:100BF0000020114A143212680A400AB1012000E0B4
:100C0000002070470C4914310860704701460020ED
:100C10000022094B1B6803EA0102074B14331B68CF
:100C20000B4013B10AB1012000E0002070470249D7
:100C3000143108607047000000040140FFFF0F00FE
:100C400010B50446BE48844208D101218014FFF744
:100C50001FFF0021A014FFF71BFF16E0B9488442D4
:100C600008D101210014FFF720FF00212014FFF715
:100C70001CFF0AE0B448844207D10121C013FFF7EA
:100C800014FF0021E013FFF710FF10BD10B5002284
:100C9000028802F441520B884C8823438C882343FA
:100CA000CC8823430C8923434C8923438C892343D9
:100CB000CC8923431A430280838B4FF2FF74234075
:100CC00083830B8A038210BD2DE9F04F85B0054662
:100CD0000C464FF0000902274FF000084FF0010BBF
:100CE0000026B246A88B4FF240010840A88302209C
:100CF0002884B5F81C90A068022801D100BF38E014
:100D0000A08810B94FF0010B01E04FF0020B8D48A5
:100D1000854200D100E000BF6846FFF732FEDDF8F3
:100D200000A0E088B0F5007F0AD14FEA1A2000EB5E
:100D300080004000A168B0FBF1F0401D86B20BE0DE
:100D40004FEA4B10BAFBF0F000EB80004000A168C6
:100D5000B0FBF1F0401D86B20A20B6FBF0F606F0BB
:100D60000108A6EB0800C0F34F074FF6FF7000EA3A
:100D70000828022F01DBFF2F02DD02274FF00008B9
:100D8000E08840EA080038432884A088A189084305
:100D9000618808432188084340F4006040EA09095B
:100DA000A5F81C9005B0BDE8F08F002101804180BE
:100DB0008180C180018141818181C18107210182BE
:100DC00070470021018041808180C18002218160C3
:100DD00000218181704721B1028842F040020280E7
:100DE00004E002884FF6BF731A400280704721B1B9
:100DF000828B42F48062828304E0828B4FF6FF3361
:100E00001A408283704730B5002400230C1101255D
:100E1000A540ABB21AB185881D43858002E0858864
:100E20009D43858030BD1AB183880B43838002E0E7
:100E300083888B438380704781817047014688890E
:100E400070474FF6FF62914204D0028842F48072EC
:100E5000028004E002884FF6FF631A400280704768
:100E600021B1828842F00402828004E082884FF639
:100E7000FB731A408280704702884FF2FF731A405A
:100E8000028002880A4302807047018841F4805141
:100E90000180704721B1028842F40052028004E0D0
:100EA00002884DF6FF731A40028070470246002008
:100EB000012901D0108B00E0908A70470146088A12
:100EC0007047B1F5804F04D1028842F4804202801D
:100ED00004E002884BF6FF731A4002807047024616
:100EE000002013890B400BB1012000E00020704767
:100EF000CA4302817047F0B5024600200024002357
:100F0000002501F00F070126BE40B4B20B110126E7
:100F10009E40B3B2968806EA03051689264016B1AC
:100F20000DB1012000E00020F0BD10B5002201F05D
:100F30000F040123A3409AB2D343038110BD0000E4
:100F40000030014000380040003C004010B504462D
:100F5000FE48844208D10121C014FFF799FD002109
:100F6000E014FFF795FDC4E0B4F1804F08D10121F2
:100F70000846FFF79AFD00210120FFF796FDB8E033
:100F8000F348844208D101210220FFF78EFD0021A1
:100F90000220FFF78AFDACE0EE48844208D101212F
:100FA0000420FFF782FD00210420FFF77EFDA0E072
:100FB000E948844208D101210820FFF776FD00218D
:100FC0000820FFF772FD94E0E448844208D1012133
:100FD0001020FFF76AFD00211020FFF766FD88E072
:100FE000DF48844208D101212020FFF75EFD002167
:100FF0002020FFF75AFD7CE0DA48844208D1012125
:101000004014FFF745FD00216014FFF741FD70E03B
:10101000D548844209D10121C804FFF739FD0021D8
:101020004FF40020FFF734FD63E0D048844209D13B
:1010300001210805FFF72CFD00214FF48010FFF778
:1010400027FD56E0CA48844209D101214805FFF72F
:101050001FFD00214FF40010FFF71AFD49E0C548BD
:10106000844208D101214020FFF71FFD00214020CC
:10107000FFF71BFD3DE0C048844208D101218020DC
:10108000FFF713FD00218020FFF70FFD31E0BB4883
:10109000844208D101218015FFF707FD0021A0152A
:1010A000FFF703FD25E0B648844209D10121080479
:1010B000FFF7EEFC00214FF48030FFF7E9FC18E069
:1010C000B048844209D101214804FFF7E1FC002126
:1010D0004FF40030FFF7DCFC0BE0AB48844208D152
:1010E00001218804FFF7D4FC00214FF48020FFF792
:1010F000CFFC10BD00220288944B98420ED0994B31
:1011000098420BD0B0F1804F08D0914B984205D057
:10111000904B984202D0904B984204D14FF68F7377
:101120001A404B881A438D4B984207D08C4B9842FB
:1011300004D04FF6FF431A40CB881A4302808B88B5
:1011400083850B880385814B98420BD0854B984251
:1011500008D08B4B984205D08A4B984202D08A4BDC
:10116000984201D10B7A038601238382704770B5C0
:10117000002400220023058C4FF6FE7635400584BE
:10118000028C8388048B4FF68F752C40B51E2C4043
:101190000D882C43751E2A400D892A434D882A4309
:1011A0006A4DA8420BD06F4DA84208D0744DA8429A
:1011B00005D0744DA84202D0734DA84213D14FF60A
:1011C000F7752A404D892A434FF6FB752A408D88D2
:1011D0002A434FF6FF652B404FF6FF552B408D8974
:1011E0002B43CD892B4383800483CD88858602845D
:1011F00070BD70B5002400220023058C4FF6EF76F9
:1012000035400584028C8388048B48F6FF752C409A
:101210004FF6FF452C400D884FF6FF7606EA052570
:101220002C434FF6DF752A400D8906EA05152A433F
:101230004D8806EA05152A43444DA84202D0494D7F
:10124000A8421DD14FF67F752A404D894FF6FF7693
:1012500006EA05152A434FF6BF752A408D8806EA2F
:1012600005152A434FF6FF352B404FF2FF752B40F3
:101270008D8906EA85052B43CD8906EA85052B4332
:1012800083800483CD880587028470BD70B50024F7
:1012900000220023058C4FF6FF6635400584028C42
:1012A0008388848B4FF68F752C404FF6FC752C404D
:1012B0000D882C434FF6FF552A400D894FF6FF76D7
:1012C00006EA05252A434D8806EA05252A431F4DCF
:1012D000A84202D0234DA8421DD14FF2FF752A40EB
:1012E0004D894FF6FF7606EA05252A434FF6FF356E
:1012F0002A408D8806EA05252A434EF6FF752B40C5
:101300004DF6FF752B408D8906EA05152B43CD89D7
:1013100006EA05152B4383808483CD888587028464
:1013200070BD70B5002200230024058C4EF6FF76B8
:1013300035400584038C8488828B48F6FF752A40EB
:101340004FF6FF452A400D8820E00000002C0140A8
:101350000004004000080040000C00400010004065
:101360000014004000340140004C01400050014096
:101370000054014000180040001C004000200040C4
:101380000040014000440140004801404FF6FF7614
:1013900006EA05252A434DF6FF752B400D8906EA1E
:1013A00005352B434D8806EA05352B43FA4DA842F7
:1013B00002D0FA4DA84208D14BF6FF752C408D891A
:1013C0004FF6FF7606EA85152C4384808283CD880C
:1013D000A0F84050038470BD828B4FF2FF331A4057
:1013E0008283828B4FF6FF7303EA01231A438283C1
:1013F0007047F0B50C461546002200210026078CE8
:101400004EF6FF7C07EA0C070784828B018C4FF6AF
:10141000FF7707EA043640F6FF473A404FF6FF777A
:1014200007EA05273A434FF6FF7707EA03373A43BF
:10143000D94FB8420ED0D94FB8420BD0B0F1804F3F
:1014400008D0D74FB84205D0D64FB84202D0D64FB9
:10145000B84206D14DF6FF77394046F480573943FC
:1014600005E047F6FF57394044F4805739438283FB
:101470000184F0BD828B4FF6F3731A408283828B16
:101480000A4382837047F0B50C46154600220021BE
:101490000026078C4FF6FF6C07EA0C070784828B47
:1014A000018C4FF6FF7707EA04264FF60C773A4097
:1014B0004FF6FF7707EA03172F433A43B64FB84278
:1014C0000ED0B64FB8420BD0B0F1804F08D0B44F19
:1014D000B84205D0B34FB84202D0B34FB84206D19C
:1014E0004FF6FF57394046F48077394305E04FF215
:1014F000FF57394044F48077394382830184F0BD3B
:10150000028B4FF2FF331A400283028B4FF6FF73B8
:1015100003EA01231A4302837047F0B50C461546CF
:10152000002200210026078C4FF6EF7C07EA0C070B
:101530000784028B018C4FF6FF7707EA041640F60A
:10154000FF473A404FF6FF7707EA03373A434FF633
:10155000FF7707EA05273A438F4FB8420ED08F4FE7
:10156000B8420BD0B0F1804F08D08D4FB84205D0B3
:101570008C4FB84202D08C4FB84206D14FF6DF777D
:10158000394046F01007394305E04FF65F773940A0
:1015900044F01007394302830184F0BD028B4FF6FB
:1015A000F3731A400283028B0A4302837047F0B53B
:1015B0000C46154600220021068C4FF6FE773E4071
:1015C0000684028B018C4FF60C7632407E1C06EAB4
:1015D00003162E433243704EB0420ED06F4EB042CF
:1015E0000BD0B0F1804F08D06D4EB04205D06D4E9B
:1015F000B04202D06C4EB04206D14FF6FD7631407B
:1016000044F00106314305E04FF6F576314044F0F1
:101610000106314302830184F0BD70B505460C46D6
:101620005D4885420ED05D4885420BD0B5F1804FB4
:1016300008D05B48854205D05A48854202D05A48B6
:10164000854200D100E000BF208850B92389A288DC
:1016500061882846FFF7ABFFE1882846FFF79EFF29
:1016600025E0208804280AD12389A2886188284699
:10167000FFF753FFE1882846FFF742FF17E0208875
:1016800008280AD12389A28861882846FFF7FBFE33
:10169000E1882846FFF7EEFE09E02389A2886188E9
:1016A0002846FFF7A6FEE1882846FFF795FE70BDA5
:1016B0002DE9F04105460C4600260127608808B94F
:1016C000022600E00026A088012801D1022700E0C0
:1016D00001272088A0B92389A28861882846FFF7BE
:1016E00066FFE1882846FFF759FF23893A463146CD
:1016F0002846FFF712FFE1882846FFF701FF13E0B5
:101700002389A28861882846FFF707FFE1882846D9
:10171000FFF7F6FE23893A4631462846FFF747FF92
:10172000E1882846FFF73AFFBDE8F0810A884B8838
:101730001A438B881A43CB881A430B891A434B8967
:101740001A438B891A43A0F8442070474FF6FF7163
:10175000818000210180C180418001727047002199
:10176000018041808180C180018141818181C1816D
:101770007047002101804180012181800021C180CA
:10178000018170470021018041808180C1800181F9
:101790004181818170470000002C014000340140EC
:1017A0000004004000080040000C004021B1028805
:1017B00042F00102028004E002884FF6FE731A40F4
:1017C0000280704731B1B0F8442042F40042A0F8E2
:1017D000442005E0B0F84420C2F30E02A0F84420F3
:1017E00070471AB183890B43838102E083898B435D
:1017F000838170478182704741EA0203A0F8483034
:1018000070471AB183890B43838102E083898B433C
:101810008381704701894FF6F8721140018170474A
:101820000A46002101894FF68F7319401143018147
:10183000704730B504460D4629462046FFF7F0FFB5
:10184000208940F00700208130BD2DE9F041044699
:101850000D4616461F46602D06D13B4601223146F5
:101860002046FFF75AFE05E03B460122314620465E
:10187000FFF79DFE29462046FFF7D2FF208940F062
:1018800007002081BDE8F08130B50C4600210189B8
:10189000C9B24FF6FF7505EA0325154325432943D1
:1018A000018130BD2DE9F04105460E4617469846A8
:1018B000002443463A4631462846FFF7E5FF2C8987
:1018C0004FF6F870044044F007044FF68F70044060
:1018D00044F070042C81BDE8F081F0B504460D465B
:1018E00016461F463B46324629462046FFF7CCFFA8
:1018F000208940F480402081F0BD018582827047BC
:101900000A46002101884FF68F7319401143018068
:101910007047F0B50C4615461E46002100220023F4
:101920000189028B038C4FF6F877394021434FF63B
:10193000FC473A4040F201173A434FF6DD773B400F
:101940004FF6FF7707EA06172F433B4301810283D7
:101950000384F0BD0A460021018B4FF68F731940B6
:101960001143018370470A460021018B48F6FF733B
:1019700019404FF6FF7303EA0223194301837047AE
:101980000A460021818B4FF68F73194011438183E2
:1019900070470A460021818B48F6FF7319404FF6C5
:1019A000FF7303EA022319438183704721B1028840
:1019B00042F08002028004E002884FF67F731A40F2
:1019C0000280704721B1828842F00402828004E0E4
:1019D00082884FF6FB731A408280704721B182885B
:1019E00042F00802828004E082884FF6F7731A40C2
:1019F0008280704721B1828842F00102828004E037
:101A000082884FF6FE731A40828070470A46002192
:101A1000018B4FF6F77319401143018370470A4653
:101A20000021018B4FF2FF7319404FF6FF7303EA59
:101A300002231943018370470A460021818B4FF628
:101A4000F77319401143818370470A460021818B47
:101A50004FF2FF7319404FF6FF7303EA0223194355
:101A6000818370470A460021018B4FF6FB731940B2
:101A70001143018370470A460021018B4FF6FF3363
:101A800019404FF6FF7303EA02231943018370479D
:101A90000A460021818B4FF6FB7319401143818365
:101AA00070470A460021818B4FF6FF3319404FF6ED
:101AB000FF7303EA02231943818370470A4600211A
:101AC000018B4FF67F7319401143018370470A461B
:101AD0000021018BC1F30E014FF6FF7303EA0223CD
:101AE0001943018370470A460021818B4FF67F73AB
:101AF00019401143818370470A460021818BC1F34D
:101B00000E014FF6FF7303EA0223194381837047E6
:101B10000A460021018C4FF6FD73194011430184E0
:101B200070470A460021018C4FF6F77319401143A4
:101B3000018470470A460021018C4FF6DF7319407B
:101B40004FF6FF7303EA02131943018470470A46F4
:101B50000021018C4FF67F7319404FF6FF7303EAA3
:101B600002131943018470470A460021018C4FF685
:101B7000FF5319404FF6FF7303EA02231943018410
:101B800070470A460021018C4FF2FF7319404FF64F
:101B9000FF7303EA02231943018470470A460021B8
:101BA000018C4DF6FF7319404FF6FF7303EA0233C1
:101BB00019430184704730B5002301248C40A3B23F
:101BC000048C9C430484048C02FA01F5ADB22C43CE
:101BD000048430BD30B5002304248C40A3B2048CAF
:101BE0009C430484048C02FA01F5ADB22C430484B6
:101BF00030BD70B50346002000241846183001257A
:101C00008D40ACB21D8CA5431D8409B1082909D1B2
:101C100000EB6100056825F0700505600568154357
:101C200005600EE00D1FC5F34E052844056825F438
:101C3000E045056005684FF6FF7606EA0226354363
:101C4000056070BD21B1028842F00202028004E00A
:101C500002884FF6FD731A400280704721B1028856
:101C600042F00402028004E002884FF6FB731A403F
:101C70000280704721B1828842F08002828004E0B5
:101C800082884FF67F731A408280704702884FF631
:101C9000F7731A40028002880A43028070478288E4
:101CA0004FF68F731A40828082880A438280704781
:101CB00002894FF6F8731A40028102890A430281B1
:101CC000704702894FF67F731A40028102890A43E6
:101CD0000281704781847047818570478186704793
:101CE0000187704781877047A0F8401070470288CD
:101CF0004FF6FF431A40028002880A430280704771
:101D00000146888E70470146088F70470146888FCC
:101D100070470146B1F8400070470146888C704713
:101D20000146088D704702460020138A0B400BB114
:101D3000012000E000207047CA430282704730B59E
:101D40000246002000230024158A05EA0103958934
:101D500005EA010413B10CB1012000E0002030BD00
:101D6000CA4302827047000010B50446FB48844213
:101D700009D101218803FEF78BFE00214FF480403A
:101D8000FEF786FE32E0F648844209D1012148047C
:101D9000FEF78BFE00214FF40030FEF786FE25E0B3
:101DA000F048844209D101218804FEF77EFE00211B
:101DB0004FF48020FEF779FE18E0EB48844209D109
:101DC0000121C804FEF771FE00214FF40020FEF748
:101DD0006CFE0BE0E548844208D101210805FEF7BE
:101DE00064FE00214FF48010FEF75FFE10BD2DE968
:101DF000F04786B005460E460024A24600BFA14625
:101E00000027B08900B100BF2F462C8A4CF6FF7026
:101E10000440F08804432C82AC894EF6F310044051
:101E2000B08831890843718908430443AC81AC8A86
:101E30004FF6FF400440B0890443AC8201A8FEF78E
:101E4000A0FDC648874202D1DDF810A001E0DDF810
:101E50000CA0A88900F4004040B10AEBCA0000EBD6
:101E60000A1031684900B0FBF1F807E00AEBCA003C
:101E700000EB0A1031688900B0FBF1F86420B8FB70
:101E8000F0F004012009642101FB1089A88900F405
:101E9000004040B1322000EBC900B0FBF1F000F08F
:101EA0000700044308E0322000EB09106421B0FB76
:101EB000F1F000F00F0004432C8106B0BDE8F0877C
:101EC0004FF41651016000218180C18001810C21F5
:101ED000418100218181704710B502460020108A9F
:101EE0004FF2FF0318400B884C8823438C88234310
:101EF000CC8823431843108210BD0021018041800B
:101F00008180C180704721B1828942F40052828170
:101F100004E082894DF6FF731A4082817047F0B564
:101F20000346002400260025002040F66A17B94227
:101F300000D100BF1846C1F3421401F01F0601276B
:101F400007FA06F5012C01D10C3004E0022C01D176
:101F5000103000E014301AB107682F43076002E028
:101F60000768AF430760F0BD1AB1838A0B438382D1
:101F700002E0838A8B4383827047028A4FF6F073B4
:101F80001A400282028A0A430282704782894FF213
:101F9000FF731A40828182890A438281704721B18E
:101FA000828942F00202828104E082894FF6FD7349
:101FB0001A4082817047028A4FF6DF731A4002820C
:101FC000028A0A430282704721B1028A42F48042A7
:101FD000028204E0028A4BF6FF731A4002827047C5
:101FE000C1F308028280704701468888C0F3080068
:101FF0007047818941F0010181817047028BD2B223
:102000000283028B42EA012202837047028B02F4B0
:102010007F420283028B0A430283704721B1828A86
:1020200042F02002828204E0828A4FF6DF731A4077
:102030008282704721B1828A42F01002828204E0DB
:10204000828A4FF6EF731A408282704721B1828AEA
:1020500042F00802828204E0828A4FF6F7731A4047
:102060008282704721B1828942F40042828103E07A
:102070008289C2F30E028281704721B1828A42F4C2
:102080000062828204E0828A4FF2FF731A408282E9
:102090007047828A4FF6FB731A408282828A0A4313
:1020A0008282704721B1828A42F00202828204E079
:1020B000828A4FF6FD731A408282704702460020E2
:1020C000B1F5007F00D100BF13880B400BB1012098
:1020D00000E00020704701F40072B2F5007F00D1EB
:1020E00000BFCA430280704770B502460024002337
:1020F0000025002040F66A16B14200D100BFC1F3AE
:10210000421501F01F03012606FA03F3012D02D147
:102110009689334006E0022D02D1168A334001E051
:10212000968A33400C12012606FA04F416883440CD
:1021300013B10CB1012000E0002070BD10B50022E9
:10214000002340F66A14A14200D100BF0A12012404
:102150009440A3B2DC43048010BD0000003801406D
:102160000044004000480040004C00400050004047
:1021700000F0D3F803E000F00DF907F0BEF8FAE73D
:10218000704730A1384803F0FEF800BFFEE737A1E2
:10219000354803F0F8F800BFFEE73DA1324803F0F0
:1021A000F2F800BFFEE742A12F4803F0ECF800BFB1
:1021B000FEE770477047704710B504F046FE10BD4B
:1021C00010B506F033FE10BD10B504F081FB10BD54
:1021D00008B540F225512448FFF786FF48B13D4835
:1021E000FFF702FFC0B200909DF800101E48FFF7F5
:1021F000F7FE40211C48FFF76EFF08BD10B504F044
:10220000D1FF10BD10B501213348FFF798FD18B17B
:1022100001213148FFF7A4FD10BD10B506F0E3FF22
:1022200010BD10B504F0CDFE10BD10B504F0D6FE03
:1022300010BD10B504F0DFFE10BD10B504F0E8FECF
:1022400010BD000048617264204661756C742065A1
:102250007863657074696F6E206F63637572732045
:102260002121210A00000000005000404D656D6FE3
:102270007279204D616E6167652065786365707461
:10228000696F6E206F6363757273202121210A00CC
:10229000427573204661756C74206578636570744F
:1022A000696F6E206F6363757273202121210A00AC
:1022B0005573616765204661756C74206578636548
:1022C0007074696F6E206F636375727320212121B2
:1022D0000A000000003801400008004010B502F07C
:1022E00068FD02F0ABFD02F025FD02F04BFD04F0AD
:1022F000E5FD02F0BAFD04F04FFF41F61F41C72093
:1023000005F04DF841F61F41C72005F004F8002103
:1023100040F2E73005F087F810BD10B504F04EFD2F
:1023200004F0E3FB04F0B9FB02F055FF06F044F9BA
:10233000FFF7D4FF05F056FC05F0EFF800F06CF95C
:1023400004F032F90AA20021084603F059FB06F016
:102350005DFD06F028FF03F0BCF90AA20221182057
:1023600003F04EFB0A4804F05EFD03F0B2F910BD25
:10237000496E697469616C697A6174696F6E202154
:1023800000000000496E697420646F6E65210000D2
:1023900040420F0010B50024FC49522005F0DFFC3C
:1023A000FB490870F9484078F849097840EA01206B
:1023B000F8490880F648007858B90220F4490870B6
:1023C000F54805F0F7FCF2490870F4A1F54802F071
:1023D000DAFFEF48007838B90220ED490870EE487E
:1023E00005F05DFDEA490870E9480078002878D1D9
:1023F000E6484078E549097840EA0120E549088047
:1024000000242AE0E8480068A0F51C40403800EBB2
:1024100084010422E54805F0D1F8E448007804EB93
:102420000411E34A02EB41018877E048417804EB6C
:10243000041002EB4000C177DC48817804EB041003
:1024400002EB400080F82010D848C17804EB04105B
:1024500002EB400080F82110641CD64800788442CA
:10246000D0DB002437E0CC48007804EB0411D04ADC
:1024700002EB4101897F88422CD1C748417804EBA7
:10248000041002EB4000C07F814223D1C248817812
:1024900004EB041002EB400090F82000814219D1B7
:1024A000BD48C17804EB041002EB400090F8210015
:1024B00081420FD1C0A1BB4802F065FFC0A201213B
:1024C0001E2003F06AFA0F21BE48FFF70DFCBE483C
:1024D00004F0A9FC641CB74800788442C3DB0CE01C
:1024E000FFE7BAA201211E2003F057FA0721B548E1
:1024F000FFF7FAFBB64804F096FC10BD38B504208F
:102500000090D920AA4988776A21A948C1775D211E
:1025100080F820104A2180F82110A32180F8401073
:10252000FF2180F84110812180F84210B52180F808
:102530004310E32180F862102D2180F86310ED2113
:1025400080F86410002180F86510362180F884102E
:10255000D42180F8851080F88610022180F8871039
:1025600091480068A0F57A710122684605F0C9F823
:1025700000244CE08C4A1268A2F51C52103A042345
:1025800003FB042104EB0412894B03EB420202F12A
:102590001E00012205F0B5F8834A1268A2F51C520C
:1025A000103A042303FB0422511C04EB0412804B59
:1025B00003EB420202F11F00012205F0A2F87A4A61
:1025C0001268A2F51C52103A042303FB0422911C4A
:1025D00004EB0412764B03EB420202F120000122CD
:1025E00005F08FF8704A1268A2F51C52103A0423C5
:1025F00003FB0422D11C04EB04126D4B03EB4202DB
:1026000002F12100012205F07CF8601CC4B29DF8A3
:1026100000008442AEDB38BD10B563480068A0F509
:102620007A710122634804F0C9FF6A4802886AA1EE
:102630005C4802F0A8FE5F4802786BA1594802F09E
:10264000A2FE00242BE058480068A0F51C4040384A
:1026500000EB84010422554804F0B0FF5348007891
:1026600004EB0411524A02EB410188774F4841784C
:1026700004EB041002EB4000C1774C48817804EB76
:10268000041002EB400080F820104848C17804EBA9
:10269000041002EB400080F82110601CC4B24548D1
:1026A00000788442CFDB10BD70B500BF374952209F
:1026B00005F055FB0028F9D1374805F07BFB34497C
:1026C0000870354805F0EBFB314908700846007882
:1026D00058BBFFF7A1FF3748047814E000250EE04F
:1026E00031480068A0F51C404038324A127800EBAF
:1026F00082010422284805F004F8681CC5B2042DA4
:10270000EEDB601CC4B22B480078401C8442E5DB41
:1027100028480078401C2749087023480068A0F525
:102720007A710122234804F0ECFF70BD10B500203F
:102730003349087048708870C8701B480068A0F55D
:102740007A7101221B4804F039FF00240DE016487D
:102750000068A0F57A70174A127800EB8201042213
:10276000274804F0CEFF601CC4B2124800788442AF
:10277000EDDB00200F4908700B480068A0F57A7166
:1027800001220C4804F0BDFF10BD0000280000200D
:102790004F000020340000202A00002066696E648B
:1027A0000D0A000000500040540000203A000020B4
:1027B000B80200204A0000204F4B210D0A00000003
:1027C0004F4E20000008004020A107004F46460061
:1027D000E09304003C010020464C4153482049440A
:1027E0003A2578200D0A0000464C415348C0EFC3FB
:1027F000E6B5C4BFA8CAFDCEAA25640D0A0D0A001D
:102800003600002010B5FE480068A0F24C410122BD
:10281000FC4804F076FF0020FB490870487088707F
:10282000C8700871487188710024A6E0F4480068F7
:10283000F64A801AF34A12780B2303FB02010122A5
:10284000F34804F05EFFEE480068F04A801AED4A53
:1028500012780B2303FB0200411C0122EC48401CB0
:1028600004F04FFFE6480068E84A801AE54A12780B
:102870000B2303FB0200811C0122E548801C04F0AD
:1028800040FFDF480068E14A801ADE4A12780B23D5
:1028900003FB0200C11C0122DD48C01C04F031FF13
:1028A000D7480068D94A801AD64A12780B2303FB0E
:1028B0000200011D0122D44804F023FFD048006823
:1028C000D24A801ACF4A12780B2303FB0200411D23
:1028D0000122CD48401C04F014FFC9480068CB4ACF
:1028E000801AC84A12780B2303FB0200811D0122C3
:1028F000C548801C04F005FFC1480068C34A801A1F
:10290000C04A12780B2303FB0200C11D0122BE48FE
:10291000C01C04F0F6FEBA480068BC4A801AB94AE6
:1029200012780B2303FB020000F108010122B648D4
:10293000001D04F0E6FEB2480068B44A801AB14AAD
:1029400012780B2303FB020000F109010122AE48BB
:10295000401D04F0D6FEAA480068AC4A801AA94A75
:1029600012780B2303FB020000F10A010122A648A2
:10297000801D04F0C6FE601CC4B2142CFFF656AFD6
:1029800010BD0EB5A348007801286DD19C480068A1
:10299000A149401A801C0122014601909F4804F081
:1029A0000DFE002002905AE0954800689A49401AAE
:1029B000C01C0422029902FB0100019001EB0110EE
:1029C000974901EB40001E3001220090019904F06C
:1029D000F5FD8B4800689049401AC01C04220299FA
:1029E00002FB0100401C019001EB01108C4901EB3E
:1029F00040001F3001220090019904F0DFFD804863
:102A000000688549401AC01C0422029902FB01009B
:102A1000801C019001EB0110814901EB4000203046
:102A200001220090019904F0C9FD754800687A49B7
:102A3000401AC01C0422029902FB0100C01C019034
:102A400001EB0110764901EB40002130012200909A
:102A5000019904F0B3FD0298401CC0B202906F4986
:102A60000978029888429FDB6A48007802286DD175
:102A7000634800686849401ACA3001220146019043
:102A8000664804F09BFD002002905AE05C48016813
:102A90006148081ACB300422029902FB0100019020
:102AA00001EB01105E4901EB40001E300122009055
:102AB000019904F083FD524800685749401ACB3011
:102AC0000422029902FB0100401C019001EB01105D
:102AD000534901EB40001F3001220090019904F09E
:102AE0006DFD474800684C49401ACB3004220299DA
:102AF00002FB0100801C019001EB0110484901EB31
:102B00004000203001220090019904F057FD3C481C
:102B100000684149401ACB300422029902FB0100AF
:102B2000C01C019001EB01103D4901EB4000213038
:102B300001220090019904F041FD0298401CC0B2AE
:102B4000029036490978029888429FDB3148007824
:102B5000032867D12A4800682F49401A00F5C97038
:102B60000122014601902D4804F028FD002002902A
:102B700072E0234800682849401A00F293100422AA
:102B8000029902FB0100019001EB0110244901EBC5
:102B900040001E3001220090019904F00FFD1848FA
:102BA00000681D49401A00F293100422029902FBAA
:102BB0000100401C019001EB0110194901EB40009C
:102BC0001F3001220090019904F0F8FC0C480068C5
:102BD0001149401A00F293100422029902FB0100ED
:102BE000801C019001EB01100D4901EB40002030E9
:102BF00001220090019904F0E1FC0148006812E014
:102C000054000020500000206200002040420F00CD
:102C10003E0000205B000020C0270900610000206A
:102C2000481D00201DE0FE49401A00F293100422C6
:102C3000029902FB0100C01C019001EB0110F9494F
:102C400001EB4000213001220090019904F0B6FC14
:102C50000298401CC0B20290F34909780298884259
:102C600087DBF2480078042872D1F1480068EC490B
:102C7000401A00F25A20012201460190EA4804F06D
:102C80009DFC002002905EE0E9480068E449401A9B
:102C900000F25B200422029902FB0100019001EB8B
:102CA0000110E04901EB40001E3001220090019923
:102CB00004F084FCDE480068D949401A00F25B2029
:102CC0000422029902FB0100401C019001EB01105B
:102CD000D44901EB40001F3001220090019904F01B
:102CE0006DFCD3480068CE49401A00F25B200422F4
:102CF000029902FB0100801C019001EB0110C949FF
:102D000001EB4000203001220090019904F056FCB4
:102D1000C7480068C249401A00F25B2004220299A9
:102D200002FB0100C01C019001EB0110BD4901EB49
:102D30004000213001220090019904F03FFC0298EC
:102D4000401CC0B20290B8490978029888429BDBC7
:102D5000B6480078052872D1B5480068B049401AD5
:102D600000F22230012201460190AF4804F026FC17
:102D7000002002905EE0AE480068A949401A00F2C7
:102D800023300422029902FB0100019001EB0110A3
:102D9000A44901EB40001E3001220090019904F08B
:102DA0000DFCA34800689E49401A00F2233004221B
:102DB000029902FB0100401C019001EB01109949AE
:102DC00001EB40001F3001220090019904F0F6FB56
:102DD000974800689249401A00F223300422029971
:102DE00002FB0100801C019001EB01108D4901EBF9
:102DF0004000203001220090019904F0DFFB8C4854
:102E000000688749401A00F223300422029902FB2D
:102E10000100C01C019001EB0110824901EB400050
:102E2000213001220090019904F0C8FB0298401C57
:102E3000C0B202907C490978029888429BDB7B48AB
:102E40000078062872D17A4800687549401A00F265
:102E5000EA30012201460190734804F0AFFB0020E4
:102E600002905EE0724800686D49401A00F2EB3053
:102E70000422029902FB0100019001EB0110694953
:102E800001EB40001E3001220090019904F096FBF6
:102E9000674800686249401A00F2EB300422029948
:102EA00002FB0100401C019001EB01105D4901EBA8
:102EB00040001F3001220090019904F07FFB5C4824
:102EC00000685749401A00F2EB300422029902FBD5
:102ED0000100801C019001EB0110524901EB400000
:102EE000203001220090019904F068FB50480068EE
:102EF0004B49401A00F2EB300422029902FB010018
:102F0000C01C019001EB0110464901EB400021304B
:102F100001220090019904F051FB0298401CC0B2BC
:102F2000029041490978029888429BDB3F4800782B
:102F3000072872D13E4800683949401A00F2B24071
:102F4000012201460190384804F038FB002002902D
:102F50005EE0374800683249401A00F2B34004226C
:102F6000029902FB010001EB011101902D4800EBD9
:102F700041001E3001220090019904F01FFB2C48F3
:102F800000682749401A00F2B3400422029902FB6C
:102F90000100401C019001EB0110224901EB4000AF
:102FA0001F3001220090019904F008FB20480068BE
:102FB0001B49401A00F2B3400422029902FB0100AF
:102FC000801C019001EB0110164901EB40002030FC
:102FD00001220090019904F0F1FA154800681049A7
:102FE000401A00F2B3400422029902FB0100C01C07
:102FF000019001EB01100B4901EB4000213001224F
:103000000090019904F0DAFA0298401CC0B20290D4
:1030100005490978029888429BDB064800780BE056
:10302000C0270900481D0020610000205B0000202F
:10303000540000205C00002008286DD1FE48006884
:10304000FE49401A801C012201460190FC4804F010
:10305000B5FA002002905AE0F7480068F749401A94
:10306000C01C0422029902FB010001EB0111019036
:10307000F44800EB41001E3001220090019904F059
:103080009DFAED480068ED49401AC01C04220299DF
:1030900002FB0100401C019001EB0110E94901EB2A
:1030A00040001F3001220090019904F087FAE248A5
:1030B0000068E249401AC01C0422029902FB010088
:1030C000801C019001EB0110DE4901EB4000203033
:1030D00001220090019904F071FAD7480068D7499D
:1030E000401AC01C0422029902FB0100C01C01907E
:1030F00001EB0110D34901EB400021300122009087
:10310000019904F05BFA0298401CC0B20290CC49CD
:103110000978029888429FDBCB48007809286DD156
:10312000C5480068C549401ACA30012201460190CD
:10313000C34804F043FA002002905AE0BE480068F9
:10314000BE49401ACB300422029902FB01000190D3
:1031500001EB0110BB4901EB40001E300122009041
:10316000019904F02BFAB4480068B449401ACB30F6
:103170000422029902FB0100401C019001EB0110A6
:10318000B04901EB40001F3001220090019904F08A
:1031900015FAA9480068A949401ACB3004220299BF
:1031A00002FB0100801C019001EB0110A54901EB1D
:1031B0004000203001220090019904F0FFF99E4860
:1031C00000689E49401ACB300422029902FB01009C
:1031D000C01C019001EB01109A4901EB4000213025
:1031E00001220090019904F0E9F90298401CC0B254
:1031F000029093490978029888429FDB92480078B0
:103200000A2872D18C4800688C49401A00F5C970B0
:103210000122014601908A4804F0D0F90020029072
:103220005EE0854800688549401A00F29310042248
:10323000029902FB010001EB01110190814800EBB2
:1032400041001E3001220090019904F0B7F97A483C
:1032500000687A49401A00F293100422029902FB96
:103260000100401C019001EB0110764901EB400088
:103270001F3001220090019904F0A0F96E48006807
:103280006E49401A00F293100422029902FB0100D9
:10329000801C019001EB01106A4901EB40002030D5
:1032A00001220090019904F089F96348006863499C
:1032B000401A00F293100422029902FB0100C01C84
:1032C000019001EB01105F4901EB40002130012228
:1032D0000090019904F072F90298401CC0B202906B
:1032E00057490978029888429BDB574800780B2899
:1032F00072D1514800685149401A00F25A20012207
:10330000014601904E4804F059F9002002905EE019
:10331000494800684949401A00F25B20042202999A
:1033200002FB010001EB01110190464800EB410056
:103330001E3001220090019904F040F93E480068D7
:103340003E49401A00F25B200422029902FB010070
:10335000401C019001EB01103A4901EB40001F3085
:1033600001220090019904F029F93348006833499B
:10337000401A00F25B200422029902FB0100801C2B
:10338000019001EB01102F4901EB40002030012298
:103390000090019904F012F9274800682749401A63
:1033A00000F25B200422029902FB0100C01C019084
:1033B00001EB0110234901EB400021300122009074
:1033C000019904F0FBF80298401CC0B202901C491D
:1033D0000978029888429BDB1B4800780C287FD133
:1033E000154800681549401A00F2223001220146B2
:1033F0000190134804F0E2F80020029069E00E48C2
:1034000000680E49401A00F223300422029902FBA0
:103410000100019001EB01100A4901EB40001E3050
:1034200001220090019904F0C9F80348006803499B
:10343000401A00F2233009E05400002000350C004F
:1034400061000020481D00205C0000200422029939
:1034500002FB0100401C019001EB0110FE4901EB51
:1034600040001F3001220090019904F0A7F8FB48AA
:103470000068FB49401A00F223300422029902FB43
:103480000100801C019001EB0110F34901EB4000A9
:10349000203001220090019904F090F8EF48006874
:1034A000EF49401A00F223300422029902FB010086
:1034B000C01C019001EB0110E74901EB40002130F5
:1034C00001220090019904F079F80298401CC0B2E2
:1034D0000290E44909780298884200E000E08EDB1F
:1034E000E14800780D2872D1DC480068DC49401AB8
:1034F00000F2EA30012201460190DA4804F05EF859
:10350000002002905EE0D5480068D549401A00F2DC
:10351000EB300422029902FB0100019001EB011043
:10352000CD4901EB40001E3001220090019904F0CA
:1035300045F8CA480068CA49401A00F2EB30042234
:10354000029902FB0100401C019001EB0110C249ED
:1035500001EB40001F3001220090019904F02EF889
:10356000BE480068BE49401A00F2EB3004220299BE
:1035700002FB0100801C019001EB0110B64901EB38
:103580004000203001220090019904F017F8B34860
:103590000068B349401A00F2EB300422029902FBA2
:1035A0000100C01C019001EB0110AB4901EB400090
:1035B000213001220090019904F000F80298401C8B
:1035C000C0B20290A7490978029888429BDBA648BE
:1035D00000780E2872D1A1480068A149401A00F273
:1035E000B2400122014601909E4803F0E7FF00200F
:1035F00002905EE0994800689949401A00F2B34091
:103600000422029902FB0100019001EB0110924992
:1036100001EB40001E3001220090019903F0CEFF23
:103620008E4800688E49401A00F2B3400422029985
:1036300002FB0100401C019001EB0110864901EBE7
:1036400040001F3001220090019903F0B7FF83482A
:1036500000688349401A00F2B3400422029902FB39
:103660000100801C019001EB01107B4901EB40003F
:10367000203001220090019903F0A0FF77480068F4
:103680007749401A00F2B3400422029902FB01007C
:10369000C01C019001EB01106F4901EB400021308B
:1036A00001220090019903F089FF0298401CC0B2EA
:1036B00002906C490978029888429BDB6B4800783D
:1036C0000F286DD1654800686949401A801C0122A5
:1036D00001460190634803F071FF002002905AE018
:1036E0005E4800686249401AC01C0422029902FB2D
:1036F0000100019001EB0110574901EB40001E3021
:1037000001220090019903F059FF5448006858497C
:10371000401AC01C0422029902FB0100401C0190C7
:1037200001EB01104C4901EB40001F3001220090D9
:10373000019903F043FF494800684D49401AC01CF5
:103740000422029902FB0100801C019001EB011090
:10375000414901EB4000203001220090019903F023
:103760002DFF3E4800684249401AC01C04220299BD
:1037700002FB0100C01C019001EB0110364901EB76
:103780004000213001220090019903F017FF0298B8
:10379000401CC0B2029033490978029888429FDBEE
:1037A0003248007810287DD12C4800683049401AF2
:1037B000CA300122014601902A4803F0FFFE002092
:1037C00002906AE0254800682949401ACB3004225B
:1037D000029902FB0100019001EB01101E4901EB6F
:1037E00040001E3001220090019903F0E7FE1B48C3
:1037F00000681F49401ACB300422029902FB0100E5
:10380000401C019001EB0110134901EB40001F30F7
:1038100001220090019903F0D1FE1048006814497C
:10382000401ACB300422029902FB0100801C019057
:1038300001EB0110084901EB40002030012200900B
:10384000019903F0BBFE054800680949401ACB30D6
:10385000042202990EE025E0481D002054000020BB
:1038600000350C00610000205C0000205D0000209D
:1038700040420F0002FB0100C01C019001EB01104F
:10388000FE4901EB4000213001220090019903F034
:1038900095FE0298401CC0B20290F949097802983E
:1038A00088428FDBF7480078112872D1F64800680B
:1038B000F649401A00F5C970012201460190F0480E
:1038C00003F07CFE002002905EE0EF480068EF49C4
:1038D000401A00F293100422029902FB01000190A9
:1038E00001EB0110E54901EB40001E300122009080
:1038F000019903F063FEE4480068E449401A00F2CD
:1039000093100422029902FB0100401C019001EB7C
:103910000110DA4901EB40001F30012200900199AB
:1039200003F04CFED8480068D849401A00F29310C2
:103930000422029902FB0100801C01EB011101909D
:10394000CE4800EB4100203001220090019903F0A5
:1039500035FECD480068CD49401A00F2931004228C
:10396000029902FB0100C01C019001EB0110C34948
:1039700001EB4000213001220090019903F01EFE6E
:103980000298401CC0B20290BD4909780298884252
:103990009BDBBC480078122872D1BB480068BB4949
:1039A000401A00F25A20012201460190B44803F067
:1039B00005FE002002905EE0B3480068B349401A5B
:1039C00000F25B200422029902FB0100019001EB4E
:1039D0000110AA4901EB40001E300122009001991C
:1039E00003F0ECFDA8480068A849401A00F25B20EB
:1039F0000422029902FB0100401C019001EB01101E
:103A00009E4901EB40001F3001220090019903F014
:103A1000D5FD9D4800689D49401A00F25B200422B4
:103A2000029902FB0100801C019001EB01109349F7
:103A300001EB4000203001220090019903F0BEFD0F
:103A4000914800689149401A00F25B2004220299D3
:103A500002FB0100C01C019001EB0110874901EB42
:103A60004000213001220090019903F0A7FD029847
:103A7000401CC0B2029082490978029888429BDBC0
:103A800080480078132872D17F4800687F49401A27
:103A900000F22230012201460190794803F08EFDA8
:103AA000002002905EE0784800687849401A00F2F1
:103AB00023300422029902FB0100019001EB011066
:103AC0006E4901EB40001E3001220090019903F085
:103AD00075FD6D4800686D49401A00F223300422DC
:103AE000029902FB0100401C019001EB01106349A7
:103AF00001EB40001F3001220090019903F05EFDB0
:103B0000614801686148081A00F2233004220299D2
:103B100002FB0100801C019001EB0110574901EBF1
:103B20004000203001220090019903F047FD5648E3
:103B300000685649401A00F223300422029902FB21
:103B40000100C01C019001EB01104C4901EB400049
:103B5000213001220090019903F030FD0298401CB1
:103B6000C0B2029046490978029888429BDB4548DA
:103B70000078142872D1444800684449401A00F281
:103B8000EA300122014601903D4803F017FD002074
:103B900002905EE03C4800683C49401A00F2EB307D
:103BA0000422029902FB0100019001EB011033494C
:103BB00001EB40001E3001220090019903F0FEFC51
:103BC000314800683149401A00F2EB300422029972
:103BD00002FB0100401C019001EB0110274901EBA1
:103BE00040001F3001220090019903F0E7FC2648B5
:103BF00000682649401A00F2EB300422029902FBC9
:103C00000100801C019001EB01101C4901EB4000F8
:103C1000203001220090019903F0D0FC1A4800687E
:103C20001A49401A00F2EB300422029902FB01000B
:103C3000C01C019001EB0110104901EB4000213044
:103C400001220090019903F0B9FC0298401CC0B217
:103C500002900B490978029888429BDB094800785A
:103C600015287DD1084800680849401A00F2B24082
:103C700001220146019002480AE00000481D002090
:103C8000610000205D0000205400002040420F0031
:103C900003F094FC002002905EE0FE480068FE49BC
:103CA000401A00F2B3400422029902FB0100019085
:103CB00001EB0110F94901EB40001E300122009098
:103CC000019903F07BFCF3480068F349401A00F2C5
:103CD000B3400422029902FB0100401C019001EB59
:103CE0000110EE4901EB40001F30012200900199C4
:103CF00003F064FCE7480068E749401A00F2B3406B
:103D00000422029902FB0100801C019001EB0110CA
:103D1000E24901EB4000203001220090019903F0BC
:103D20004DFCDC480068DC49401A00F2B340042234
:103D3000029902FB0100C01C019001EB0110D74960
:103D400001EB4000213001220090019903F036FC84
:103D50000298401CC0B20290D1490978029800E054
:103D600001E0884299DB0EBD08B5CE4800780128F5
:103D700055D1C8480068CC49401AC01CC8490978C8
:103D8000042202FB0100012201460090C74803F013
:103D9000B8FCC0480068C449401AC01CC049097832
:103DA000042202FB0100401C012201460090BF4892
:103DB000401C03F0A6FCB7480068BB49401AC01C71
:103DC000B7490978042202FB0100801C0122014648
:103DD0000090B648801C03F094FCAE480068B249DD
:103DE000401AC01CAE490978042202FB0100C01C25
:103DF000012201460090AD48C01C03F082FCA84897
:103E00000078401CA6490870A2480068A649401ADC
:103E1000801C012201460090A14803F072FCA148D9
:103E20000078022855D19B4800689F49401ACB3042
:103E30009B490978042202FB0100012201460090FF
:103E40009A4803F05EFC934800689749401ACB30CB
:103E500093490978042202FB0100401C012201461B
:103E600000909248401C03F04CFC8A4800688E4940
:103E7000401ACB308A490978042202FB0100801CD9
:103E80000122014600908948801C03F03AFC8148D9
:103E900000688549401ACB3081490978042202FB29
:103EA0000100C01C0122014600908048C01C03F0A4
:103EB00028FC7B480078401C7949087075480068E8
:103EC0007949401ACA30012201460090744803F033
:103ED00018FC7448007803285AD16E48006872496B
:103EE000401A00F293106E490978042202FB010087
:103EF0000122014600906D4803F003FC654800680C
:103F00006949401A00F2931065490978042202FBBE
:103F10000100401C0122014600906448401C03F04F
:103F2000F0FB5C4800686049401A00F293105C495D
:103F30000978042202FB0100801C01220146009046
:103F40005A48801C03F0DDFB524800685649401A6D
:103F500000F2931052490978042202FB0100C01CB0
:103F60000122014600905148C01C03F0CAFB4C4896
:103F70000078401C4A490870464800684A49401A7F
:103F800000F5C970012201460090454803F0B9FBD5
:103F90004448007804285AD13E4800684249401AF3
:103FA00000F25B203E490978042202FB0100012255
:103FB000014600903D4803F0A4FB364800683A49AA
:103FC000401A00F25B2036490978042202FB010006
:103FD000401C0122014600903448401C03F091FB34
:103FE0002C4800683049401A00F25B202C490978BF
:103FF000042202FB0100801C0122014600902B4894
:10400000801C03F07EFB234800682749401A00F219
:104010005B2023490978042202FB0100C01C012215
:10402000014600902148C01C03F06BFB1C4800783F
:10403000401C1B490870174800681B49401A00F2D1
:104040005A20012201460090154803F05AFB1548FA
:104050000078052868D10F4800681349401A00F21B
:1040600023300F490978042202FB01000122014696
:1040700000900E4803F045FB064800680A49401AC4
:1040800000F2233006490978042202FB0100401C9B
:1040900001220DE05400002040420F00481D002086
:1040A000610000205B000020C02709003E000020C6
:1040B00001460090FE4803F024FBFE480068FE49DC
:1040C000401A00F22330FD490978042202FB010066
:1040D000801C012201460090F548401C03F011FBB2
:1040E000F4480068F449401A00F22330F349097893
:1040F000042202FB0100C01C012201460090EC4892
:10410000801C03F0FEFAED480078401CEB49087073
:10411000E8480068E849401A00F2223001220146CE
:104120000090E64803F0EDFAE5480078062855D1FE
:10413000E0480068E049401A00F2EA3001220146F6
:104140000090DE4803F0DDFADA480068DA49401AE8
:1041500000F2EB30D9490978042202FB0100012268
:1041600001460090D248401E03F0CBFAD1480068C7
:10417000D149401A00F2EB30D0490978042202FB01
:104180000100401C012201460090C94803F0B9FA21
:10419000C8480068C849401A00F2EB30C74909789E
:1041A000042202FB0100801C012201460090C0484D
:1041B000401C03F0A6FABF480068BF49401A00F24D
:1041C000EB30BE490978042202FB0100C01C012229
:1041D00001460090B648801C03F093FAB848007876
:1041E00007285AD1B3480068B349401A00F2B340D7
:1041F000B2490978042202FB010001220146009025
:10420000AB48401E03F07DFAAA480068AA49401A4C
:1042100000F2B340A9490978042202FB0100401CC6
:10422000012201460090A24803F06BFAA148006801
:10423000A149401A00F2B340A0490978042202FBC8
:104240000100801C0122014600909948401C03F0A7
:1042500058FA984800689849401A00F2B3409749C4
:104260000978042202FB0100C01C012201460090D3
:104270008F48801C03F045FA90480078401C8F4915
:1042800008708C4800688C49401A00F2B240012244
:1042900001460090894803F034FA8A4800780828DB
:1042A00055D1844800688849401AC01C8349097860
:1042B000042202FB01000122014600907C48401EBE
:1042C00003F01FFA7B4800687F49401AC01C7B49F5
:1042D0000978042202FB0100401C012201460090E3
:1042E000734803F00EFA734800687749401AC01CFF
:1042F00072490978042202FB0100801C0122014658
:1043000000906B48401C03F0FCF96A4800686E4955
:10431000401AC01C69490978042202FB0100C01C34
:104320000122014600906248801C03F0EAF96348CC
:104330000078401C614908705E4800686249401A74
:10434000801C0122014600905C4803F0DAF95D48C8
:104350000078092855D1574800685B49401ACB308E
:1043600056490978042202FB01000122014600900F
:104370004F48401E03F0C5F94E4800685249401AA4
:10438000CB304E490978042202FB0100401C012277
:1043900001460090464803F0B4F9464800684A498F
:1043A000401ACB3045490978042202FB0100801CE9
:1043B0000122014600903E48401C03F0A2F93D480E
:1043C00000684149401ACB303C490978042202FB7D
:1043D0000100C01C0122014600903548801C03F0FA
:1043E00090F936480078401C34490870314800681C
:1043F0003549401ACA300122014600902F4803F087
:1044000080F9304800780A2869D12A4800682E4986
:10441000401A00F2931029490978042202FB010096
:104420000122014600902248401E03F06AF921480B
:1044300000682549401A00F29310204909780422A7
:1044400002FB0100401C012201460090184803F0C5
:1044500058F9184800681C49401A00F2931017498F
:104460000978042202FB0100801C01220146009011
:104470000F48401C03F045F90E4800681249401AE5
:1044800000F293100D490978042202FB0100C01CC0
:104490000122014600900648801C03F032F90748CB
:1044A0000078401C054908700248006806490DE084
:1044B0003F00002054000020C027090061000020B8
:1044C0005B0000205C00002000350C00401A00F565
:1044D000C970012201460090FE4803F012F9FE481F
:1044E00000780B285AD1FD480068FD49401A00F2B7
:1044F0005B20F8490978042202FB010001220146F1
:104500000090F84803F0FDF8F4480068F449401AB8
:1045100000F25B20EF490978042202FB0100401CF5
:10452000012201460090EF48401C03F0EAF8EB48F6
:104530000068EB49401A00F25B20E6490978042242
:1045400002FB0100801C012201460090E548801C0E
:1045500003F0D7F8E1480068E149401A00F25B2017
:10456000DC490978042202FB0100C01C012201463B
:104570000090DC48C01C03F0C4F8D6480078401C0A
:10458000D4490870D5480068D549401A00F25A202D
:10459000012201460090CF4803F0B3F8CE480078DE
:1045A0000C285AD1CD480068CD49401A00F223307A
:1045B000C8490978042202FB01000122014600904B
:1045C000C84803F09EF8C5480068C549401A00F283
:1045D0002330C0490978042202FB0100401C01225B
:1045E00001460090BF48401C03F08BF8BB480068B0
:1045F000BB49401A00F22330B6490978042202FB75
:104600000100801C012201460090B648801C03F086
:1046100078F8B2480068B249401A00F22330AD4938
:104620000978042202FB0100C01C0122014600900F
:10463000AC48C01C03F065F8A6480078401CA549AA
:104640000870A6480068A649401A00F222300122EC
:10465000014600909F4803F054F89F4800780D28C9
:104660005AD19E4800689E49401A00F2EB309949A1
:104670000978042202FB01000122014600909948BA
:1046800003F03FF8954800689549401A00F2EB3076
:1046900090490978042202FB0100401C01220146D6
:1046A00000909048401C03F02CF88C4800688C491E
:1046B000401A00F2EB3087490978042202FB01001E
:1046C000801C0122014600908648801C03F019F8E6
:1046D000824800688249401A00F2EB307D4909782F
:1046E000042202FB0100C01C0122014600907D480B
:1046F000C01C03F006F877480078401C7549087024
:10470000764800687649401A00F2EA3001220146F4
:104710000090704802F0F5FF6F4800780E285AD1DB
:104720006E4800686E49401A00F2B3406949097842
:10473000042202FB0100012201460090694802F0B8
:10474000E0FF664800686649401A00F2B3406149DC
:104750000978042202FB0100401C0122014600905E
:104760006048401C02F0CDFF5C4800685C49401A7C
:1047700000F2B34057490978042202FB0100801C73
:104780000122014600905748801C02F0BAFF5348AE
:1047900000685349401A00F2B3404E490978042298
:1047A00002FB0100C01C0122014600904D48C01CC4
:1047B00002F0A7FF47480078401C46490870474868
:1047C00000684749401A00F2B240012201460090B9
:1047D000404802F096FF444800780F2855D13F48E2
:1047E00000684249401AC01C3A490978042202FB79
:1047F00001000122014600903A4802F082FF37484A
:1048000000683A49401AC01C32490978042202FB68
:104810000100401C0122014600903248401C02F079
:1048200070FF2E4800683149401AC01C2949097898
:10483000042202FB0100801C01220146009029484D
:10484000801C02F05EFF254800682849401AC01C01
:1048500020490978042202FB0100C01C0122014604
:1048600000902048C01C02F04CFF1A480078401C01
:1048700018490870194800681C49401A801C012218
:1048800001460090134802F03CFF174800781028BA
:1048900063D1124800681549401ACB300D49097898
:1048A000042202FB01000122014600900D4802F0A3
:1048B00028FF0A4800680D49401ACB30054909789D
:1048C000042202FB0100401C012201460090054821
:1048D000401C0DE0610000205C000020540000201E
:1048E00000350C003E0000205D00002040420F001B
:1048F00002F007FFFE480068FE49401ACB30FE492F
:104900000978042202FB0100801C0122014600906C
:10491000FA4802F0F6FEF6480068F649401ACB3035
:10492000F5490978042202FB0100C01C012201465E
:104930000090F248401C02F0E4FEEF480078401C72
:10494000ED490870EA480068EA49401ACA30012275
:1049500001460090E84802F0D4FEE94800781128AA
:104960005AD1E3480068E349401A00F29310E24943
:104970000978042202FB0100012201460090DF4871
:10498000801E02F0BEFEDA480068DA49401A00F2E2
:104990009310D9490978042202FB0100401C01222E
:1049A00001460090D548401E02F0ABFED04800689A
:1049B000D049401A00F29310CF490978042202FB33
:1049C0000100801C012201460090CC4802F099FEB3
:1049D000C7480068C749401A00F29310C6490978D1
:1049E000042202FB0100C01C012201460090C348C2
:1049F000401C02F086FEC0480078401CBE4908708A
:104A0000BB480068BB49401A00F5C9700122014645
:104A10000090B94802F075FEB948007812285AD1C2
:104A2000B3480068B349401A00F25B20B2490978E4
:104A3000042202FB0100012201460090AF48801EC3
:104A400002F05FFEAA480068AA49401A00F25B2003
:104A5000A9490978042202FB0100401C01220146F9
:104A60000090A648401E02F04CFEA1480068A149F3
:104A7000401A00F25B20A0490978042202FB0100E1
:104A8000801C0122014600909C4802F03AFE9848A2
:104A900000689849401A00F25B209749097804227F
:104AA00002FB0100C01C0122014600909348401CFB
:104AB00002F027FE90480078401C8F4908708C480F
:104AC00000688C49401A00F25A20012201460090E9
:104AD000894802F016FE8A48007813285AD1844883
:104AE00000688449401A00F223308349097804227F
:104AF00002FB01000122014600908048801E02F066
:104B000000FE7B4800687B49401A00F223307A4956
:104B10000978042202FB0100401C0122014600909A
:104B20007648401E02F0EDFD714800687149401A58
:104B300000F2233070490978042202FB0100801C36
:104B40000122014600906D4802F0DBFD68480068D4
:104B50006849401A00F2233067490978042202FBB1
:104B60000100C01C0122014600906448401C02F074
:104B7000C8FD61480078401C5F4908705C480068C7
:104B80005C49401A00F222300122014600905A4846
:104B900002F0B7FD5A48007814285AD154480068EA
:104BA0005449401A00F2EB3053490978042202FBC1
:104BB00001000122014600905048801E02F0A1FD34
:104BC0004B4800684B49401A00F2EB304A490978DB
:104BD000042202FB0100401C0122014600904748CC
:104BE000401E02F08EFD424800684249401A00F221
:104BF000EB3041490978042202FB0100801C0122AC
:104C0000014600903D4802F07CFD39480068394972
:104C1000401A00F2EB3038490978042202FB010007
:104C2000C01C0122014600903448401C02F069FD7E
:104C300031480078401C304908702D4800682D49E3
:104C4000401A00F2EA300122014600902A4802F0A0
:104C500058FD2B480078152865D12548006825495E
:104C6000401A00F2B34024490978042202FB0100F3
:104C70000122014600902148801E02F042FD1C489E
:104C800000681C49401A00F2B3401B49097804220D
:104C900002FB0100401C0122014600901748401E03
:104CA00002F02FFD124800681249401A00F2B3408A
:104CB00011490978042202FB0100801C01220146EF
:104CC00000900E4802F01DFD094800680949401A8D
:104CD00000F2B34008490978042202FB0100C01C1D
:104CE0000122014600900548401C02F00AFD09E03F
:104CF0005400002040420F006100002040000020CE
:104D00005D00002008480078401C074908700748EB
:104D100000680749401A00F2B240012201460090A3
:104D2000014802F0EEFC08BD6100002054000020A4
:104D300040420F0008B501211820FBF78FFE10201C
:104D40008DF803000220ADF8000003208DF802006A
:104D500069464E48FBF7C6FB02214C48FBF76FFC47
:104D600010208DF803002020ADF8000003208DF8FE
:104D7000020069464648FBF7B5FB20214448FBF793
:104D80005EFC08BD08B501210820FBF767FE102076
:104D90008DF803000420ADF8000003208DF8020018
:104DA00069463A48FBF79EFB04213848FBF749FC6B
:104DB00008BD08B501219020FBF750FE10208DF8AA
:104DC00003000220ADF8000003208DF802006946C0
:104DD0002F48FBF787FB02212D48FBF732FC102000
:104DE0008DF803000120ADF8000003208DF80200CB
:104DF00069462748FBF776FB01212548FBF721FC94
:104E000010208DF803002020ADF8000003208DF85D
:104E1000020069461F48FBF765FB20211D48FBF790
:104E200010FC1D4801F0FFFF022019490861012014
:104E30000861202017491031086008BD08B501211C
:104E40001020FBF70BFE10208DF803000420ADF8B6
:104E5000000003208DF8020069460D48FBF742FB75
:104E600004210B48FBF7EDFB08BD08B5012110201C
:104E7000FBF7F4FD28208DF803004FF48070ADF8A7
:104E8000000069460248FBF72DFB08BD000C0140FD
:104E900000100140001C0140E093040008B54FF4ED
:104EA000A060FBF751FA35208DF8000001208DF845
:104EB000010002208DF8020001208DF803006846F1
:104EC000FBF747FA08BD08B54FF4A060FBF73CFAC2
:104ED00026208DF8000001208DF801008DF80200D9
:104EE0008DF803006846FBF734FA08BD08B54FF4A7
:104EF000A060FBF729FA25208DF8000001208DF82D
:104F0000010002208DF8020001208DF803006846A0
:104F1000FBF71FFA08BD00B585B001210805FBF7B6
:104F2000AAFD01213120FBF799FD4FF48050ADF827
:104F3000100018208DF8130003208DF8120004A92A
:104F4000FE48FBF7CFFA0420ADF810008DF81300EF
:104F500003208DF8120004A9F948FBF7C3FA4FF4B7
:104F6000E13000900020ADF80400ADF80600ADF887
:104F70000800ADF80C000C20ADF80A006946F148B5
:104F8000FCF735FF012240F22551EE48FCF7C7FF40
:104F90004021EC48FDF79FF80121EA48FCF7B3FFF8
:104FA00005B000BD00B585B00121C804FBF763FD65
:104FB00001211120FBF752FD4FF48060ADF8100085
:104FC00018208DF8130003208DF8120004A9DB4887
:104FD000FBF788FA4FF40060ADF8100004208DF85C
:104FE000130003208DF8120004A9D448FBF77AFAC5
:104FF0004FF4614000900020ADF80400ADF80600C9
:10500000ADF80800ADF80C000C20ADF80A006946B8
:10501000CD48FCF7ECFE012240F22551CA48FCF7CE
:105020007EFF4021C848FDF756F80121C648FCF72D
:105030006AFF05B000BD00B585B001218804FBF70B
:105040001AFD01210820FBF709FDC048FCF78CFE82
:105050004FF48060ADF8100018208DF81300032085
:105060008DF8120004A9BA48FBF73CFA4FF400602F
:10507000ADF8100004208DF8130003208DF8120005
:1050800004A9B348FBF72EFA4FF4E130009000205A
:10509000ADF80400ADF80600ADF80800ADF80C005E
:1050A0000C20ADF80A006946A848FCF7A0FE0121D3
:1050B000A648FCF728FF4021A448FCF7FFFF05B0F5
:1050C00000BD00B585B001214804FBF7D4FC0121E7
:1050D0000420FBF7C3FC0420ADF8100018208DF865
:1050E000130003208DF8120004A99A48FBF7FAF97F
:1050F0000820ADF8100004208DF8130003208DF86F
:10510000120004A99348FBF7EDF94FF4E130009049
:105110000020ADF80400ADF80600ADF80800ADF8C9
:105120000C000C20ADF80A0069468B48FCF75FFEC6
:10513000012240F225518848FCF7F1FE40218648C3
:10514000FCF7C9FF01218448FCF7DDFE05B000BD76
:1051500000B585B0012144F20500FBF77FFC4FF458
:105160000070ADF8100018208DF8130003208DF8A2
:10517000120004A97748FBF7B5F94FF48060ADF849
:10518000100004208DF8130004A97248FBF7AAF957
:105190004FF4E13000900020ADF80400ADF80600B7
:1051A000ADF80800ADF80C000C20ADF80A00694617
:1051B0006A48FCF71CFE012240F225516748FCF7C3
:1051C000AEFE40216548FCF786FF01216348FCF7ED
:1051D0009AFE05B000BD10B5FFF7BAFFFFF771FFEB
:1051E000FFF729FFFFF7DEFEFFF795FEFFF77EFED4
:1051F000FFF769FEFFF752FE10BD08B54FF4A0603F
:10520000FBF7A2F827208DF8000001208DF801009F
:1052100002208DF8020001208DF803006846FBF79C
:1052200098F808BD08B54FF4A060FBF78DF834205E
:105230008DF8000001208DF8010002208DF8020099
:1052400001208DF803006846FBF783F808BD2DE9BF
:10525000F04103460D4617464FF0000C29460A2F31
:1052600028D13BB9302001F8010B002008702846F6
:10527000BDE8F081002B03DA2D2001F8010B5B4221
:1052800042F2107410E093FBF4F212B9BCF1000F7B
:1052900007D002F1300001F8010B02FB14334FF08C
:1052A000010C0A2094FBF0F4002CECDC00200870C8
:1052B0002846DDE7102F62D143B9302001F8010BF9
:1052C00001F8010B002008702846D1E70A2B0ADA02
:1052D000302001F8010B03F1300001F8010B002030
:1052E00008702846C4E700241DE0641C18464FEAF5
:1052F000E37803EB18784FEA2818A3EB08124FEA7B
:10530000E37803EB18784FEA28130A2A03DA02F14C
:10531000300001F8010B0A2A05DB0F2A03DC02F139
:10532000370001F8010B002BDFD1204604EBD078C9
:105330004FEA6808A8F101061BE0000000100140D8
:105340000014014000500040004C00400048004064
:10535000000C0140000801400044004000380140BA
:10536000AA5DA01B401E285CA855A01B401E2A5405
:10537000761E002EF4DA00200870284678E7002018
:105380000870284674E70FB470B586B005460CA8BF
:10539000019093E00B9800785C281CD10B98401C7E
:1053A0000B9000786E2809D072280FD10D21284665
:1053B000FCF716FE0B98401C0B900BE00A212846C8
:1053C000FCF70EFE0B98401C0B9003E00B98401C62
:1053D0000B9000BF6BE00B980078252860D10B98EC
:1053E000401C0B90007864281BD0732802D07828CA
:1053F00051D133E0019810C801900BE02178284684
:10540000FCF7EEFD00BF80212846FCF757FE002880
:10541000F9D0641C20780028F0D10B98401C0B9028
:105420003DE0019840C801900A2202A93046FFF7EA
:105430000EFF02AC0BE021782846FCF7D1FD00BF3F
:1054400080212846FCF73AFE0028F9D0641C207819
:105450000028F0D10B98401C0B9020E0019840C828
:105460000190102202A93046FFF7F1FE02AC0BE0DA
:1054700021782846FCF7B4FD00BF80212846FCF7C0
:105480001DFE0028F9D0641C20780028F0D10B986C
:10549000401C0B9003E00B98401C0B9000BF06E0F3
:1054A0000B9810F8011B0B902846FCF799FD00BFE4
:1054B00080212846FCF702FE0028F9D00B980078DE
:1054C00000287FF467AF06B070BC5DF814FB10B520
:1054D000044600BF20213948FCF7F0FD0028F9D030
:1054E0003648FCF781FD10BD70B504460D46E1B2AB
:1054F0003248FCF775FD00BF40213048FCF7DEFD67
:105500000028F9D0204670BD00BF2D48008800F06B
:1055100020000028F9D02A48001D0088C0F30800A8
:10552000704770B50446002500BF20212046FCF7D7
:10553000C5FD0028F9D02046FCF756FDC5B2284627
:1055400070BD2DE9F04107460D461646002400BF08
:105550003846FFF7E6FF2855641CB442F8D3BDE88F
:10556000F08170B504460D4629462046FCF738FD0B
:1055700000BF80212046FCF7A1FD0028F9D070BDB6
:105580002DE9F04107460D461646002400BF295D6F
:105590003846FFF7E6FF641CB442F8D3BDE8F0815B
:1055A00070B506460C46002500BF615D3046FFF72A
:1055B000D8FF6D1C605D0028F7D170BD0048004029
:1055C0000038014070B5044608256901F848FBF72A
:1055D00036F800BF00BF2021F548FBF732F800BFC6
:1055E00000BF16E004F0800020B14021F048FBF736
:1055F00026F803E04021EE48FBF723F82021EC4891
:10560000FBF71DF800BF2021E948FBF71AF86006F8
:10561000040E2800A5F10101CDB2E3D170BD70B533
:10562000044608256901E248FBF70BF82021E04811
:10563000FBF707F816E004F0800020B14021DC48B9
:10564000FAF7FDFF03E04021D948FAF7FAFF2021DD
:10565000D748FAF7F4FF00BF2021D548FAF7F1FF49
:105660006006040E2800A5F10101CDB2E3D170BDA2
:1056700070B504460D4605F1B001C8B2FFF7CFFF83
:10568000102141EA1410FFF7CAFF04F00F0141F0A6
:105690000100FFF7C4FF70BD70B50646002415E099
:1056A00004F1B001C8B2FFF7BAFF0120FFF7B7FF5E
:1056B0001020FFF7B4FF002504E03046FFF782FF1B
:1056C000681CC5B2802DF8DB601CC4B2082CE7DB77
:1056D00070BD70B5002415E004F1B001C8B2FFF749
:1056E0009EFF0120FFF79BFF1020FFF798FF00258A
:1056F00004E00020FFF766FF681CC5B2802DF8DBD0
:10570000601CC4B2082CE7DB70BD70B5044604F120
:10571000B001C8B2FFF783FF0120FFF780FF102020
:10572000FFF77DFF002504E00020FFF74BFF681C1A
:10573000C5B2802DF8DB70BD07E040F2375100BFE5
:105740000A00A1F10101FBD1401E0028F5D17047EC
:1057500010B504462046FFF762FF10BD70B5044641
:105760002546E11704EB11710911A4EB0111C8B230
:10577000FFF755FF2546E11704EB117109111031B0
:10578000C8B2FFF74CFF70BD10B504462020FFF7EC
:1057900046FF2046FFF743FF10BD70B505460C4697
:1057A0002120FFF73CFF2846FFF739FF2046FFF78F
:1057B00036FF70BD70B505460C462220FFF72FFF5F
:1057C0002846FFF72CFF2046FFF729FF70BD10B5D4
:1057D000044644F04000FFF722FF10BD10B5044618
:1057E0008120FFF71CFF2046FFF719FF10BD10B501
:1057F00004468D20FFF713FF44F01000FFF70FFF62
:1058000010BD10B5044644F0A000FFF708FF10BD1E
:1058100010B5044644F0A400FFF701FF10BD10B519
:10582000044644F0A600FFF7FAFE10BD10B504468A
:10583000A820FFF7F4FE2046FFF7F1FE10BD10B5DB
:10584000044644F0AE00FFF7EAFE10BD10B5044672
:1058500044F0B000FFF7E3FE10BD10B5044644F07D
:10586000C000FFF7DCFE10BD10B50446D320FFF7E3
:10587000D6FE2046FFF7D3FE10BD10B50446D52056
:10588000FFF7CDFE2046FFF7CAFE10BD10B5044657
:10589000D920FFF7C4FE2046FFF7C1FE10BD10B5AA
:1058A0000446DA20FFF7BBFE44F00200FFF7B7FE24
:1058B00010BD10B50446DB20FFF7B1FE2046FFF710
:1058C000AEFE10BD10B5E320FFF7A9FE10BD70B508
:1058D00005460C4621462846FFF7CAFE2046E1173A
:1058E00004EB5171C910A4EBC10201219140CEB269
:1058F000B02101EBE401C8B2FFF791FE102141EAAB
:105900001510FFF78CFE05F00F00FFF788FE3046FC
:10591000FFF758FE70BD2DE9F04707460C4690464C
:105920001D46DDF820A0E1103846FFF7A1FE3E46F7
:1059300013E0A146E11704EB5171C910A4EBC102B9
:1059400001219140C8B2FFF73DFEBAF1010F02D12B
:105950003220FFF7F1FE701CC6B24645E9DDE910C2
:105960003846FFF785FE3E4613E0A946E91705EBEA
:105970005171C910A5EBC10201219140C8B2FFF7D6
:1059800021FEBAF1010F02D10520FFF7D5FE701CF0
:10599000C6B24645E9DDBDE8F0872DE9F04704468B
:1059A000884615464FF000090026002723E0000036
:1059B000000C0140E85D203800F0FF097E2C04DD7A
:1059C000002408F1010000F0FF0841462046FFF7DF
:1059D0004FFE002609E009EB4901FA4A02EB4101BA
:1059E000885DFFF7EFFD701CC6B2062EF3DBA01D2D
:1059F000C4B2781CC7B2E85D0028DBD1BDE8F087EF
:105A00002DE9F04706460F46904600250024A146A2
:105A100031E018F809002038C5B2782E02DD0026E2
:105A2000781CC7B239463046FFF722FE002407E053
:105A300004EB0511E44A505CFFF7C4FD601CC4B2DE
:105A4000082CF5DB781CC1B23046FFF711FE0024AC
:105A500008E004EB05110831DB4A505CFFF7B2FDAA
:105A6000601CC4B2082CF4DB06F10800C6B209F1D0
:105A7000010000F0FF0918F809000028C9D1BDE8AD
:105A8000F0872DE9F04706460D4691460024002791
:105A90004FF001084AE000244FF00108762E02DDA5
:105AA0000026681CC5B229463046FFF7E1FDB8F173
:105AB000010F19D029463046FFF7DAFD002403E034
:105AC00008F10108601CC4B20E2CF9DB681CC1B2DD
:105AD0003046FFF7CDFD002403E008F10108601C0B
